{
	"contracts/myContacts/16_ArrayReplaceFromEnd.sol": {
		"ArrayReplaceFromEnd": {
			"abi": [
				{
					"inputs": [
						{
							"internalType": "uint256",
							"name": "_index",
							"type": "uint256"
						}
					],
					"name": "remove",
					"outputs": [],
					"stateMutability": "nonpayable",
					"type": "function"
				},
				{
					"inputs": [],
					"name": "test",
					"outputs": [],
					"stateMutability": "nonpayable",
					"type": "function"
				}
			],
			"devdoc": {
				"kind": "dev",
				"methods": {},
				"version": 1
			},
			"evm": {
				"assembly": "    /* \"contracts/myContacts/16_ArrayReplaceFromEnd.sol\":60:400  contract ArrayReplaceFromEnd{... */\n  mstore(0x40, 0x80)\n  callvalue\n  dup1\n  iszero\n  tag_1\n  jumpi\n  0x00\n  dup1\n  revert\ntag_1:\n  pop\n  dataSize(sub_0)\n  dup1\n  dataOffset(sub_0)\n  0x00\n  codecopy\n  0x00\n  return\nstop\n\nsub_0: assembly {\n        /* \"contracts/myContacts/16_ArrayReplaceFromEnd.sol\":60:400  contract ArrayReplaceFromEnd{... */\n      mstore(0x40, 0x80)\n      callvalue\n      dup1\n      iszero\n      tag_1\n      jumpi\n      0x00\n      dup1\n      revert\n    tag_1:\n      pop\n      jumpi(tag_2, lt(calldatasize, 0x04))\n      shr(0xe0, calldataload(0x00))\n      dup1\n      0x4cc82215\n      eq\n      tag_3\n      jumpi\n      dup1\n      0xf8a8fd6d\n      eq\n      tag_4\n      jumpi\n    tag_2:\n      0x00\n      dup1\n      revert\n        /* \"contracts/myContacts/16_ArrayReplaceFromEnd.sol\":120:233  function remove(uint256 _index) public {... */\n    tag_3:\n      tag_5\n      0x04\n      dup1\n      calldatasize\n      sub\n      dup2\n      add\n      swap1\n      tag_6\n      swap2\n      swap1\n      tag_7\n      jump\t// in\n    tag_6:\n      tag_8\n      jump\t// in\n    tag_5:\n      stop\n        /* \"contracts/myContacts/16_ArrayReplaceFromEnd.sol\":241:392  function test() public{... */\n    tag_4:\n      tag_9\n      tag_10\n      jump\t// in\n    tag_9:\n      stop\n        /* \"contracts/myContacts/16_ArrayReplaceFromEnd.sol\":120:233  function remove(uint256 _index) public {... */\n    tag_8:\n        /* \"contracts/myContacts/16_ArrayReplaceFromEnd.sol\":186:189  arr */\n      0x00\n        /* \"contracts/myContacts/16_ArrayReplaceFromEnd.sol\":201:202  1 */\n      0x01\n        /* \"contracts/myContacts/16_ArrayReplaceFromEnd.sol\":190:193  arr */\n      0x00\n        /* \"contracts/myContacts/16_ArrayReplaceFromEnd.sol\":190:200  arr.length */\n      dup1\n      sload\n      swap1\n      pop\n        /* \"contracts/myContacts/16_ArrayReplaceFromEnd.sol\":190:202  arr.length-1 */\n      tag_12\n      swap2\n      swap1\n      tag_13\n      jump\t// in\n    tag_12:\n        /* \"contracts/myContacts/16_ArrayReplaceFromEnd.sol\":186:203  arr[arr.length-1] */\n      dup2\n      sload\n      dup2\n      lt\n      tag_14\n      jumpi\n      tag_15\n      tag_16\n      jump\t// in\n    tag_15:\n    tag_14:\n      swap1\n      0x00\n      mstore\n      keccak256(0x00, 0x20)\n      add\n      sload\n        /* \"contracts/myContacts/16_ArrayReplaceFromEnd.sol\":172:175  arr */\n      0x00\n        /* \"contracts/myContacts/16_ArrayReplaceFromEnd.sol\":176:182  _index */\n      dup3\n        /* \"contracts/myContacts/16_ArrayReplaceFromEnd.sol\":172:183  arr[_index] */\n      dup2\n      sload\n      dup2\n      lt\n      tag_18\n      jumpi\n      tag_19\n      tag_16\n      jump\t// in\n    tag_19:\n    tag_18:\n      swap1\n      0x00\n      mstore\n      keccak256(0x00, 0x20)\n      add\n        /* \"contracts/myContacts/16_ArrayReplaceFromEnd.sol\":172:203  arr[_index] = arr[arr.length-1] */\n      dup2\n      swap1\n      sstore\n      pop\n        /* \"contracts/myContacts/16_ArrayReplaceFromEnd.sol\":216:219  arr */\n      0x00\n        /* \"contracts/myContacts/16_ArrayReplaceFromEnd.sol\":216:225  arr.pop() */\n      dup1\n      sload\n      dup1\n      tag_21\n      jumpi\n      tag_22\n      tag_23\n      jump\t// in\n    tag_22:\n    tag_21:\n      0x01\n      swap1\n      sub\n      dup2\n      dup2\n      swap1\n      0x00\n      mstore\n      keccak256(0x00, 0x20)\n      add\n      0x00\n      swap1\n      sstore\n      swap1\n      sstore\n        /* \"contracts/myContacts/16_ArrayReplaceFromEnd.sol\":120:233  function remove(uint256 _index) public {... */\n      pop\n      jump\t// out\n        /* \"contracts/myContacts/16_ArrayReplaceFromEnd.sol\":241:392  function test() public{... */\n    tag_10:\n        /* \"contracts/myContacts/16_ArrayReplaceFromEnd.sol\":274:292  arr =[0,1,2,3,4,5] */\n      mload(0x40)\n      dup1\n      0xc0\n      add\n      0x40\n      mstore\n      dup1\n        /* \"contracts/myContacts/16_ArrayReplaceFromEnd.sol\":280:281  0 */\n      0x00\n        /* \"contracts/myContacts/16_ArrayReplaceFromEnd.sol\":274:292  arr =[0,1,2,3,4,5] */\n      0xff\n      and\n      dup2\n      mstore\n      0x20\n      add\n        /* \"contracts/myContacts/16_ArrayReplaceFromEnd.sol\":282:283  1 */\n      0x01\n        /* \"contracts/myContacts/16_ArrayReplaceFromEnd.sol\":274:292  arr =[0,1,2,3,4,5] */\n      0xff\n      and\n      dup2\n      mstore\n      0x20\n      add\n        /* \"contracts/myContacts/16_ArrayReplaceFromEnd.sol\":284:285  2 */\n      0x02\n        /* \"contracts/myContacts/16_ArrayReplaceFromEnd.sol\":274:292  arr =[0,1,2,3,4,5] */\n      0xff\n      and\n      dup2\n      mstore\n      0x20\n      add\n        /* \"contracts/myContacts/16_ArrayReplaceFromEnd.sol\":286:287  3 */\n      0x03\n        /* \"contracts/myContacts/16_ArrayReplaceFromEnd.sol\":274:292  arr =[0,1,2,3,4,5] */\n      0xff\n      and\n      dup2\n      mstore\n      0x20\n      add\n        /* \"contracts/myContacts/16_ArrayReplaceFromEnd.sol\":288:289  4 */\n      0x04\n        /* \"contracts/myContacts/16_ArrayReplaceFromEnd.sol\":274:292  arr =[0,1,2,3,4,5] */\n      0xff\n      and\n      dup2\n      mstore\n      0x20\n      add\n        /* \"contracts/myContacts/16_ArrayReplaceFromEnd.sol\":290:291  5 */\n      0x05\n        /* \"contracts/myContacts/16_ArrayReplaceFromEnd.sol\":274:292  arr =[0,1,2,3,4,5] */\n      0xff\n      and\n      dup2\n      mstore\n      pop\n        /* \"contracts/myContacts/16_ArrayReplaceFromEnd.sol\":274:277  arr */\n      0x00\n        /* \"contracts/myContacts/16_ArrayReplaceFromEnd.sol\":274:292  arr =[0,1,2,3,4,5] */\n      swap1\n      0x06\n      tag_26\n      swap3\n      swap2\n      swap1\n      tag_27\n      jump\t// in\n    tag_26:\n      pop\n        /* \"contracts/myContacts/16_ArrayReplaceFromEnd.sol\":307:316  remove(1) */\n      tag_28\n        /* \"contracts/myContacts/16_ArrayReplaceFromEnd.sol\":314:315  1 */\n      0x01\n        /* \"contracts/myContacts/16_ArrayReplaceFromEnd.sol\":307:313  remove */\n      tag_8\n        /* \"contracts/myContacts/16_ArrayReplaceFromEnd.sol\":307:316  remove(1) */\n      jump\t// in\n    tag_28:\n        /* \"contracts/myContacts/16_ArrayReplaceFromEnd.sol\":380:381  5 */\n      0x05\n        /* \"contracts/myContacts/16_ArrayReplaceFromEnd.sol\":370:373  arr */\n      0x00\n        /* \"contracts/myContacts/16_ArrayReplaceFromEnd.sol\":374:375  1 */\n      0x01\n        /* \"contracts/myContacts/16_ArrayReplaceFromEnd.sol\":370:376  arr[1] */\n      dup2\n      sload\n      dup2\n      lt\n      tag_29\n      jumpi\n      tag_30\n      tag_16\n      jump\t// in\n    tag_30:\n    tag_29:\n      swap1\n      0x00\n      mstore\n      keccak256(0x00, 0x20)\n      add\n      sload\n        /* \"contracts/myContacts/16_ArrayReplaceFromEnd.sol\":370:381  arr[1] == 5 */\n      eq\n        /* \"contracts/myContacts/16_ArrayReplaceFromEnd.sol\":363:382  assert(arr[1] == 5) */\n      tag_32\n      jumpi\n      tag_33\n      tag_34\n      jump\t// in\n    tag_33:\n    tag_32:\n        /* \"contracts/myContacts/16_ArrayReplaceFromEnd.sol\":241:392  function test() public{... */\n      jump\t// out\n    tag_27:\n      dup3\n      dup1\n      sload\n      dup3\n      dup3\n      sstore\n      swap1\n      0x00\n      mstore\n      keccak256(0x00, 0x20)\n      swap1\n      dup2\n      add\n      swap3\n      dup3\n      iszero\n      tag_35\n      jumpi\n      swap2\n      0x20\n      mul\n      dup3\n      add\n    tag_36:\n      dup3\n      dup2\n      gt\n      iszero\n      tag_37\n      jumpi\n      dup3\n      mload\n      dup3\n      swap1\n      0xff\n      and\n      swap1\n      sstore\n      swap2\n      0x20\n      add\n      swap2\n      swap1\n      0x01\n      add\n      swap1\n      jump(tag_36)\n    tag_37:\n    tag_35:\n      pop\n      swap1\n      pop\n      tag_38\n      swap2\n      swap1\n      tag_39\n      jump\t// in\n    tag_38:\n      pop\n      swap1\n      jump\t// out\n    tag_39:\n    tag_40:\n      dup1\n      dup3\n      gt\n      iszero\n      tag_41\n      jumpi\n      0x00\n      dup2\n      0x00\n      swap1\n      sstore\n      pop\n      0x01\n      add\n      jump(tag_40)\n    tag_41:\n      pop\n      swap1\n      jump\t// out\n        /* \"#utility.yul\":88:205   */\n    tag_43:\n        /* \"#utility.yul\":197:198   */\n      0x00\n        /* \"#utility.yul\":194:195   */\n      dup1\n        /* \"#utility.yul\":187:199   */\n      revert\n        /* \"#utility.yul\":334:411   */\n    tag_45:\n        /* \"#utility.yul\":371:378   */\n      0x00\n        /* \"#utility.yul\":400:405   */\n      dup2\n        /* \"#utility.yul\":389:405   */\n      swap1\n      pop\n        /* \"#utility.yul\":334:411   */\n      swap2\n      swap1\n      pop\n      jump\t// out\n        /* \"#utility.yul\":417:539   */\n    tag_46:\n        /* \"#utility.yul\":490:514   */\n      tag_55\n        /* \"#utility.yul\":508:513   */\n      dup2\n        /* \"#utility.yul\":490:514   */\n      tag_45\n      jump\t// in\n    tag_55:\n        /* \"#utility.yul\":483:488   */\n      dup2\n        /* \"#utility.yul\":480:515   */\n      eq\n        /* \"#utility.yul\":470:533   */\n      tag_56\n      jumpi\n        /* \"#utility.yul\":529:530   */\n      0x00\n        /* \"#utility.yul\":526:527   */\n      dup1\n        /* \"#utility.yul\":519:531   */\n      revert\n        /* \"#utility.yul\":470:533   */\n    tag_56:\n        /* \"#utility.yul\":417:539   */\n      pop\n      jump\t// out\n        /* \"#utility.yul\":545:684   */\n    tag_47:\n        /* \"#utility.yul\":591:596   */\n      0x00\n        /* \"#utility.yul\":629:635   */\n      dup2\n        /* \"#utility.yul\":616:636   */\n      calldataload\n        /* \"#utility.yul\":607:636   */\n      swap1\n      pop\n        /* \"#utility.yul\":645:678   */\n      tag_58\n        /* \"#utility.yul\":672:677   */\n      dup2\n        /* \"#utility.yul\":645:678   */\n      tag_46\n      jump\t// in\n    tag_58:\n        /* \"#utility.yul\":545:684   */\n      swap3\n      swap2\n      pop\n      pop\n      jump\t// out\n        /* \"#utility.yul\":690:1019   */\n    tag_7:\n        /* \"#utility.yul\":749:755   */\n      0x00\n        /* \"#utility.yul\":798:800   */\n      0x20\n        /* \"#utility.yul\":786:795   */\n      dup3\n        /* \"#utility.yul\":777:784   */\n      dup5\n        /* \"#utility.yul\":773:796   */\n      sub\n        /* \"#utility.yul\":769:801   */\n      slt\n        /* \"#utility.yul\":766:885   */\n      iszero\n      tag_60\n      jumpi\n        /* \"#utility.yul\":804:883   */\n      tag_61\n      tag_43\n      jump\t// in\n    tag_61:\n        /* \"#utility.yul\":766:885   */\n    tag_60:\n        /* \"#utility.yul\":924:925   */\n      0x00\n        /* \"#utility.yul\":949:1002   */\n      tag_62\n        /* \"#utility.yul\":994:1001   */\n      dup5\n        /* \"#utility.yul\":985:991   */\n      dup3\n        /* \"#utility.yul\":974:983   */\n      dup6\n        /* \"#utility.yul\":970:992   */\n      add\n        /* \"#utility.yul\":949:1002   */\n      tag_47\n      jump\t// in\n    tag_62:\n        /* \"#utility.yul\":939:1002   */\n      swap2\n      pop\n        /* \"#utility.yul\":895:1012   */\n      pop\n        /* \"#utility.yul\":690:1019   */\n      swap3\n      swap2\n      pop\n      pop\n      jump\t// out\n        /* \"#utility.yul\":1025:1205   */\n    tag_48:\n        /* \"#utility.yul\":1073:1150   */\n      0x4e487b7100000000000000000000000000000000000000000000000000000000\n        /* \"#utility.yul\":1070:1071   */\n      0x00\n        /* \"#utility.yul\":1063:1151   */\n      mstore\n        /* \"#utility.yul\":1170:1174   */\n      0x11\n        /* \"#utility.yul\":1167:1168   */\n      0x04\n        /* \"#utility.yul\":1160:1175   */\n      mstore\n        /* \"#utility.yul\":1194:1198   */\n      0x24\n        /* \"#utility.yul\":1191:1192   */\n      0x00\n        /* \"#utility.yul\":1184:1199   */\n      revert\n        /* \"#utility.yul\":1211:1405   */\n    tag_13:\n        /* \"#utility.yul\":1251:1255   */\n      0x00\n        /* \"#utility.yul\":1271:1291   */\n      tag_65\n        /* \"#utility.yul\":1289:1290   */\n      dup3\n        /* \"#utility.yul\":1271:1291   */\n      tag_45\n      jump\t// in\n    tag_65:\n        /* \"#utility.yul\":1266:1291   */\n      swap2\n      pop\n        /* \"#utility.yul\":1305:1325   */\n      tag_66\n        /* \"#utility.yul\":1323:1324   */\n      dup4\n        /* \"#utility.yul\":1305:1325   */\n      tag_45\n      jump\t// in\n    tag_66:\n        /* \"#utility.yul\":1300:1325   */\n      swap3\n      pop\n        /* \"#utility.yul\":1349:1350   */\n      dup3\n        /* \"#utility.yul\":1346:1347   */\n      dup3\n        /* \"#utility.yul\":1342:1351   */\n      sub\n        /* \"#utility.yul\":1334:1351   */\n      swap1\n      pop\n        /* \"#utility.yul\":1373:1374   */\n      dup2\n        /* \"#utility.yul\":1367:1371   */\n      dup2\n        /* \"#utility.yul\":1364:1375   */\n      gt\n        /* \"#utility.yul\":1361:1398   */\n      iszero\n      tag_67\n      jumpi\n        /* \"#utility.yul\":1378:1396   */\n      tag_68\n      tag_48\n      jump\t// in\n    tag_68:\n        /* \"#utility.yul\":1361:1398   */\n    tag_67:\n        /* \"#utility.yul\":1211:1405   */\n      swap3\n      swap2\n      pop\n      pop\n      jump\t// out\n        /* \"#utility.yul\":1411:1591   */\n    tag_16:\n        /* \"#utility.yul\":1459:1536   */\n      0x4e487b7100000000000000000000000000000000000000000000000000000000\n        /* \"#utility.yul\":1456:1457   */\n      0x00\n        /* \"#utility.yul\":1449:1537   */\n      mstore\n        /* \"#utility.yul\":1556:1560   */\n      0x32\n        /* \"#utility.yul\":1553:1554   */\n      0x04\n        /* \"#utility.yul\":1546:1561   */\n      mstore\n        /* \"#utility.yul\":1580:1584   */\n      0x24\n        /* \"#utility.yul\":1577:1578   */\n      0x00\n        /* \"#utility.yul\":1570:1585   */\n      revert\n        /* \"#utility.yul\":1597:1777   */\n    tag_23:\n        /* \"#utility.yul\":1645:1722   */\n      0x4e487b7100000000000000000000000000000000000000000000000000000000\n        /* \"#utility.yul\":1642:1643   */\n      0x00\n        /* \"#utility.yul\":1635:1723   */\n      mstore\n        /* \"#utility.yul\":1742:1746   */\n      0x31\n        /* \"#utility.yul\":1739:1740   */\n      0x04\n        /* \"#utility.yul\":1732:1747   */\n      mstore\n        /* \"#utility.yul\":1766:1770   */\n      0x24\n        /* \"#utility.yul\":1763:1764   */\n      0x00\n        /* \"#utility.yul\":1756:1771   */\n      revert\n        /* \"#utility.yul\":1783:1963   */\n    tag_34:\n        /* \"#utility.yul\":1831:1908   */\n      0x4e487b7100000000000000000000000000000000000000000000000000000000\n        /* \"#utility.yul\":1828:1829   */\n      0x00\n        /* \"#utility.yul\":1821:1909   */\n      mstore\n        /* \"#utility.yul\":1928:1932   */\n      0x01\n        /* \"#utility.yul\":1925:1926   */\n      0x04\n        /* \"#utility.yul\":1918:1933   */\n      mstore\n        /* \"#utility.yul\":1952:1956   */\n      0x24\n        /* \"#utility.yul\":1949:1950   */\n      0x00\n        /* \"#utility.yul\":1942:1957   */\n      revert\n\n    auxdata: 0xa2646970667358221220c14691621abba97f852ae08285e14b0dfa8b9828a639229e5b45a91747ecc93064736f6c634300081a0033\n}\n",
				"bytecode": {
					"linkReferences": {},
					"object": "6080604052348015600e575f80fd5b506103478061001c5f395ff3fe608060405234801561000f575f80fd5b5060043610610034575f3560e01c80634cc8221514610038578063f8a8fd6d14610054575b5f80fd5b610052600480360381019061004d91906101ff565b61005e565b005b61005c6100d0565b005b5f60015f805490506100709190610257565b815481106100815761008061028a565b5b905f5260205f2001545f828154811061009d5761009c61028a565b5b905f5260205f2001819055505f8054806100ba576100b96102b7565b5b600190038181905f5260205f20015f9055905550565b6040518060c001604052805f60ff168152602001600160ff168152602001600260ff168152602001600360ff168152602001600460ff168152602001600560ff168152505f90600661012392919061015d565b5061012e600161005e565b60055f6001815481106101445761014361028a565b5b905f5260205f2001541461015b5761015a6102e4565b5b565b828054828255905f5260205f2090810192821561019c579160200282015b8281111561019b578251829060ff1690559160200191906001019061017b565b5b5090506101a991906101ad565b5090565b5b808211156101c4575f815f9055506001016101ae565b5090565b5f80fd5b5f819050919050565b6101de816101cc565b81146101e8575f80fd5b50565b5f813590506101f9816101d5565b92915050565b5f60208284031215610214576102136101c8565b5b5f610221848285016101eb565b91505092915050565b7f4e487b71000000000000000000000000000000000000000000000000000000005f52601160045260245ffd5b5f610261826101cc565b915061026c836101cc565b92508282039050818111156102845761028361022a565b5b92915050565b7f4e487b71000000000000000000000000000000000000000000000000000000005f52603260045260245ffd5b7f4e487b71000000000000000000000000000000000000000000000000000000005f52603160045260245ffd5b7f4e487b71000000000000000000000000000000000000000000000000000000005f52600160045260245ffdfea2646970667358221220c14691621abba97f852ae08285e14b0dfa8b9828a639229e5b45a91747ecc93064736f6c634300081a0033",
					"opcodes": "PUSH1 0x80 PUSH1 0x40 MSTORE CALLVALUE DUP1 ISZERO PUSH1 0xE JUMPI PUSH0 DUP1 REVERT JUMPDEST POP PUSH2 0x347 DUP1 PUSH2 0x1C PUSH0 CODECOPY PUSH0 RETURN INVALID PUSH1 0x80 PUSH1 0x40 MSTORE CALLVALUE DUP1 ISZERO PUSH2 0xF JUMPI PUSH0 DUP1 REVERT JUMPDEST POP PUSH1 0x4 CALLDATASIZE LT PUSH2 0x34 JUMPI PUSH0 CALLDATALOAD PUSH1 0xE0 SHR DUP1 PUSH4 0x4CC82215 EQ PUSH2 0x38 JUMPI DUP1 PUSH4 0xF8A8FD6D EQ PUSH2 0x54 JUMPI JUMPDEST PUSH0 DUP1 REVERT JUMPDEST PUSH2 0x52 PUSH1 0x4 DUP1 CALLDATASIZE SUB DUP2 ADD SWAP1 PUSH2 0x4D SWAP2 SWAP1 PUSH2 0x1FF JUMP JUMPDEST PUSH2 0x5E JUMP JUMPDEST STOP JUMPDEST PUSH2 0x5C PUSH2 0xD0 JUMP JUMPDEST STOP JUMPDEST PUSH0 PUSH1 0x1 PUSH0 DUP1 SLOAD SWAP1 POP PUSH2 0x70 SWAP2 SWAP1 PUSH2 0x257 JUMP JUMPDEST DUP2 SLOAD DUP2 LT PUSH2 0x81 JUMPI PUSH2 0x80 PUSH2 0x28A JUMP JUMPDEST JUMPDEST SWAP1 PUSH0 MSTORE PUSH1 0x20 PUSH0 KECCAK256 ADD SLOAD PUSH0 DUP3 DUP2 SLOAD DUP2 LT PUSH2 0x9D JUMPI PUSH2 0x9C PUSH2 0x28A JUMP JUMPDEST JUMPDEST SWAP1 PUSH0 MSTORE PUSH1 0x20 PUSH0 KECCAK256 ADD DUP2 SWAP1 SSTORE POP PUSH0 DUP1 SLOAD DUP1 PUSH2 0xBA JUMPI PUSH2 0xB9 PUSH2 0x2B7 JUMP JUMPDEST JUMPDEST PUSH1 0x1 SWAP1 SUB DUP2 DUP2 SWAP1 PUSH0 MSTORE PUSH1 0x20 PUSH0 KECCAK256 ADD PUSH0 SWAP1 SSTORE SWAP1 SSTORE POP JUMP JUMPDEST PUSH1 0x40 MLOAD DUP1 PUSH1 0xC0 ADD PUSH1 0x40 MSTORE DUP1 PUSH0 PUSH1 0xFF AND DUP2 MSTORE PUSH1 0x20 ADD PUSH1 0x1 PUSH1 0xFF AND DUP2 MSTORE PUSH1 0x20 ADD PUSH1 0x2 PUSH1 0xFF AND DUP2 MSTORE PUSH1 0x20 ADD PUSH1 0x3 PUSH1 0xFF AND DUP2 MSTORE PUSH1 0x20 ADD PUSH1 0x4 PUSH1 0xFF AND DUP2 MSTORE PUSH1 0x20 ADD PUSH1 0x5 PUSH1 0xFF AND DUP2 MSTORE POP PUSH0 SWAP1 PUSH1 0x6 PUSH2 0x123 SWAP3 SWAP2 SWAP1 PUSH2 0x15D JUMP JUMPDEST POP PUSH2 0x12E PUSH1 0x1 PUSH2 0x5E JUMP JUMPDEST PUSH1 0x5 PUSH0 PUSH1 0x1 DUP2 SLOAD DUP2 LT PUSH2 0x144 JUMPI PUSH2 0x143 PUSH2 0x28A JUMP JUMPDEST JUMPDEST SWAP1 PUSH0 MSTORE PUSH1 0x20 PUSH0 KECCAK256 ADD SLOAD EQ PUSH2 0x15B JUMPI PUSH2 0x15A PUSH2 0x2E4 JUMP JUMPDEST JUMPDEST JUMP JUMPDEST DUP3 DUP1 SLOAD DUP3 DUP3 SSTORE SWAP1 PUSH0 MSTORE PUSH1 0x20 PUSH0 KECCAK256 SWAP1 DUP2 ADD SWAP3 DUP3 ISZERO PUSH2 0x19C JUMPI SWAP2 PUSH1 0x20 MUL DUP3 ADD JUMPDEST DUP3 DUP2 GT ISZERO PUSH2 0x19B JUMPI DUP3 MLOAD DUP3 SWAP1 PUSH1 0xFF AND SWAP1 SSTORE SWAP2 PUSH1 0x20 ADD SWAP2 SWAP1 PUSH1 0x1 ADD SWAP1 PUSH2 0x17B JUMP JUMPDEST JUMPDEST POP SWAP1 POP PUSH2 0x1A9 SWAP2 SWAP1 PUSH2 0x1AD JUMP JUMPDEST POP SWAP1 JUMP JUMPDEST JUMPDEST DUP1 DUP3 GT ISZERO PUSH2 0x1C4 JUMPI PUSH0 DUP2 PUSH0 SWAP1 SSTORE POP PUSH1 0x1 ADD PUSH2 0x1AE JUMP JUMPDEST POP SWAP1 JUMP JUMPDEST PUSH0 DUP1 REVERT JUMPDEST PUSH0 DUP2 SWAP1 POP SWAP2 SWAP1 POP JUMP JUMPDEST PUSH2 0x1DE DUP2 PUSH2 0x1CC JUMP JUMPDEST DUP2 EQ PUSH2 0x1E8 JUMPI PUSH0 DUP1 REVERT JUMPDEST POP JUMP JUMPDEST PUSH0 DUP2 CALLDATALOAD SWAP1 POP PUSH2 0x1F9 DUP2 PUSH2 0x1D5 JUMP JUMPDEST SWAP3 SWAP2 POP POP JUMP JUMPDEST PUSH0 PUSH1 0x20 DUP3 DUP5 SUB SLT ISZERO PUSH2 0x214 JUMPI PUSH2 0x213 PUSH2 0x1C8 JUMP JUMPDEST JUMPDEST PUSH0 PUSH2 0x221 DUP5 DUP3 DUP6 ADD PUSH2 0x1EB JUMP JUMPDEST SWAP2 POP POP SWAP3 SWAP2 POP POP JUMP JUMPDEST PUSH32 0x4E487B7100000000000000000000000000000000000000000000000000000000 PUSH0 MSTORE PUSH1 0x11 PUSH1 0x4 MSTORE PUSH1 0x24 PUSH0 REVERT JUMPDEST PUSH0 PUSH2 0x261 DUP3 PUSH2 0x1CC JUMP JUMPDEST SWAP2 POP PUSH2 0x26C DUP4 PUSH2 0x1CC JUMP JUMPDEST SWAP3 POP DUP3 DUP3 SUB SWAP1 POP DUP2 DUP2 GT ISZERO PUSH2 0x284 JUMPI PUSH2 0x283 PUSH2 0x22A JUMP JUMPDEST JUMPDEST SWAP3 SWAP2 POP POP JUMP JUMPDEST PUSH32 0x4E487B7100000000000000000000000000000000000000000000000000000000 PUSH0 MSTORE PUSH1 0x32 PUSH1 0x4 MSTORE PUSH1 0x24 PUSH0 REVERT JUMPDEST PUSH32 0x4E487B7100000000000000000000000000000000000000000000000000000000 PUSH0 MSTORE PUSH1 0x31 PUSH1 0x4 MSTORE PUSH1 0x24 PUSH0 REVERT JUMPDEST PUSH32 0x4E487B7100000000000000000000000000000000000000000000000000000000 PUSH0 MSTORE PUSH1 0x1 PUSH1 0x4 MSTORE PUSH1 0x24 PUSH0 REVERT INVALID LOG2 PUSH5 0x6970667358 0x22 SLT KECCAK256 0xC1 CHAINID SWAP2 PUSH3 0x1ABBA9 PUSH32 0x852AE08285E14B0DFA8B9828A639229E5B45A91747ECC93064736F6C63430008 BYTE STOP CALLER "
				},
				"gasEstimates": {
					"creation": {
						"codeDepositCost": "167800",
						"executionCost": "212",
						"totalCost": "168012"
					},
					"external": {
						"remove(uint256)": "infinite",
						"test()": "infinite"
					}
				},
				"methodIdentifiers": {
					"remove(uint256)": "4cc82215",
					"test()": "f8a8fd6d"
				}
			},
			"storageLayout": {
				"storage": [
					{
						"astId": 4,
						"contract": "contracts/myContacts/16_ArrayReplaceFromEnd.sol:ArrayReplaceFromEnd",
						"label": "arr",
						"offset": 0,
						"slot": "0",
						"type": "t_array(t_uint256)dyn_storage"
					}
				],
				"types": {
					"t_array(t_uint256)dyn_storage": {
						"base": "t_uint256",
						"encoding": "dynamic_array",
						"label": "uint256[]",
						"numberOfBytes": "32"
					},
					"t_uint256": {
						"encoding": "inplace",
						"label": "uint256",
						"numberOfBytes": "32"
					}
				}
			},
			"userdoc": {
				"kind": "user",
				"methods": {},
				"version": 1
			}
		}
	}
}