{
	"contracts/myContacts/18_struct.sol": {
		"Struct": {
			"abi": [
				{
					"inputs": [],
					"stateMutability": "nonpayable",
					"type": "constructor"
				},
				{
					"inputs": [
						{
							"internalType": "string",
							"name": "_name",
							"type": "string"
						}
					],
					"name": "changePersonName",
					"outputs": [],
					"stateMutability": "nonpayable",
					"type": "function"
				},
				{
					"inputs": [
						{
							"internalType": "string",
							"name": "_name",
							"type": "string"
						},
						{
							"internalType": "uint256",
							"name": "_age",
							"type": "uint256"
						}
					],
					"name": "changePersonName2",
					"outputs": [],
					"stateMutability": "nonpayable",
					"type": "function"
				},
				{
					"inputs": [],
					"name": "changePersonName3",
					"outputs": [],
					"stateMutability": "nonpayable",
					"type": "function"
				},
				{
					"inputs": [],
					"name": "person",
					"outputs": [
						{
							"internalType": "string",
							"name": "name",
							"type": "string"
						},
						{
							"internalType": "uint256",
							"name": "age",
							"type": "uint256"
						}
					],
					"stateMutability": "view",
					"type": "function"
				}
			],
			"devdoc": {
				"kind": "dev",
				"methods": {},
				"version": 1
			},
			"evm": {
				"assembly": "    /* \"contracts/myContacts/18_struct.sol\":60:870  contract Struct{... */\n  mstore(0x40, 0x80)\n    /* \"contracts/myContacts/18_struct.sol\":183:260  constructor() {... */\n  callvalue\n  dup1\n  iszero\n  tag_1\n  jumpi\n  0x00\n  dup1\n  revert\ntag_1:\n  pop\n    /* \"contracts/myContacts/18_struct.sol\":208:226  person.name=\"jack\" */\n  mload(0x40)\n  dup1\n  0x40\n  add\n  0x40\n  mstore\n  dup1\n  0x04\n  dup2\n  mstore\n  0x20\n  add\n  0x6a61636b00000000000000000000000000000000000000000000000000000000\n  dup2\n  mstore\n  pop\n    /* \"contracts/myContacts/18_struct.sol\":208:214  person */\n  0x00\n    /* \"contracts/myContacts/18_struct.sol\":208:219  person.name */\n  dup1\n  add\n    /* \"contracts/myContacts/18_struct.sol\":208:226  person.name=\"jack\" */\n  swap1\n  dup2\n  tag_4\n  swap2\n  swap1\n  tag_5\n  jump\t// in\ntag_4:\n  pop\n    /* \"contracts/myContacts/18_struct.sol\":250:252  10 */\n  0x0a\n    /* \"contracts/myContacts/18_struct.sol\":237:243  person */\n  0x00\n    /* \"contracts/myContacts/18_struct.sol\":237:247  person.age */\n  0x01\n  add\n    /* \"contracts/myContacts/18_struct.sol\":237:252  person.age = 10 */\n  dup2\n  swap1\n  sstore\n  pop\n    /* \"contracts/myContacts/18_struct.sol\":60:870  contract Struct{... */\n  jump(tag_6)\n    /* \"#utility.yul\":7:106   */\ntag_7:\n    /* \"#utility.yul\":59:65   */\n  0x00\n    /* \"#utility.yul\":93:98   */\n  dup2\n    /* \"#utility.yul\":87:99   */\n  mload\n    /* \"#utility.yul\":77:99   */\n  swap1\n  pop\n    /* \"#utility.yul\":7:106   */\n  swap2\n  swap1\n  pop\n  jump\t// out\n    /* \"#utility.yul\":112:292   */\ntag_8:\n    /* \"#utility.yul\":160:237   */\n  0x4e487b7100000000000000000000000000000000000000000000000000000000\n    /* \"#utility.yul\":157:158   */\n  0x00\n    /* \"#utility.yul\":150:238   */\n  mstore\n    /* \"#utility.yul\":257:261   */\n  0x41\n    /* \"#utility.yul\":254:255   */\n  0x04\n    /* \"#utility.yul\":247:262   */\n  mstore\n    /* \"#utility.yul\":281:285   */\n  0x24\n    /* \"#utility.yul\":278:279   */\n  0x00\n    /* \"#utility.yul\":271:286   */\n  revert\n    /* \"#utility.yul\":298:478   */\ntag_9:\n    /* \"#utility.yul\":346:423   */\n  0x4e487b7100000000000000000000000000000000000000000000000000000000\n    /* \"#utility.yul\":343:344   */\n  0x00\n    /* \"#utility.yul\":336:424   */\n  mstore\n    /* \"#utility.yul\":443:447   */\n  0x22\n    /* \"#utility.yul\":440:441   */\n  0x04\n    /* \"#utility.yul\":433:448   */\n  mstore\n    /* \"#utility.yul\":467:471   */\n  0x24\n    /* \"#utility.yul\":464:465   */\n  0x00\n    /* \"#utility.yul\":457:472   */\n  revert\n    /* \"#utility.yul\":484:804   */\ntag_10:\n    /* \"#utility.yul\":528:534   */\n  0x00\n    /* \"#utility.yul\":565:566   */\n  0x02\n    /* \"#utility.yul\":559:563   */\n  dup3\n    /* \"#utility.yul\":555:567   */\n  div\n    /* \"#utility.yul\":545:567   */\n  swap1\n  pop\n    /* \"#utility.yul\":612:613   */\n  0x01\n    /* \"#utility.yul\":606:610   */\n  dup3\n    /* \"#utility.yul\":602:614   */\n  and\n    /* \"#utility.yul\":633:651   */\n  dup1\n    /* \"#utility.yul\":623:704   */\n  tag_32\n  jumpi\n    /* \"#utility.yul\":689:693   */\n  0x7f\n    /* \"#utility.yul\":681:687   */\n  dup3\n    /* \"#utility.yul\":677:694   */\n  and\n    /* \"#utility.yul\":667:694   */\n  swap2\n  pop\n    /* \"#utility.yul\":623:704   */\ntag_32:\n    /* \"#utility.yul\":751:753   */\n  0x20\n    /* \"#utility.yul\":743:749   */\n  dup3\n    /* \"#utility.yul\":740:754   */\n  lt\n    /* \"#utility.yul\":720:738   */\n  dup2\n    /* \"#utility.yul\":717:755   */\n  sub\n    /* \"#utility.yul\":714:798   */\n  tag_33\n  jumpi\n    /* \"#utility.yul\":770:788   */\n  tag_34\n  tag_9\n  jump\t// in\ntag_34:\n    /* \"#utility.yul\":714:798   */\ntag_33:\n    /* \"#utility.yul\":535:804   */\n  pop\n    /* \"#utility.yul\":484:804   */\n  swap2\n  swap1\n  pop\n  jump\t// out\n    /* \"#utility.yul\":810:951   */\ntag_11:\n    /* \"#utility.yul\":859:863   */\n  0x00\n    /* \"#utility.yul\":882:885   */\n  dup2\n    /* \"#utility.yul\":874:885   */\n  swap1\n  pop\n    /* \"#utility.yul\":905:908   */\n  dup2\n    /* \"#utility.yul\":902:903   */\n  0x00\n    /* \"#utility.yul\":895:909   */\n  mstore\n    /* \"#utility.yul\":939:943   */\n  0x20\n    /* \"#utility.yul\":936:937   */\n  0x00\n    /* \"#utility.yul\":926:944   */\n  keccak256\n    /* \"#utility.yul\":918:944   */\n  swap1\n  pop\n    /* \"#utility.yul\":810:951   */\n  swap2\n  swap1\n  pop\n  jump\t// out\n    /* \"#utility.yul\":957:1050   */\ntag_12:\n    /* \"#utility.yul\":994:1000   */\n  0x00\n    /* \"#utility.yul\":1041:1043   */\n  0x20\n    /* \"#utility.yul\":1036:1038   */\n  0x1f\n    /* \"#utility.yul\":1029:1034   */\n  dup4\n    /* \"#utility.yul\":1025:1039   */\n  add\n    /* \"#utility.yul\":1021:1044   */\n  div\n    /* \"#utility.yul\":1011:1044   */\n  swap1\n  pop\n    /* \"#utility.yul\":957:1050   */\n  swap2\n  swap1\n  pop\n  jump\t// out\n    /* \"#utility.yul\":1056:1163   */\ntag_13:\n    /* \"#utility.yul\":1100:1108   */\n  0x00\n    /* \"#utility.yul\":1150:1155   */\n  dup3\n    /* \"#utility.yul\":1144:1148   */\n  dup3\n    /* \"#utility.yul\":1140:1156   */\n  shl\n    /* \"#utility.yul\":1119:1156   */\n  swap1\n  pop\n    /* \"#utility.yul\":1056:1163   */\n  swap3\n  swap2\n  pop\n  pop\n  jump\t// out\n    /* \"#utility.yul\":1169:1562   */\ntag_14:\n    /* \"#utility.yul\":1238:1244   */\n  0x00\n    /* \"#utility.yul\":1288:1289   */\n  0x08\n    /* \"#utility.yul\":1276:1286   */\n  dup4\n    /* \"#utility.yul\":1272:1290   */\n  mul\n    /* \"#utility.yul\":1311:1408   */\n  tag_39\n    /* \"#utility.yul\":1341:1407   */\n  0xffffffffffffffffffffffffffffffffffffffffffffffffffffffffffffffff\n    /* \"#utility.yul\":1330:1339   */\n  dup3\n    /* \"#utility.yul\":1311:1408   */\n  tag_13\n  jump\t// in\ntag_39:\n    /* \"#utility.yul\":1429:1468   */\n  tag_40\n    /* \"#utility.yul\":1459:1467   */\n  dup7\n    /* \"#utility.yul\":1448:1457   */\n  dup4\n    /* \"#utility.yul\":1429:1468   */\n  tag_13\n  jump\t// in\ntag_40:\n    /* \"#utility.yul\":1417:1468   */\n  swap6\n  pop\n    /* \"#utility.yul\":1501:1505   */\n  dup1\n    /* \"#utility.yul\":1497:1506   */\n  not\n    /* \"#utility.yul\":1490:1495   */\n  dup5\n    /* \"#utility.yul\":1486:1507   */\n  and\n    /* \"#utility.yul\":1477:1507   */\n  swap4\n  pop\n    /* \"#utility.yul\":1550:1554   */\n  dup1\n    /* \"#utility.yul\":1540:1548   */\n  dup7\n    /* \"#utility.yul\":1536:1555   */\n  and\n    /* \"#utility.yul\":1529:1534   */\n  dup5\n    /* \"#utility.yul\":1526:1556   */\n  or\n    /* \"#utility.yul\":1516:1556   */\n  swap3\n  pop\n    /* \"#utility.yul\":1245:1562   */\n  pop\n  pop\n    /* \"#utility.yul\":1169:1562   */\n  swap4\n  swap3\n  pop\n  pop\n  pop\n  jump\t// out\n    /* \"#utility.yul\":1568:1645   */\ntag_15:\n    /* \"#utility.yul\":1605:1612   */\n  0x00\n    /* \"#utility.yul\":1634:1639   */\n  dup2\n    /* \"#utility.yul\":1623:1639   */\n  swap1\n  pop\n    /* \"#utility.yul\":1568:1645   */\n  swap2\n  swap1\n  pop\n  jump\t// out\n    /* \"#utility.yul\":1651:1711   */\ntag_16:\n    /* \"#utility.yul\":1679:1682   */\n  0x00\n    /* \"#utility.yul\":1700:1705   */\n  dup2\n    /* \"#utility.yul\":1693:1705   */\n  swap1\n  pop\n    /* \"#utility.yul\":1651:1711   */\n  swap2\n  swap1\n  pop\n  jump\t// out\n    /* \"#utility.yul\":1717:1859   */\ntag_17:\n    /* \"#utility.yul\":1767:1776   */\n  0x00\n    /* \"#utility.yul\":1800:1853   */\n  tag_44\n    /* \"#utility.yul\":1818:1852   */\n  tag_45\n    /* \"#utility.yul\":1827:1851   */\n  tag_46\n    /* \"#utility.yul\":1845:1850   */\n  dup5\n    /* \"#utility.yul\":1827:1851   */\n  tag_15\n  jump\t// in\ntag_46:\n    /* \"#utility.yul\":1818:1852   */\n  tag_16\n  jump\t// in\ntag_45:\n    /* \"#utility.yul\":1800:1853   */\n  tag_15\n  jump\t// in\ntag_44:\n    /* \"#utility.yul\":1787:1853   */\n  swap1\n  pop\n    /* \"#utility.yul\":1717:1859   */\n  swap2\n  swap1\n  pop\n  jump\t// out\n    /* \"#utility.yul\":1865:1940   */\ntag_18:\n    /* \"#utility.yul\":1908:1911   */\n  0x00\n    /* \"#utility.yul\":1929:1934   */\n  dup2\n    /* \"#utility.yul\":1922:1934   */\n  swap1\n  pop\n    /* \"#utility.yul\":1865:1940   */\n  swap2\n  swap1\n  pop\n  jump\t// out\n    /* \"#utility.yul\":1946:2215   */\ntag_19:\n    /* \"#utility.yul\":2056:2095   */\n  tag_49\n    /* \"#utility.yul\":2087:2094   */\n  dup4\n    /* \"#utility.yul\":2056:2095   */\n  tag_17\n  jump\t// in\ntag_49:\n    /* \"#utility.yul\":2117:2208   */\n  tag_50\n    /* \"#utility.yul\":2166:2207   */\n  tag_51\n    /* \"#utility.yul\":2190:2206   */\n  dup3\n    /* \"#utility.yul\":2166:2207   */\n  tag_18\n  jump\t// in\ntag_51:\n    /* \"#utility.yul\":2158:2164   */\n  dup5\n    /* \"#utility.yul\":2151:2155   */\n  dup5\n    /* \"#utility.yul\":2145:2156   */\n  sload\n    /* \"#utility.yul\":2117:2208   */\n  tag_14\n  jump\t// in\ntag_50:\n    /* \"#utility.yul\":2111:2115   */\n  dup3\n    /* \"#utility.yul\":2104:2209   */\n  sstore\n    /* \"#utility.yul\":2022:2215   */\n  pop\n    /* \"#utility.yul\":1946:2215   */\n  pop\n  pop\n  pop\n  jump\t// out\n    /* \"#utility.yul\":2221:2294   */\ntag_20:\n    /* \"#utility.yul\":2266:2269   */\n  0x00\n    /* \"#utility.yul\":2221:2294   */\n  swap1\n  jump\t// out\n    /* \"#utility.yul\":2300:2489   */\ntag_21:\n    /* \"#utility.yul\":2377:2409   */\n  tag_54\n  tag_20\n  jump\t// in\ntag_54:\n    /* \"#utility.yul\":2418:2483   */\n  tag_55\n    /* \"#utility.yul\":2476:2482   */\n  dup2\n    /* \"#utility.yul\":2468:2474   */\n  dup5\n    /* \"#utility.yul\":2462:2466   */\n  dup5\n    /* \"#utility.yul\":2418:2483   */\n  tag_19\n  jump\t// in\ntag_55:\n    /* \"#utility.yul\":2353:2489   */\n  pop\n    /* \"#utility.yul\":2300:2489   */\n  pop\n  pop\n  jump\t// out\n    /* \"#utility.yul\":2495:2681   */\ntag_22:\n    /* \"#utility.yul\":2555:2675   */\ntag_57:\n    /* \"#utility.yul\":2572:2575   */\n  dup2\n    /* \"#utility.yul\":2565:2570   */\n  dup2\n    /* \"#utility.yul\":2562:2576   */\n  lt\n    /* \"#utility.yul\":2555:2675   */\n  iszero\n  tag_59\n  jumpi\n    /* \"#utility.yul\":2626:2665   */\n  tag_60\n    /* \"#utility.yul\":2663:2664   */\n  0x00\n    /* \"#utility.yul\":2656:2661   */\n  dup3\n    /* \"#utility.yul\":2626:2665   */\n  tag_21\n  jump\t// in\ntag_60:\n    /* \"#utility.yul\":2599:2600   */\n  0x01\n    /* \"#utility.yul\":2592:2597   */\n  dup2\n    /* \"#utility.yul\":2588:2601   */\n  add\n    /* \"#utility.yul\":2579:2601   */\n  swap1\n  pop\n    /* \"#utility.yul\":2555:2675   */\n  jump(tag_57)\ntag_59:\n    /* \"#utility.yul\":2495:2681   */\n  pop\n  pop\n  jump\t// out\n    /* \"#utility.yul\":2687:3230   */\ntag_23:\n    /* \"#utility.yul\":2788:2790   */\n  0x1f\n    /* \"#utility.yul\":2783:2786   */\n  dup3\n    /* \"#utility.yul\":2780:2791   */\n  gt\n    /* \"#utility.yul\":2777:3223   */\n  iszero\n  tag_62\n  jumpi\n    /* \"#utility.yul\":2822:2860   */\n  tag_63\n    /* \"#utility.yul\":2854:2859   */\n  dup2\n    /* \"#utility.yul\":2822:2860   */\n  tag_11\n  jump\t// in\ntag_63:\n    /* \"#utility.yul\":2906:2935   */\n  tag_64\n    /* \"#utility.yul\":2924:2934   */\n  dup5\n    /* \"#utility.yul\":2906:2935   */\n  tag_12\n  jump\t// in\ntag_64:\n    /* \"#utility.yul\":2896:2904   */\n  dup2\n    /* \"#utility.yul\":2892:2936   */\n  add\n    /* \"#utility.yul\":3089:3091   */\n  0x20\n    /* \"#utility.yul\":3077:3087   */\n  dup6\n    /* \"#utility.yul\":3074:3092   */\n  lt\n    /* \"#utility.yul\":3071:3120   */\n  iszero\n  tag_65\n  jumpi\n    /* \"#utility.yul\":3110:3118   */\n  dup2\n    /* \"#utility.yul\":3095:3118   */\n  swap1\n  pop\n    /* \"#utility.yul\":3071:3120   */\ntag_65:\n    /* \"#utility.yul\":3133:3213   */\n  tag_66\n    /* \"#utility.yul\":3189:3211   */\n  tag_67\n    /* \"#utility.yul\":3207:3210   */\n  dup6\n    /* \"#utility.yul\":3189:3211   */\n  tag_12\n  jump\t// in\ntag_67:\n    /* \"#utility.yul\":3179:3187   */\n  dup4\n    /* \"#utility.yul\":3175:3212   */\n  add\n    /* \"#utility.yul\":3162:3173   */\n  dup3\n    /* \"#utility.yul\":3133:3213   */\n  tag_22\n  jump\t// in\ntag_66:\n    /* \"#utility.yul\":2792:3223   */\n  pop\n  pop\n    /* \"#utility.yul\":2777:3223   */\ntag_62:\n    /* \"#utility.yul\":2687:3230   */\n  pop\n  pop\n  pop\n  jump\t// out\n    /* \"#utility.yul\":3236:3353   */\ntag_24:\n    /* \"#utility.yul\":3290:3298   */\n  0x00\n    /* \"#utility.yul\":3340:3345   */\n  dup3\n    /* \"#utility.yul\":3334:3338   */\n  dup3\n    /* \"#utility.yul\":3330:3346   */\n  shr\n    /* \"#utility.yul\":3309:3346   */\n  swap1\n  pop\n    /* \"#utility.yul\":3236:3353   */\n  swap3\n  swap2\n  pop\n  pop\n  jump\t// out\n    /* \"#utility.yul\":3359:3528   */\ntag_25:\n    /* \"#utility.yul\":3403:3409   */\n  0x00\n    /* \"#utility.yul\":3436:3487   */\n  tag_70\n    /* \"#utility.yul\":3484:3485   */\n  0x00\n    /* \"#utility.yul\":3480:3486   */\n  not\n    /* \"#utility.yul\":3472:3477   */\n  dup5\n    /* \"#utility.yul\":3469:3470   */\n  0x08\n    /* \"#utility.yul\":3465:3478   */\n  mul\n    /* \"#utility.yul\":3436:3487   */\n  tag_24\n  jump\t// in\ntag_70:\n    /* \"#utility.yul\":3432:3488   */\n  not\n    /* \"#utility.yul\":3517:3521   */\n  dup1\n    /* \"#utility.yul\":3511:3515   */\n  dup4\n    /* \"#utility.yul\":3507:3522   */\n  and\n    /* \"#utility.yul\":3497:3522   */\n  swap2\n  pop\n    /* \"#utility.yul\":3410:3528   */\n  pop\n    /* \"#utility.yul\":3359:3528   */\n  swap3\n  swap2\n  pop\n  pop\n  jump\t// out\n    /* \"#utility.yul\":3533:3828   */\ntag_26:\n    /* \"#utility.yul\":3609:3613   */\n  0x00\n    /* \"#utility.yul\":3755:3784   */\n  tag_72\n    /* \"#utility.yul\":3780:3783   */\n  dup4\n    /* \"#utility.yul\":3774:3778   */\n  dup4\n    /* \"#utility.yul\":3755:3784   */\n  tag_25\n  jump\t// in\ntag_72:\n    /* \"#utility.yul\":3747:3784   */\n  swap2\n  pop\n    /* \"#utility.yul\":3817:3820   */\n  dup3\n    /* \"#utility.yul\":3814:3815   */\n  0x02\n    /* \"#utility.yul\":3810:3821   */\n  mul\n    /* \"#utility.yul\":3804:3808   */\n  dup3\n    /* \"#utility.yul\":3801:3822   */\n  or\n    /* \"#utility.yul\":3793:3822   */\n  swap1\n  pop\n    /* \"#utility.yul\":3533:3828   */\n  swap3\n  swap2\n  pop\n  pop\n  jump\t// out\n    /* \"#utility.yul\":3833:5228   */\ntag_5:\n    /* \"#utility.yul\":3950:3987   */\n  tag_74\n    /* \"#utility.yul\":3983:3986   */\n  dup3\n    /* \"#utility.yul\":3950:3987   */\n  tag_7\n  jump\t// in\ntag_74:\n    /* \"#utility.yul\":4052:4070   */\n  0xffffffffffffffff\n    /* \"#utility.yul\":4044:4050   */\n  dup2\n    /* \"#utility.yul\":4041:4071   */\n  gt\n    /* \"#utility.yul\":4038:4094   */\n  iszero\n  tag_75\n  jumpi\n    /* \"#utility.yul\":4074:4092   */\n  tag_76\n  tag_8\n  jump\t// in\ntag_76:\n    /* \"#utility.yul\":4038:4094   */\ntag_75:\n    /* \"#utility.yul\":4118:4156   */\n  tag_77\n    /* \"#utility.yul\":4150:4154   */\n  dup3\n    /* \"#utility.yul\":4144:4155   */\n  sload\n    /* \"#utility.yul\":4118:4156   */\n  tag_10\n  jump\t// in\ntag_77:\n    /* \"#utility.yul\":4203:4270   */\n  tag_78\n    /* \"#utility.yul\":4263:4269   */\n  dup3\n    /* \"#utility.yul\":4255:4261   */\n  dup3\n    /* \"#utility.yul\":4249:4253   */\n  dup6\n    /* \"#utility.yul\":4203:4270   */\n  tag_23\n  jump\t// in\ntag_78:\n    /* \"#utility.yul\":4297:4298   */\n  0x00\n    /* \"#utility.yul\":4321:4325   */\n  0x20\n    /* \"#utility.yul\":4308:4325   */\n  swap1\n  pop\n    /* \"#utility.yul\":4353:4355   */\n  0x1f\n    /* \"#utility.yul\":4345:4351   */\n  dup4\n    /* \"#utility.yul\":4342:4356   */\n  gt\n    /* \"#utility.yul\":4370:4371   */\n  0x01\n    /* \"#utility.yul\":4365:4983   */\n  dup2\n  eq\n  tag_80\n  jumpi\n    /* \"#utility.yul\":5027:5028   */\n  0x00\n    /* \"#utility.yul\":5044:5050   */\n  dup5\n    /* \"#utility.yul\":5041:5118   */\n  iszero\n  tag_81\n  jumpi\n    /* \"#utility.yul\":5093:5102   */\n  dup3\n    /* \"#utility.yul\":5088:5091   */\n  dup8\n    /* \"#utility.yul\":5084:5103   */\n  add\n    /* \"#utility.yul\":5078:5104   */\n  mload\n    /* \"#utility.yul\":5069:5104   */\n  swap1\n  pop\n    /* \"#utility.yul\":5041:5118   */\ntag_81:\n    /* \"#utility.yul\":5144:5211   */\n  tag_82\n    /* \"#utility.yul\":5204:5210   */\n  dup6\n    /* \"#utility.yul\":5197:5202   */\n  dup3\n    /* \"#utility.yul\":5144:5211   */\n  tag_26\n  jump\t// in\ntag_82:\n    /* \"#utility.yul\":5138:5142   */\n  dup7\n    /* \"#utility.yul\":5131:5212   */\n  sstore\n    /* \"#utility.yul\":5000:5222   */\n  pop\n    /* \"#utility.yul\":4335:5222   */\n  jump(tag_79)\n    /* \"#utility.yul\":4365:4983   */\ntag_80:\n    /* \"#utility.yul\":4417:4421   */\n  0x1f\n    /* \"#utility.yul\":4413:4422   */\n  not\n    /* \"#utility.yul\":4405:4411   */\n  dup5\n    /* \"#utility.yul\":4401:4423   */\n  and\n    /* \"#utility.yul\":4451:4488   */\n  tag_83\n    /* \"#utility.yul\":4483:4487   */\n  dup7\n    /* \"#utility.yul\":4451:4488   */\n  tag_11\n  jump\t// in\ntag_83:\n    /* \"#utility.yul\":4510:4511   */\n  0x00\n    /* \"#utility.yul\":4524:4732   */\ntag_84:\n    /* \"#utility.yul\":4538:4545   */\n  dup3\n    /* \"#utility.yul\":4535:4536   */\n  dup2\n    /* \"#utility.yul\":4532:4546   */\n  lt\n    /* \"#utility.yul\":4524:4732   */\n  iszero\n  tag_86\n  jumpi\n    /* \"#utility.yul\":4617:4626   */\n  dup5\n    /* \"#utility.yul\":4612:4615   */\n  dup10\n    /* \"#utility.yul\":4608:4627   */\n  add\n    /* \"#utility.yul\":4602:4628   */\n  mload\n    /* \"#utility.yul\":4594:4600   */\n  dup3\n    /* \"#utility.yul\":4587:4629   */\n  sstore\n    /* \"#utility.yul\":4668:4669   */\n  0x01\n    /* \"#utility.yul\":4660:4666   */\n  dup3\n    /* \"#utility.yul\":4656:4670   */\n  add\n    /* \"#utility.yul\":4646:4670   */\n  swap2\n  pop\n    /* \"#utility.yul\":4715:4717   */\n  0x20\n    /* \"#utility.yul\":4704:4713   */\n  dup6\n    /* \"#utility.yul\":4700:4718   */\n  add\n    /* \"#utility.yul\":4687:4718   */\n  swap5\n  pop\n    /* \"#utility.yul\":4561:4565   */\n  0x20\n    /* \"#utility.yul\":4558:4559   */\n  dup2\n    /* \"#utility.yul\":4554:4566   */\n  add\n    /* \"#utility.yul\":4549:4566   */\n  swap1\n  pop\n    /* \"#utility.yul\":4524:4732   */\n  jump(tag_84)\ntag_86:\n    /* \"#utility.yul\":4760:4766   */\n  dup7\n    /* \"#utility.yul\":4751:4758   */\n  dup4\n    /* \"#utility.yul\":4748:4767   */\n  lt\n    /* \"#utility.yul\":4745:4924   */\n  iszero\n  tag_87\n  jumpi\n    /* \"#utility.yul\":4818:4827   */\n  dup5\n    /* \"#utility.yul\":4813:4816   */\n  dup10\n    /* \"#utility.yul\":4809:4828   */\n  add\n    /* \"#utility.yul\":4803:4829   */\n  mload\n    /* \"#utility.yul\":4861:4909   */\n  tag_88\n    /* \"#utility.yul\":4903:4907   */\n  0x1f\n    /* \"#utility.yul\":4895:4901   */\n  dup10\n    /* \"#utility.yul\":4891:4908   */\n  and\n    /* \"#utility.yul\":4880:4889   */\n  dup3\n    /* \"#utility.yul\":4861:4909   */\n  tag_25\n  jump\t// in\ntag_88:\n    /* \"#utility.yul\":4853:4859   */\n  dup4\n    /* \"#utility.yul\":4846:4910   */\n  sstore\n    /* \"#utility.yul\":4768:4924   */\n  pop\n    /* \"#utility.yul\":4745:4924   */\ntag_87:\n    /* \"#utility.yul\":4970:4971   */\n  0x01\n    /* \"#utility.yul\":4966:4967   */\n  0x02\n    /* \"#utility.yul\":4958:4964   */\n  dup9\n    /* \"#utility.yul\":4954:4968   */\n  mul\n    /* \"#utility.yul\":4950:4972   */\n  add\n    /* \"#utility.yul\":4944:4948   */\n  dup9\n    /* \"#utility.yul\":4937:4973   */\n  sstore\n    /* \"#utility.yul\":4372:4983   */\n  pop\n  pop\n  pop\n    /* \"#utility.yul\":4335:5222   */\ntag_79:\n  pop\n    /* \"#utility.yul\":3925:5228   */\n  pop\n  pop\n  pop\n    /* \"#utility.yul\":3833:5228   */\n  pop\n  pop\n  jump\t// out\n    /* \"contracts/myContacts/18_struct.sol\":60:870  contract Struct{... */\ntag_6:\n  dataSize(sub_0)\n  dup1\n  dataOffset(sub_0)\n  0x00\n  codecopy\n  0x00\n  return\nstop\n\nsub_0: assembly {\n        /* \"contracts/myContacts/18_struct.sol\":60:870  contract Struct{... */\n      mstore(0x40, 0x80)\n      callvalue\n      dup1\n      iszero\n      tag_1\n      jumpi\n      0x00\n      dup1\n      revert\n    tag_1:\n      pop\n      jumpi(tag_2, lt(calldatasize, 0x04))\n      shr(0xe0, calldataload(0x00))\n      dup1\n      0x22f7c412\n      eq\n      tag_3\n      jumpi\n      dup1\n      0x2360f745\n      eq\n      tag_4\n      jumpi\n      dup1\n      0x77ec2b55\n      eq\n      tag_5\n      jumpi\n      dup1\n      0xb9592afa\n      eq\n      tag_6\n      jumpi\n    tag_2:\n      0x00\n      dup1\n      revert\n        /* \"contracts/myContacts/18_struct.sol\":632:757  function changePersonName2 ( string memory _name,uint _age ) public {... */\n    tag_3:\n      tag_7\n      0x04\n      dup1\n      calldatasize\n      sub\n      dup2\n      add\n      swap1\n      tag_8\n      swap2\n      swap1\n      tag_9\n      jump\t// in\n    tag_8:\n      tag_10\n      jump\t// in\n    tag_7:\n      stop\n        /* \"contracts/myContacts/18_struct.sol\":268:368  function changePersonName (string memory _name) public {... */\n    tag_4:\n      tag_11\n      0x04\n      dup1\n      calldatasize\n      sub\n      dup2\n      add\n      swap1\n      tag_12\n      swap2\n      swap1\n      tag_13\n      jump\t// in\n    tag_12:\n      tag_14\n      jump\t// in\n    tag_11:\n      stop\n        /* \"contracts/myContacts/18_struct.sol\":154:174  Person public person */\n    tag_5:\n      tag_15\n      tag_16\n      jump\t// in\n    tag_15:\n      mload(0x40)\n      tag_17\n      swap3\n      swap2\n      swap1\n      tag_18\n      jump\t// in\n    tag_17:\n      mload(0x40)\n      dup1\n      swap2\n      sub\n      swap1\n      return\n        /* \"contracts/myContacts/18_struct.sol\":765:867  function changePersonName3 () public { ... */\n    tag_6:\n      tag_19\n      tag_20\n      jump\t// in\n    tag_19:\n      stop\n        /* \"contracts/myContacts/18_struct.sol\":632:757  function changePersonName2 ( string memory _name,uint _age ) public {... */\n    tag_10:\n        /* \"contracts/myContacts/18_struct.sol\":720:749  Person({age:_age,name:_name}) */\n      mload(0x40)\n      dup1\n      0x40\n      add\n      0x40\n      mstore\n      dup1\n        /* \"contracts/myContacts/18_struct.sol\":742:747  _name */\n      dup4\n        /* \"contracts/myContacts/18_struct.sol\":720:749  Person({age:_age,name:_name}) */\n      dup2\n      mstore\n      0x20\n      add\n        /* \"contracts/myContacts/18_struct.sol\":732:736  _age */\n      dup3\n        /* \"contracts/myContacts/18_struct.sol\":720:749  Person({age:_age,name:_name}) */\n      dup2\n      mstore\n      pop\n        /* \"contracts/myContacts/18_struct.sol\":711:717  person */\n      0x00\n        /* \"contracts/myContacts/18_struct.sol\":711:749  person = Person({age:_age,name:_name}) */\n      dup1\n      dup3\n      add\n      mload\n      dup2\n      0x00\n      add\n      swap1\n      dup2\n      tag_22\n      swap2\n      swap1\n      tag_23\n      jump\t// in\n    tag_22:\n      pop\n      0x20\n      dup3\n      add\n      mload\n      dup2\n      0x01\n      add\n      sstore\n      swap1\n      pop\n      pop\n        /* \"contracts/myContacts/18_struct.sol\":632:757  function changePersonName2 ( string memory _name,uint _age ) public {... */\n      pop\n      pop\n      jump\t// out\n        /* \"contracts/myContacts/18_struct.sol\":268:368  function changePersonName (string memory _name) public {... */\n    tag_14:\n        /* \"contracts/myContacts/18_struct.sol\":343:360  Person(_name, 10) */\n      mload(0x40)\n      dup1\n      0x40\n      add\n      0x40\n      mstore\n      dup1\n        /* \"contracts/myContacts/18_struct.sol\":350:355  _name */\n      dup3\n        /* \"contracts/myContacts/18_struct.sol\":343:360  Person(_name, 10) */\n      dup2\n      mstore\n      0x20\n      add\n        /* \"contracts/myContacts/18_struct.sol\":357:359  10 */\n      0x0a\n        /* \"contracts/myContacts/18_struct.sol\":343:360  Person(_name, 10) */\n      dup2\n      mstore\n      pop\n        /* \"contracts/myContacts/18_struct.sol\":334:340  person */\n      0x00\n        /* \"contracts/myContacts/18_struct.sol\":334:360  person = Person(_name, 10) */\n      dup1\n      dup3\n      add\n      mload\n      dup2\n      0x00\n      add\n      swap1\n      dup2\n      tag_25\n      swap2\n      swap1\n      tag_23\n      jump\t// in\n    tag_25:\n      pop\n      0x20\n      dup3\n      add\n      mload\n      dup2\n      0x01\n      add\n      sstore\n      swap1\n      pop\n      pop\n        /* \"contracts/myContacts/18_struct.sol\":268:368  function changePersonName (string memory _name) public {... */\n      pop\n      jump\t// out\n        /* \"contracts/myContacts/18_struct.sol\":154:174  Person public person */\n    tag_16:\n      0x00\n      dup1\n      0x00\n      add\n      dup1\n      sload\n      tag_26\n      swap1\n      tag_27\n      jump\t// in\n    tag_26:\n      dup1\n      0x1f\n      add\n      0x20\n      dup1\n      swap2\n      div\n      mul\n      0x20\n      add\n      mload(0x40)\n      swap1\n      dup2\n      add\n      0x40\n      mstore\n      dup1\n      swap3\n      swap2\n      swap1\n      dup2\n      dup2\n      mstore\n      0x20\n      add\n      dup3\n      dup1\n      sload\n      tag_28\n      swap1\n      tag_27\n      jump\t// in\n    tag_28:\n      dup1\n      iszero\n      tag_29\n      jumpi\n      dup1\n      0x1f\n      lt\n      tag_30\n      jumpi\n      0x0100\n      dup1\n      dup4\n      sload\n      div\n      mul\n      dup4\n      mstore\n      swap2\n      0x20\n      add\n      swap2\n      jump(tag_29)\n    tag_30:\n      dup3\n      add\n      swap2\n      swap1\n      0x00\n      mstore\n      keccak256(0x00, 0x20)\n      swap1\n    tag_31:\n      dup2\n      sload\n      dup2\n      mstore\n      swap1\n      0x01\n      add\n      swap1\n      0x20\n      add\n      dup1\n      dup4\n      gt\n      tag_31\n      jumpi\n      dup3\n      swap1\n      sub\n      0x1f\n      and\n      dup3\n      add\n      swap2\n    tag_29:\n      pop\n      pop\n      pop\n      pop\n      pop\n      swap1\n      dup1\n      0x01\n      add\n      sload\n      swap1\n      pop\n      dup3\n      jump\t// out\n        /* \"contracts/myContacts/18_struct.sol\":765:867  function changePersonName3 () public { ... */\n    tag_20:\n        /* \"contracts/myContacts/18_struct.sol\":814:833  person.name = \"Bob\" */\n      mload(0x40)\n      dup1\n      0x40\n      add\n      0x40\n      mstore\n      dup1\n      0x03\n      dup2\n      mstore\n      0x20\n      add\n      0x426f620000000000000000000000000000000000000000000000000000000000\n      dup2\n      mstore\n      pop\n        /* \"contracts/myContacts/18_struct.sol\":814:820  person */\n      0x00\n        /* \"contracts/myContacts/18_struct.sol\":814:825  person.name */\n      dup1\n      add\n        /* \"contracts/myContacts/18_struct.sol\":814:833  person.name = \"Bob\" */\n      swap1\n      dup2\n      tag_33\n      swap2\n      swap1\n      tag_23\n      jump\t// in\n    tag_33:\n      pop\n        /* \"contracts/myContacts/18_struct.sol\":857:859  20 */\n      0x14\n        /* \"contracts/myContacts/18_struct.sol\":844:850  person */\n      0x00\n        /* \"contracts/myContacts/18_struct.sol\":844:854  person.age */\n      0x01\n      add\n        /* \"contracts/myContacts/18_struct.sol\":844:859  person.age = 20 */\n      dup2\n      swap1\n      sstore\n      pop\n        /* \"contracts/myContacts/18_struct.sol\":765:867  function changePersonName3 () public { ... */\n      jump\t// out\n        /* \"#utility.yul\":7:82   */\n    tag_34:\n        /* \"#utility.yul\":40:46   */\n      0x00\n        /* \"#utility.yul\":73:75   */\n      0x40\n        /* \"#utility.yul\":67:76   */\n      mload\n        /* \"#utility.yul\":57:76   */\n      swap1\n      pop\n        /* \"#utility.yul\":7:82   */\n      swap1\n      jump\t// out\n        /* \"#utility.yul\":88:205   */\n    tag_35:\n        /* \"#utility.yul\":197:198   */\n      0x00\n        /* \"#utility.yul\":194:195   */\n      dup1\n        /* \"#utility.yul\":187:199   */\n      revert\n        /* \"#utility.yul\":211:328   */\n    tag_36:\n        /* \"#utility.yul\":320:321   */\n      0x00\n        /* \"#utility.yul\":317:318   */\n      dup1\n        /* \"#utility.yul\":310:322   */\n      revert\n        /* \"#utility.yul\":334:451   */\n    tag_37:\n        /* \"#utility.yul\":443:444   */\n      0x00\n        /* \"#utility.yul\":440:441   */\n      dup1\n        /* \"#utility.yul\":433:445   */\n      revert\n        /* \"#utility.yul\":457:574   */\n    tag_38:\n        /* \"#utility.yul\":566:567   */\n      0x00\n        /* \"#utility.yul\":563:564   */\n      dup1\n        /* \"#utility.yul\":556:568   */\n      revert\n        /* \"#utility.yul\":580:682   */\n    tag_39:\n        /* \"#utility.yul\":621:627   */\n      0x00\n        /* \"#utility.yul\":672:674   */\n      0x1f\n        /* \"#utility.yul\":668:675   */\n      not\n        /* \"#utility.yul\":663:665   */\n      0x1f\n        /* \"#utility.yul\":656:661   */\n      dup4\n        /* \"#utility.yul\":652:666   */\n      add\n        /* \"#utility.yul\":648:676   */\n      and\n        /* \"#utility.yul\":638:676   */\n      swap1\n      pop\n        /* \"#utility.yul\":580:682   */\n      swap2\n      swap1\n      pop\n      jump\t// out\n        /* \"#utility.yul\":688:868   */\n    tag_40:\n        /* \"#utility.yul\":736:813   */\n      0x4e487b7100000000000000000000000000000000000000000000000000000000\n        /* \"#utility.yul\":733:734   */\n      0x00\n        /* \"#utility.yul\":726:814   */\n      mstore\n        /* \"#utility.yul\":833:837   */\n      0x41\n        /* \"#utility.yul\":830:831   */\n      0x04\n        /* \"#utility.yul\":823:838   */\n      mstore\n        /* \"#utility.yul\":857:861   */\n      0x24\n        /* \"#utility.yul\":854:855   */\n      0x00\n        /* \"#utility.yul\":847:862   */\n      revert\n        /* \"#utility.yul\":874:1155   */\n    tag_41:\n        /* \"#utility.yul\":957:984   */\n      tag_80\n        /* \"#utility.yul\":979:983   */\n      dup3\n        /* \"#utility.yul\":957:984   */\n      tag_39\n      jump\t// in\n    tag_80:\n        /* \"#utility.yul\":949:955   */\n      dup2\n        /* \"#utility.yul\":945:985   */\n      add\n        /* \"#utility.yul\":1087:1093   */\n      dup2\n        /* \"#utility.yul\":1075:1085   */\n      dup2\n        /* \"#utility.yul\":1072:1094   */\n      lt\n        /* \"#utility.yul\":1051:1069   */\n      0xffffffffffffffff\n        /* \"#utility.yul\":1039:1049   */\n      dup3\n        /* \"#utility.yul\":1036:1070   */\n      gt\n        /* \"#utility.yul\":1033:1095   */\n      or\n        /* \"#utility.yul\":1030:1118   */\n      iszero\n      tag_81\n      jumpi\n        /* \"#utility.yul\":1098:1116   */\n      tag_82\n      tag_40\n      jump\t// in\n    tag_82:\n        /* \"#utility.yul\":1030:1118   */\n    tag_81:\n        /* \"#utility.yul\":1138:1148   */\n      dup1\n        /* \"#utility.yul\":1134:1136   */\n      0x40\n        /* \"#utility.yul\":1127:1149   */\n      mstore\n        /* \"#utility.yul\":917:1155   */\n      pop\n        /* \"#utility.yul\":874:1155   */\n      pop\n      pop\n      jump\t// out\n        /* \"#utility.yul\":1161:1290   */\n    tag_42:\n        /* \"#utility.yul\":1195:1201   */\n      0x00\n        /* \"#utility.yul\":1222:1242   */\n      tag_84\n      tag_34\n      jump\t// in\n    tag_84:\n        /* \"#utility.yul\":1212:1242   */\n      swap1\n      pop\n        /* \"#utility.yul\":1251:1284   */\n      tag_85\n        /* \"#utility.yul\":1279:1283   */\n      dup3\n        /* \"#utility.yul\":1271:1277   */\n      dup3\n        /* \"#utility.yul\":1251:1284   */\n      tag_41\n      jump\t// in\n    tag_85:\n        /* \"#utility.yul\":1161:1290   */\n      swap2\n      swap1\n      pop\n      jump\t// out\n        /* \"#utility.yul\":1296:1604   */\n    tag_43:\n        /* \"#utility.yul\":1358:1362   */\n      0x00\n        /* \"#utility.yul\":1448:1466   */\n      0xffffffffffffffff\n        /* \"#utility.yul\":1440:1446   */\n      dup3\n        /* \"#utility.yul\":1437:1467   */\n      gt\n        /* \"#utility.yul\":1434:1490   */\n      iszero\n      tag_87\n      jumpi\n        /* \"#utility.yul\":1470:1488   */\n      tag_88\n      tag_40\n      jump\t// in\n    tag_88:\n        /* \"#utility.yul\":1434:1490   */\n    tag_87:\n        /* \"#utility.yul\":1508:1537   */\n      tag_89\n        /* \"#utility.yul\":1530:1536   */\n      dup3\n        /* \"#utility.yul\":1508:1537   */\n      tag_39\n      jump\t// in\n    tag_89:\n        /* \"#utility.yul\":1500:1537   */\n      swap1\n      pop\n        /* \"#utility.yul\":1592:1596   */\n      0x20\n        /* \"#utility.yul\":1586:1590   */\n      dup2\n        /* \"#utility.yul\":1582:1597   */\n      add\n        /* \"#utility.yul\":1574:1597   */\n      swap1\n      pop\n        /* \"#utility.yul\":1296:1604   */\n      swap2\n      swap1\n      pop\n      jump\t// out\n        /* \"#utility.yul\":1610:1758   */\n    tag_44:\n        /* \"#utility.yul\":1708:1714   */\n      dup3\n        /* \"#utility.yul\":1703:1706   */\n      dup2\n        /* \"#utility.yul\":1698:1701   */\n      dup4\n        /* \"#utility.yul\":1685:1715   */\n      calldatacopy\n        /* \"#utility.yul\":1749:1750   */\n      0x00\n        /* \"#utility.yul\":1740:1746   */\n      dup4\n        /* \"#utility.yul\":1735:1738   */\n      dup4\n        /* \"#utility.yul\":1731:1747   */\n      add\n        /* \"#utility.yul\":1724:1751   */\n      mstore\n        /* \"#utility.yul\":1610:1758   */\n      pop\n      pop\n      pop\n      jump\t// out\n        /* \"#utility.yul\":1764:2189   */\n    tag_45:\n        /* \"#utility.yul\":1842:1847   */\n      0x00\n        /* \"#utility.yul\":1867:1933   */\n      tag_92\n        /* \"#utility.yul\":1883:1932   */\n      tag_93\n        /* \"#utility.yul\":1925:1931   */\n      dup5\n        /* \"#utility.yul\":1883:1932   */\n      tag_43\n      jump\t// in\n    tag_93:\n        /* \"#utility.yul\":1867:1933   */\n      tag_42\n      jump\t// in\n    tag_92:\n        /* \"#utility.yul\":1858:1933   */\n      swap1\n      pop\n        /* \"#utility.yul\":1956:1962   */\n      dup3\n        /* \"#utility.yul\":1949:1954   */\n      dup2\n        /* \"#utility.yul\":1942:1963   */\n      mstore\n        /* \"#utility.yul\":1994:1998   */\n      0x20\n        /* \"#utility.yul\":1987:1992   */\n      dup2\n        /* \"#utility.yul\":1983:1999   */\n      add\n        /* \"#utility.yul\":2032:2035   */\n      dup5\n        /* \"#utility.yul\":2023:2029   */\n      dup5\n        /* \"#utility.yul\":2018:2021   */\n      dup5\n        /* \"#utility.yul\":2014:2030   */\n      add\n        /* \"#utility.yul\":2011:2036   */\n      gt\n        /* \"#utility.yul\":2008:2120   */\n      iszero\n      tag_94\n      jumpi\n        /* \"#utility.yul\":2039:2118   */\n      tag_95\n      tag_38\n      jump\t// in\n    tag_95:\n        /* \"#utility.yul\":2008:2120   */\n    tag_94:\n        /* \"#utility.yul\":2129:2183   */\n      tag_96\n        /* \"#utility.yul\":2176:2182   */\n      dup5\n        /* \"#utility.yul\":2171:2174   */\n      dup3\n        /* \"#utility.yul\":2166:2169   */\n      dup6\n        /* \"#utility.yul\":2129:2183   */\n      tag_44\n      jump\t// in\n    tag_96:\n        /* \"#utility.yul\":1848:2189   */\n      pop\n        /* \"#utility.yul\":1764:2189   */\n      swap4\n      swap3\n      pop\n      pop\n      pop\n      jump\t// out\n        /* \"#utility.yul\":2209:2549   */\n    tag_46:\n        /* \"#utility.yul\":2265:2270   */\n      0x00\n        /* \"#utility.yul\":2314:2317   */\n      dup3\n        /* \"#utility.yul\":2307:2311   */\n      0x1f\n        /* \"#utility.yul\":2299:2305   */\n      dup4\n        /* \"#utility.yul\":2295:2312   */\n      add\n        /* \"#utility.yul\":2291:2318   */\n      slt\n        /* \"#utility.yul\":2281:2403   */\n      tag_98\n      jumpi\n        /* \"#utility.yul\":2322:2401   */\n      tag_99\n      tag_37\n      jump\t// in\n    tag_99:\n        /* \"#utility.yul\":2281:2403   */\n    tag_98:\n        /* \"#utility.yul\":2439:2445   */\n      dup2\n        /* \"#utility.yul\":2426:2446   */\n      calldataload\n        /* \"#utility.yul\":2464:2543   */\n      tag_100\n        /* \"#utility.yul\":2539:2542   */\n      dup5\n        /* \"#utility.yul\":2531:2537   */\n      dup3\n        /* \"#utility.yul\":2524:2528   */\n      0x20\n        /* \"#utility.yul\":2516:2522   */\n      dup7\n        /* \"#utility.yul\":2512:2529   */\n      add\n        /* \"#utility.yul\":2464:2543   */\n      tag_45\n      jump\t// in\n    tag_100:\n        /* \"#utility.yul\":2455:2543   */\n      swap2\n      pop\n        /* \"#utility.yul\":2271:2549   */\n      pop\n        /* \"#utility.yul\":2209:2549   */\n      swap3\n      swap2\n      pop\n      pop\n      jump\t// out\n        /* \"#utility.yul\":2555:2632   */\n    tag_47:\n        /* \"#utility.yul\":2592:2599   */\n      0x00\n        /* \"#utility.yul\":2621:2626   */\n      dup2\n        /* \"#utility.yul\":2610:2626   */\n      swap1\n      pop\n        /* \"#utility.yul\":2555:2632   */\n      swap2\n      swap1\n      pop\n      jump\t// out\n        /* \"#utility.yul\":2638:2760   */\n    tag_48:\n        /* \"#utility.yul\":2711:2735   */\n      tag_103\n        /* \"#utility.yul\":2729:2734   */\n      dup2\n        /* \"#utility.yul\":2711:2735   */\n      tag_47\n      jump\t// in\n    tag_103:\n        /* \"#utility.yul\":2704:2709   */\n      dup2\n        /* \"#utility.yul\":2701:2736   */\n      eq\n        /* \"#utility.yul\":2691:2754   */\n      tag_104\n      jumpi\n        /* \"#utility.yul\":2750:2751   */\n      0x00\n        /* \"#utility.yul\":2747:2748   */\n      dup1\n        /* \"#utility.yul\":2740:2752   */\n      revert\n        /* \"#utility.yul\":2691:2754   */\n    tag_104:\n        /* \"#utility.yul\":2638:2760   */\n      pop\n      jump\t// out\n        /* \"#utility.yul\":2766:2905   */\n    tag_49:\n        /* \"#utility.yul\":2812:2817   */\n      0x00\n        /* \"#utility.yul\":2850:2856   */\n      dup2\n        /* \"#utility.yul\":2837:2857   */\n      calldataload\n        /* \"#utility.yul\":2828:2857   */\n      swap1\n      pop\n        /* \"#utility.yul\":2866:2899   */\n      tag_106\n        /* \"#utility.yul\":2893:2898   */\n      dup2\n        /* \"#utility.yul\":2866:2899   */\n      tag_48\n      jump\t// in\n    tag_106:\n        /* \"#utility.yul\":2766:2905   */\n      swap3\n      swap2\n      pop\n      pop\n      jump\t// out\n        /* \"#utility.yul\":2911:3565   */\n    tag_9:\n        /* \"#utility.yul\":2989:2995   */\n      0x00\n        /* \"#utility.yul\":2997:3003   */\n      dup1\n        /* \"#utility.yul\":3046:3048   */\n      0x40\n        /* \"#utility.yul\":3034:3043   */\n      dup4\n        /* \"#utility.yul\":3025:3032   */\n      dup6\n        /* \"#utility.yul\":3021:3044   */\n      sub\n        /* \"#utility.yul\":3017:3049   */\n      slt\n        /* \"#utility.yul\":3014:3133   */\n      iszero\n      tag_108\n      jumpi\n        /* \"#utility.yul\":3052:3131   */\n      tag_109\n      tag_35\n      jump\t// in\n    tag_109:\n        /* \"#utility.yul\":3014:3133   */\n    tag_108:\n        /* \"#utility.yul\":3200:3201   */\n      0x00\n        /* \"#utility.yul\":3189:3198   */\n      dup4\n        /* \"#utility.yul\":3185:3202   */\n      add\n        /* \"#utility.yul\":3172:3203   */\n      calldataload\n        /* \"#utility.yul\":3230:3248   */\n      0xffffffffffffffff\n        /* \"#utility.yul\":3222:3228   */\n      dup2\n        /* \"#utility.yul\":3219:3249   */\n      gt\n        /* \"#utility.yul\":3216:3333   */\n      iszero\n      tag_110\n      jumpi\n        /* \"#utility.yul\":3252:3331   */\n      tag_111\n      tag_36\n      jump\t// in\n    tag_111:\n        /* \"#utility.yul\":3216:3333   */\n    tag_110:\n        /* \"#utility.yul\":3357:3420   */\n      tag_112\n        /* \"#utility.yul\":3412:3419   */\n      dup6\n        /* \"#utility.yul\":3403:3409   */\n      dup3\n        /* \"#utility.yul\":3392:3401   */\n      dup7\n        /* \"#utility.yul\":3388:3410   */\n      add\n        /* \"#utility.yul\":3357:3420   */\n      tag_46\n      jump\t// in\n    tag_112:\n        /* \"#utility.yul\":3347:3420   */\n      swap3\n      pop\n        /* \"#utility.yul\":3143:3430   */\n      pop\n        /* \"#utility.yul\":3469:3471   */\n      0x20\n        /* \"#utility.yul\":3495:3548   */\n      tag_113\n        /* \"#utility.yul\":3540:3547   */\n      dup6\n        /* \"#utility.yul\":3531:3537   */\n      dup3\n        /* \"#utility.yul\":3520:3529   */\n      dup7\n        /* \"#utility.yul\":3516:3538   */\n      add\n        /* \"#utility.yul\":3495:3548   */\n      tag_49\n      jump\t// in\n    tag_113:\n        /* \"#utility.yul\":3485:3548   */\n      swap2\n      pop\n        /* \"#utility.yul\":3440:3558   */\n      pop\n        /* \"#utility.yul\":2911:3565   */\n      swap3\n      pop\n      swap3\n      swap1\n      pop\n      jump\t// out\n        /* \"#utility.yul\":3571:4080   */\n    tag_13:\n        /* \"#utility.yul\":3640:3646   */\n      0x00\n        /* \"#utility.yul\":3689:3691   */\n      0x20\n        /* \"#utility.yul\":3677:3686   */\n      dup3\n        /* \"#utility.yul\":3668:3675   */\n      dup5\n        /* \"#utility.yul\":3664:3687   */\n      sub\n        /* \"#utility.yul\":3660:3692   */\n      slt\n        /* \"#utility.yul\":3657:3776   */\n      iszero\n      tag_115\n      jumpi\n        /* \"#utility.yul\":3695:3774   */\n      tag_116\n      tag_35\n      jump\t// in\n    tag_116:\n        /* \"#utility.yul\":3657:3776   */\n    tag_115:\n        /* \"#utility.yul\":3843:3844   */\n      0x00\n        /* \"#utility.yul\":3832:3841   */\n      dup3\n        /* \"#utility.yul\":3828:3845   */\n      add\n        /* \"#utility.yul\":3815:3846   */\n      calldataload\n        /* \"#utility.yul\":3873:3891   */\n      0xffffffffffffffff\n        /* \"#utility.yul\":3865:3871   */\n      dup2\n        /* \"#utility.yul\":3862:3892   */\n      gt\n        /* \"#utility.yul\":3859:3976   */\n      iszero\n      tag_117\n      jumpi\n        /* \"#utility.yul\":3895:3974   */\n      tag_118\n      tag_36\n      jump\t// in\n    tag_118:\n        /* \"#utility.yul\":3859:3976   */\n    tag_117:\n        /* \"#utility.yul\":4000:4063   */\n      tag_119\n        /* \"#utility.yul\":4055:4062   */\n      dup5\n        /* \"#utility.yul\":4046:4052   */\n      dup3\n        /* \"#utility.yul\":4035:4044   */\n      dup6\n        /* \"#utility.yul\":4031:4053   */\n      add\n        /* \"#utility.yul\":4000:4063   */\n      tag_46\n      jump\t// in\n    tag_119:\n        /* \"#utility.yul\":3990:4063   */\n      swap2\n      pop\n        /* \"#utility.yul\":3786:4073   */\n      pop\n        /* \"#utility.yul\":3571:4080   */\n      swap3\n      swap2\n      pop\n      pop\n      jump\t// out\n        /* \"#utility.yul\":4086:4185   */\n    tag_50:\n        /* \"#utility.yul\":4138:4144   */\n      0x00\n        /* \"#utility.yul\":4172:4177   */\n      dup2\n        /* \"#utility.yul\":4166:4178   */\n      mload\n        /* \"#utility.yul\":4156:4178   */\n      swap1\n      pop\n        /* \"#utility.yul\":4086:4185   */\n      swap2\n      swap1\n      pop\n      jump\t// out\n        /* \"#utility.yul\":4191:4360   */\n    tag_51:\n        /* \"#utility.yul\":4275:4286   */\n      0x00\n        /* \"#utility.yul\":4309:4315   */\n      dup3\n        /* \"#utility.yul\":4304:4307   */\n      dup3\n        /* \"#utility.yul\":4297:4316   */\n      mstore\n        /* \"#utility.yul\":4349:4353   */\n      0x20\n        /* \"#utility.yul\":4344:4347   */\n      dup3\n        /* \"#utility.yul\":4340:4354   */\n      add\n        /* \"#utility.yul\":4325:4354   */\n      swap1\n      pop\n        /* \"#utility.yul\":4191:4360   */\n      swap3\n      swap2\n      pop\n      pop\n      jump\t// out\n        /* \"#utility.yul\":4366:4505   */\n    tag_52:\n        /* \"#utility.yul\":4455:4461   */\n      dup3\n        /* \"#utility.yul\":4450:4453   */\n      dup2\n        /* \"#utility.yul\":4445:4448   */\n      dup4\n        /* \"#utility.yul\":4439:4462   */\n      mcopy\n        /* \"#utility.yul\":4496:4497   */\n      0x00\n        /* \"#utility.yul\":4487:4493   */\n      dup4\n        /* \"#utility.yul\":4482:4485   */\n      dup4\n        /* \"#utility.yul\":4478:4494   */\n      add\n        /* \"#utility.yul\":4471:4498   */\n      mstore\n        /* \"#utility.yul\":4366:4505   */\n      pop\n      pop\n      pop\n      jump\t// out\n        /* \"#utility.yul\":4511:4888   */\n    tag_53:\n        /* \"#utility.yul\":4599:4602   */\n      0x00\n        /* \"#utility.yul\":4627:4666   */\n      tag_124\n        /* \"#utility.yul\":4660:4665   */\n      dup3\n        /* \"#utility.yul\":4627:4666   */\n      tag_50\n      jump\t// in\n    tag_124:\n        /* \"#utility.yul\":4682:4753   */\n      tag_125\n        /* \"#utility.yul\":4746:4752   */\n      dup2\n        /* \"#utility.yul\":4741:4744   */\n      dup6\n        /* \"#utility.yul\":4682:4753   */\n      tag_51\n      jump\t// in\n    tag_125:\n        /* \"#utility.yul\":4675:4753   */\n      swap4\n      pop\n        /* \"#utility.yul\":4762:4827   */\n      tag_126\n        /* \"#utility.yul\":4820:4826   */\n      dup2\n        /* \"#utility.yul\":4815:4818   */\n      dup6\n        /* \"#utility.yul\":4808:4812   */\n      0x20\n        /* \"#utility.yul\":4801:4806   */\n      dup7\n        /* \"#utility.yul\":4797:4813   */\n      add\n        /* \"#utility.yul\":4762:4827   */\n      tag_52\n      jump\t// in\n    tag_126:\n        /* \"#utility.yul\":4852:4881   */\n      tag_127\n        /* \"#utility.yul\":4874:4880   */\n      dup2\n        /* \"#utility.yul\":4852:4881   */\n      tag_39\n      jump\t// in\n    tag_127:\n        /* \"#utility.yul\":4847:4850   */\n      dup5\n        /* \"#utility.yul\":4843:4882   */\n      add\n        /* \"#utility.yul\":4836:4882   */\n      swap2\n      pop\n        /* \"#utility.yul\":4603:4888   */\n      pop\n        /* \"#utility.yul\":4511:4888   */\n      swap3\n      swap2\n      pop\n      pop\n      jump\t// out\n        /* \"#utility.yul\":4894:5012   */\n    tag_54:\n        /* \"#utility.yul\":4981:5005   */\n      tag_129\n        /* \"#utility.yul\":4999:5004   */\n      dup2\n        /* \"#utility.yul\":4981:5005   */\n      tag_47\n      jump\t// in\n    tag_129:\n        /* \"#utility.yul\":4976:4979   */\n      dup3\n        /* \"#utility.yul\":4969:5006   */\n      mstore\n        /* \"#utility.yul\":4894:5012   */\n      pop\n      pop\n      jump\t// out\n        /* \"#utility.yul\":5018:5441   */\n    tag_18:\n        /* \"#utility.yul\":5159:5163   */\n      0x00\n        /* \"#utility.yul\":5197:5199   */\n      0x40\n        /* \"#utility.yul\":5186:5195   */\n      dup3\n        /* \"#utility.yul\":5182:5200   */\n      add\n        /* \"#utility.yul\":5174:5200   */\n      swap1\n      pop\n        /* \"#utility.yul\":5246:5255   */\n      dup2\n        /* \"#utility.yul\":5240:5244   */\n      dup2\n        /* \"#utility.yul\":5236:5256   */\n      sub\n        /* \"#utility.yul\":5232:5233   */\n      0x00\n        /* \"#utility.yul\":5221:5230   */\n      dup4\n        /* \"#utility.yul\":5217:5234   */\n      add\n        /* \"#utility.yul\":5210:5257   */\n      mstore\n        /* \"#utility.yul\":5274:5352   */\n      tag_131\n        /* \"#utility.yul\":5347:5351   */\n      dup2\n        /* \"#utility.yul\":5338:5344   */\n      dup6\n        /* \"#utility.yul\":5274:5352   */\n      tag_53\n      jump\t// in\n    tag_131:\n        /* \"#utility.yul\":5266:5352   */\n      swap1\n      pop\n        /* \"#utility.yul\":5362:5434   */\n      tag_132\n        /* \"#utility.yul\":5430:5432   */\n      0x20\n        /* \"#utility.yul\":5419:5428   */\n      dup4\n        /* \"#utility.yul\":5415:5433   */\n      add\n        /* \"#utility.yul\":5406:5412   */\n      dup5\n        /* \"#utility.yul\":5362:5434   */\n      tag_54\n      jump\t// in\n    tag_132:\n        /* \"#utility.yul\":5018:5441   */\n      swap4\n      swap3\n      pop\n      pop\n      pop\n      jump\t// out\n        /* \"#utility.yul\":5447:5627   */\n    tag_55:\n        /* \"#utility.yul\":5495:5572   */\n      0x4e487b7100000000000000000000000000000000000000000000000000000000\n        /* \"#utility.yul\":5492:5493   */\n      0x00\n        /* \"#utility.yul\":5485:5573   */\n      mstore\n        /* \"#utility.yul\":5592:5596   */\n      0x22\n        /* \"#utility.yul\":5589:5590   */\n      0x04\n        /* \"#utility.yul\":5582:5597   */\n      mstore\n        /* \"#utility.yul\":5616:5620   */\n      0x24\n        /* \"#utility.yul\":5613:5614   */\n      0x00\n        /* \"#utility.yul\":5606:5621   */\n      revert\n        /* \"#utility.yul\":5633:5953   */\n    tag_27:\n        /* \"#utility.yul\":5677:5683   */\n      0x00\n        /* \"#utility.yul\":5714:5715   */\n      0x02\n        /* \"#utility.yul\":5708:5712   */\n      dup3\n        /* \"#utility.yul\":5704:5716   */\n      div\n        /* \"#utility.yul\":5694:5716   */\n      swap1\n      pop\n        /* \"#utility.yul\":5761:5762   */\n      0x01\n        /* \"#utility.yul\":5755:5759   */\n      dup3\n        /* \"#utility.yul\":5751:5763   */\n      and\n        /* \"#utility.yul\":5782:5800   */\n      dup1\n        /* \"#utility.yul\":5772:5853   */\n      tag_135\n      jumpi\n        /* \"#utility.yul\":5838:5842   */\n      0x7f\n        /* \"#utility.yul\":5830:5836   */\n      dup3\n        /* \"#utility.yul\":5826:5843   */\n      and\n        /* \"#utility.yul\":5816:5843   */\n      swap2\n      pop\n        /* \"#utility.yul\":5772:5853   */\n    tag_135:\n        /* \"#utility.yul\":5900:5902   */\n      0x20\n        /* \"#utility.yul\":5892:5898   */\n      dup3\n        /* \"#utility.yul\":5889:5903   */\n      lt\n        /* \"#utility.yul\":5869:5887   */\n      dup2\n        /* \"#utility.yul\":5866:5904   */\n      sub\n        /* \"#utility.yul\":5863:5947   */\n      tag_136\n      jumpi\n        /* \"#utility.yul\":5919:5937   */\n      tag_137\n      tag_55\n      jump\t// in\n    tag_137:\n        /* \"#utility.yul\":5863:5947   */\n    tag_136:\n        /* \"#utility.yul\":5684:5953   */\n      pop\n        /* \"#utility.yul\":5633:5953   */\n      swap2\n      swap1\n      pop\n      jump\t// out\n        /* \"#utility.yul\":5959:6100   */\n    tag_56:\n        /* \"#utility.yul\":6008:6012   */\n      0x00\n        /* \"#utility.yul\":6031:6034   */\n      dup2\n        /* \"#utility.yul\":6023:6034   */\n      swap1\n      pop\n        /* \"#utility.yul\":6054:6057   */\n      dup2\n        /* \"#utility.yul\":6051:6052   */\n      0x00\n        /* \"#utility.yul\":6044:6058   */\n      mstore\n        /* \"#utility.yul\":6088:6092   */\n      0x20\n        /* \"#utility.yul\":6085:6086   */\n      0x00\n        /* \"#utility.yul\":6075:6093   */\n      keccak256\n        /* \"#utility.yul\":6067:6093   */\n      swap1\n      pop\n        /* \"#utility.yul\":5959:6100   */\n      swap2\n      swap1\n      pop\n      jump\t// out\n        /* \"#utility.yul\":6106:6199   */\n    tag_57:\n        /* \"#utility.yul\":6143:6149   */\n      0x00\n        /* \"#utility.yul\":6190:6192   */\n      0x20\n        /* \"#utility.yul\":6185:6187   */\n      0x1f\n        /* \"#utility.yul\":6178:6183   */\n      dup4\n        /* \"#utility.yul\":6174:6188   */\n      add\n        /* \"#utility.yul\":6170:6193   */\n      div\n        /* \"#utility.yul\":6160:6193   */\n      swap1\n      pop\n        /* \"#utility.yul\":6106:6199   */\n      swap2\n      swap1\n      pop\n      jump\t// out\n        /* \"#utility.yul\":6205:6312   */\n    tag_58:\n        /* \"#utility.yul\":6249:6257   */\n      0x00\n        /* \"#utility.yul\":6299:6304   */\n      dup3\n        /* \"#utility.yul\":6293:6297   */\n      dup3\n        /* \"#utility.yul\":6289:6305   */\n      shl\n        /* \"#utility.yul\":6268:6305   */\n      swap1\n      pop\n        /* \"#utility.yul\":6205:6312   */\n      swap3\n      swap2\n      pop\n      pop\n      jump\t// out\n        /* \"#utility.yul\":6318:6711   */\n    tag_59:\n        /* \"#utility.yul\":6387:6393   */\n      0x00\n        /* \"#utility.yul\":6437:6438   */\n      0x08\n        /* \"#utility.yul\":6425:6435   */\n      dup4\n        /* \"#utility.yul\":6421:6439   */\n      mul\n        /* \"#utility.yul\":6460:6557   */\n      tag_142\n        /* \"#utility.yul\":6490:6556   */\n      0xffffffffffffffffffffffffffffffffffffffffffffffffffffffffffffffff\n        /* \"#utility.yul\":6479:6488   */\n      dup3\n        /* \"#utility.yul\":6460:6557   */\n      tag_58\n      jump\t// in\n    tag_142:\n        /* \"#utility.yul\":6578:6617   */\n      tag_143\n        /* \"#utility.yul\":6608:6616   */\n      dup7\n        /* \"#utility.yul\":6597:6606   */\n      dup4\n        /* \"#utility.yul\":6578:6617   */\n      tag_58\n      jump\t// in\n    tag_143:\n        /* \"#utility.yul\":6566:6617   */\n      swap6\n      pop\n        /* \"#utility.yul\":6650:6654   */\n      dup1\n        /* \"#utility.yul\":6646:6655   */\n      not\n        /* \"#utility.yul\":6639:6644   */\n      dup5\n        /* \"#utility.yul\":6635:6656   */\n      and\n        /* \"#utility.yul\":6626:6656   */\n      swap4\n      pop\n        /* \"#utility.yul\":6699:6703   */\n      dup1\n        /* \"#utility.yul\":6689:6697   */\n      dup7\n        /* \"#utility.yul\":6685:6704   */\n      and\n        /* \"#utility.yul\":6678:6683   */\n      dup5\n        /* \"#utility.yul\":6675:6705   */\n      or\n        /* \"#utility.yul\":6665:6705   */\n      swap3\n      pop\n        /* \"#utility.yul\":6394:6711   */\n      pop\n      pop\n        /* \"#utility.yul\":6318:6711   */\n      swap4\n      swap3\n      pop\n      pop\n      pop\n      jump\t// out\n        /* \"#utility.yul\":6717:6777   */\n    tag_60:\n        /* \"#utility.yul\":6745:6748   */\n      0x00\n        /* \"#utility.yul\":6766:6771   */\n      dup2\n        /* \"#utility.yul\":6759:6771   */\n      swap1\n      pop\n        /* \"#utility.yul\":6717:6777   */\n      swap2\n      swap1\n      pop\n      jump\t// out\n        /* \"#utility.yul\":6783:6925   */\n    tag_61:\n        /* \"#utility.yul\":6833:6842   */\n      0x00\n        /* \"#utility.yul\":6866:6919   */\n      tag_146\n        /* \"#utility.yul\":6884:6918   */\n      tag_147\n        /* \"#utility.yul\":6893:6917   */\n      tag_148\n        /* \"#utility.yul\":6911:6916   */\n      dup5\n        /* \"#utility.yul\":6893:6917   */\n      tag_47\n      jump\t// in\n    tag_148:\n        /* \"#utility.yul\":6884:6918   */\n      tag_60\n      jump\t// in\n    tag_147:\n        /* \"#utility.yul\":6866:6919   */\n      tag_47\n      jump\t// in\n    tag_146:\n        /* \"#utility.yul\":6853:6919   */\n      swap1\n      pop\n        /* \"#utility.yul\":6783:6925   */\n      swap2\n      swap1\n      pop\n      jump\t// out\n        /* \"#utility.yul\":6931:7006   */\n    tag_62:\n        /* \"#utility.yul\":6974:6977   */\n      0x00\n        /* \"#utility.yul\":6995:7000   */\n      dup2\n        /* \"#utility.yul\":6988:7000   */\n      swap1\n      pop\n        /* \"#utility.yul\":6931:7006   */\n      swap2\n      swap1\n      pop\n      jump\t// out\n        /* \"#utility.yul\":7012:7281   */\n    tag_63:\n        /* \"#utility.yul\":7122:7161   */\n      tag_151\n        /* \"#utility.yul\":7153:7160   */\n      dup4\n        /* \"#utility.yul\":7122:7161   */\n      tag_61\n      jump\t// in\n    tag_151:\n        /* \"#utility.yul\":7183:7274   */\n      tag_152\n        /* \"#utility.yul\":7232:7273   */\n      tag_153\n        /* \"#utility.yul\":7256:7272   */\n      dup3\n        /* \"#utility.yul\":7232:7273   */\n      tag_62\n      jump\t// in\n    tag_153:\n        /* \"#utility.yul\":7224:7230   */\n      dup5\n        /* \"#utility.yul\":7217:7221   */\n      dup5\n        /* \"#utility.yul\":7211:7222   */\n      sload\n        /* \"#utility.yul\":7183:7274   */\n      tag_59\n      jump\t// in\n    tag_152:\n        /* \"#utility.yul\":7177:7181   */\n      dup3\n        /* \"#utility.yul\":7170:7275   */\n      sstore\n        /* \"#utility.yul\":7088:7281   */\n      pop\n        /* \"#utility.yul\":7012:7281   */\n      pop\n      pop\n      pop\n      jump\t// out\n        /* \"#utility.yul\":7287:7360   */\n    tag_64:\n        /* \"#utility.yul\":7332:7335   */\n      0x00\n        /* \"#utility.yul\":7287:7360   */\n      swap1\n      jump\t// out\n        /* \"#utility.yul\":7366:7555   */\n    tag_65:\n        /* \"#utility.yul\":7443:7475   */\n      tag_156\n      tag_64\n      jump\t// in\n    tag_156:\n        /* \"#utility.yul\":7484:7549   */\n      tag_157\n        /* \"#utility.yul\":7542:7548   */\n      dup2\n        /* \"#utility.yul\":7534:7540   */\n      dup5\n        /* \"#utility.yul\":7528:7532   */\n      dup5\n        /* \"#utility.yul\":7484:7549   */\n      tag_63\n      jump\t// in\n    tag_157:\n        /* \"#utility.yul\":7419:7555   */\n      pop\n        /* \"#utility.yul\":7366:7555   */\n      pop\n      pop\n      jump\t// out\n        /* \"#utility.yul\":7561:7747   */\n    tag_66:\n        /* \"#utility.yul\":7621:7741   */\n    tag_159:\n        /* \"#utility.yul\":7638:7641   */\n      dup2\n        /* \"#utility.yul\":7631:7636   */\n      dup2\n        /* \"#utility.yul\":7628:7642   */\n      lt\n        /* \"#utility.yul\":7621:7741   */\n      iszero\n      tag_161\n      jumpi\n        /* \"#utility.yul\":7692:7731   */\n      tag_162\n        /* \"#utility.yul\":7729:7730   */\n      0x00\n        /* \"#utility.yul\":7722:7727   */\n      dup3\n        /* \"#utility.yul\":7692:7731   */\n      tag_65\n      jump\t// in\n    tag_162:\n        /* \"#utility.yul\":7665:7666   */\n      0x01\n        /* \"#utility.yul\":7658:7663   */\n      dup2\n        /* \"#utility.yul\":7654:7667   */\n      add\n        /* \"#utility.yul\":7645:7667   */\n      swap1\n      pop\n        /* \"#utility.yul\":7621:7741   */\n      jump(tag_159)\n    tag_161:\n        /* \"#utility.yul\":7561:7747   */\n      pop\n      pop\n      jump\t// out\n        /* \"#utility.yul\":7753:8296   */\n    tag_67:\n        /* \"#utility.yul\":7854:7856   */\n      0x1f\n        /* \"#utility.yul\":7849:7852   */\n      dup3\n        /* \"#utility.yul\":7846:7857   */\n      gt\n        /* \"#utility.yul\":7843:8289   */\n      iszero\n      tag_164\n      jumpi\n        /* \"#utility.yul\":7888:7926   */\n      tag_165\n        /* \"#utility.yul\":7920:7925   */\n      dup2\n        /* \"#utility.yul\":7888:7926   */\n      tag_56\n      jump\t// in\n    tag_165:\n        /* \"#utility.yul\":7972:8001   */\n      tag_166\n        /* \"#utility.yul\":7990:8000   */\n      dup5\n        /* \"#utility.yul\":7972:8001   */\n      tag_57\n      jump\t// in\n    tag_166:\n        /* \"#utility.yul\":7962:7970   */\n      dup2\n        /* \"#utility.yul\":7958:8002   */\n      add\n        /* \"#utility.yul\":8155:8157   */\n      0x20\n        /* \"#utility.yul\":8143:8153   */\n      dup6\n        /* \"#utility.yul\":8140:8158   */\n      lt\n        /* \"#utility.yul\":8137:8186   */\n      iszero\n      tag_167\n      jumpi\n        /* \"#utility.yul\":8176:8184   */\n      dup2\n        /* \"#utility.yul\":8161:8184   */\n      swap1\n      pop\n        /* \"#utility.yul\":8137:8186   */\n    tag_167:\n        /* \"#utility.yul\":8199:8279   */\n      tag_168\n        /* \"#utility.yul\":8255:8277   */\n      tag_169\n        /* \"#utility.yul\":8273:8276   */\n      dup6\n        /* \"#utility.yul\":8255:8277   */\n      tag_57\n      jump\t// in\n    tag_169:\n        /* \"#utility.yul\":8245:8253   */\n      dup4\n        /* \"#utility.yul\":8241:8278   */\n      add\n        /* \"#utility.yul\":8228:8239   */\n      dup3\n        /* \"#utility.yul\":8199:8279   */\n      tag_66\n      jump\t// in\n    tag_168:\n        /* \"#utility.yul\":7858:8289   */\n      pop\n      pop\n        /* \"#utility.yul\":7843:8289   */\n    tag_164:\n        /* \"#utility.yul\":7753:8296   */\n      pop\n      pop\n      pop\n      jump\t// out\n        /* \"#utility.yul\":8302:8419   */\n    tag_68:\n        /* \"#utility.yul\":8356:8364   */\n      0x00\n        /* \"#utility.yul\":8406:8411   */\n      dup3\n        /* \"#utility.yul\":8400:8404   */\n      dup3\n        /* \"#utility.yul\":8396:8412   */\n      shr\n        /* \"#utility.yul\":8375:8412   */\n      swap1\n      pop\n        /* \"#utility.yul\":8302:8419   */\n      swap3\n      swap2\n      pop\n      pop\n      jump\t// out\n        /* \"#utility.yul\":8425:8594   */\n    tag_69:\n        /* \"#utility.yul\":8469:8475   */\n      0x00\n        /* \"#utility.yul\":8502:8553   */\n      tag_172\n        /* \"#utility.yul\":8550:8551   */\n      0x00\n        /* \"#utility.yul\":8546:8552   */\n      not\n        /* \"#utility.yul\":8538:8543   */\n      dup5\n        /* \"#utility.yul\":8535:8536   */\n      0x08\n        /* \"#utility.yul\":8531:8544   */\n      mul\n        /* \"#utility.yul\":8502:8553   */\n      tag_68\n      jump\t// in\n    tag_172:\n        /* \"#utility.yul\":8498:8554   */\n      not\n        /* \"#utility.yul\":8583:8587   */\n      dup1\n        /* \"#utility.yul\":8577:8581   */\n      dup4\n        /* \"#utility.yul\":8573:8588   */\n      and\n        /* \"#utility.yul\":8563:8588   */\n      swap2\n      pop\n        /* \"#utility.yul\":8476:8594   */\n      pop\n        /* \"#utility.yul\":8425:8594   */\n      swap3\n      swap2\n      pop\n      pop\n      jump\t// out\n        /* \"#utility.yul\":8599:8894   */\n    tag_70:\n        /* \"#utility.yul\":8675:8679   */\n      0x00\n        /* \"#utility.yul\":8821:8850   */\n      tag_174\n        /* \"#utility.yul\":8846:8849   */\n      dup4\n        /* \"#utility.yul\":8840:8844   */\n      dup4\n        /* \"#utility.yul\":8821:8850   */\n      tag_69\n      jump\t// in\n    tag_174:\n        /* \"#utility.yul\":8813:8850   */\n      swap2\n      pop\n        /* \"#utility.yul\":8883:8886   */\n      dup3\n        /* \"#utility.yul\":8880:8881   */\n      0x02\n        /* \"#utility.yul\":8876:8887   */\n      mul\n        /* \"#utility.yul\":8870:8874   */\n      dup3\n        /* \"#utility.yul\":8867:8888   */\n      or\n        /* \"#utility.yul\":8859:8888   */\n      swap1\n      pop\n        /* \"#utility.yul\":8599:8894   */\n      swap3\n      swap2\n      pop\n      pop\n      jump\t// out\n        /* \"#utility.yul\":8899:10294   */\n    tag_23:\n        /* \"#utility.yul\":9016:9053   */\n      tag_176\n        /* \"#utility.yul\":9049:9052   */\n      dup3\n        /* \"#utility.yul\":9016:9053   */\n      tag_50\n      jump\t// in\n    tag_176:\n        /* \"#utility.yul\":9118:9136   */\n      0xffffffffffffffff\n        /* \"#utility.yul\":9110:9116   */\n      dup2\n        /* \"#utility.yul\":9107:9137   */\n      gt\n        /* \"#utility.yul\":9104:9160   */\n      iszero\n      tag_177\n      jumpi\n        /* \"#utility.yul\":9140:9158   */\n      tag_178\n      tag_40\n      jump\t// in\n    tag_178:\n        /* \"#utility.yul\":9104:9160   */\n    tag_177:\n        /* \"#utility.yul\":9184:9222   */\n      tag_179\n        /* \"#utility.yul\":9216:9220   */\n      dup3\n        /* \"#utility.yul\":9210:9221   */\n      sload\n        /* \"#utility.yul\":9184:9222   */\n      tag_27\n      jump\t// in\n    tag_179:\n        /* \"#utility.yul\":9269:9336   */\n      tag_180\n        /* \"#utility.yul\":9329:9335   */\n      dup3\n        /* \"#utility.yul\":9321:9327   */\n      dup3\n        /* \"#utility.yul\":9315:9319   */\n      dup6\n        /* \"#utility.yul\":9269:9336   */\n      tag_67\n      jump\t// in\n    tag_180:\n        /* \"#utility.yul\":9363:9364   */\n      0x00\n        /* \"#utility.yul\":9387:9391   */\n      0x20\n        /* \"#utility.yul\":9374:9391   */\n      swap1\n      pop\n        /* \"#utility.yul\":9419:9421   */\n      0x1f\n        /* \"#utility.yul\":9411:9417   */\n      dup4\n        /* \"#utility.yul\":9408:9422   */\n      gt\n        /* \"#utility.yul\":9436:9437   */\n      0x01\n        /* \"#utility.yul\":9431:10049   */\n      dup2\n      eq\n      tag_182\n      jumpi\n        /* \"#utility.yul\":10093:10094   */\n      0x00\n        /* \"#utility.yul\":10110:10116   */\n      dup5\n        /* \"#utility.yul\":10107:10184   */\n      iszero\n      tag_183\n      jumpi\n        /* \"#utility.yul\":10159:10168   */\n      dup3\n        /* \"#utility.yul\":10154:10157   */\n      dup8\n        /* \"#utility.yul\":10150:10169   */\n      add\n        /* \"#utility.yul\":10144:10170   */\n      mload\n        /* \"#utility.yul\":10135:10170   */\n      swap1\n      pop\n        /* \"#utility.yul\":10107:10184   */\n    tag_183:\n        /* \"#utility.yul\":10210:10277   */\n      tag_184\n        /* \"#utility.yul\":10270:10276   */\n      dup6\n        /* \"#utility.yul\":10263:10268   */\n      dup3\n        /* \"#utility.yul\":10210:10277   */\n      tag_70\n      jump\t// in\n    tag_184:\n        /* \"#utility.yul\":10204:10208   */\n      dup7\n        /* \"#utility.yul\":10197:10278   */\n      sstore\n        /* \"#utility.yul\":10066:10288   */\n      pop\n        /* \"#utility.yul\":9401:10288   */\n      jump(tag_181)\n        /* \"#utility.yul\":9431:10049   */\n    tag_182:\n        /* \"#utility.yul\":9483:9487   */\n      0x1f\n        /* \"#utility.yul\":9479:9488   */\n      not\n        /* \"#utility.yul\":9471:9477   */\n      dup5\n        /* \"#utility.yul\":9467:9489   */\n      and\n        /* \"#utility.yul\":9517:9554   */\n      tag_185\n        /* \"#utility.yul\":9549:9553   */\n      dup7\n        /* \"#utility.yul\":9517:9554   */\n      tag_56\n      jump\t// in\n    tag_185:\n        /* \"#utility.yul\":9576:9577   */\n      0x00\n        /* \"#utility.yul\":9590:9798   */\n    tag_186:\n        /* \"#utility.yul\":9604:9611   */\n      dup3\n        /* \"#utility.yul\":9601:9602   */\n      dup2\n        /* \"#utility.yul\":9598:9612   */\n      lt\n        /* \"#utility.yul\":9590:9798   */\n      iszero\n      tag_188\n      jumpi\n        /* \"#utility.yul\":9683:9692   */\n      dup5\n        /* \"#utility.yul\":9678:9681   */\n      dup10\n        /* \"#utility.yul\":9674:9693   */\n      add\n        /* \"#utility.yul\":9668:9694   */\n      mload\n        /* \"#utility.yul\":9660:9666   */\n      dup3\n        /* \"#utility.yul\":9653:9695   */\n      sstore\n        /* \"#utility.yul\":9734:9735   */\n      0x01\n        /* \"#utility.yul\":9726:9732   */\n      dup3\n        /* \"#utility.yul\":9722:9736   */\n      add\n        /* \"#utility.yul\":9712:9736   */\n      swap2\n      pop\n        /* \"#utility.yul\":9781:9783   */\n      0x20\n        /* \"#utility.yul\":9770:9779   */\n      dup6\n        /* \"#utility.yul\":9766:9784   */\n      add\n        /* \"#utility.yul\":9753:9784   */\n      swap5\n      pop\n        /* \"#utility.yul\":9627:9631   */\n      0x20\n        /* \"#utility.yul\":9624:9625   */\n      dup2\n        /* \"#utility.yul\":9620:9632   */\n      add\n        /* \"#utility.yul\":9615:9632   */\n      swap1\n      pop\n        /* \"#utility.yul\":9590:9798   */\n      jump(tag_186)\n    tag_188:\n        /* \"#utility.yul\":9826:9832   */\n      dup7\n        /* \"#utility.yul\":9817:9824   */\n      dup4\n        /* \"#utility.yul\":9814:9833   */\n      lt\n        /* \"#utility.yul\":9811:9990   */\n      iszero\n      tag_189\n      jumpi\n        /* \"#utility.yul\":9884:9893   */\n      dup5\n        /* \"#utility.yul\":9879:9882   */\n      dup10\n        /* \"#utility.yul\":9875:9894   */\n      add\n        /* \"#utility.yul\":9869:9895   */\n      mload\n        /* \"#utility.yul\":9927:9975   */\n      tag_190\n        /* \"#utility.yul\":9969:9973   */\n      0x1f\n        /* \"#utility.yul\":9961:9967   */\n      dup10\n        /* \"#utility.yul\":9957:9974   */\n      and\n        /* \"#utility.yul\":9946:9955   */\n      dup3\n        /* \"#utility.yul\":9927:9975   */\n      tag_69\n      jump\t// in\n    tag_190:\n        /* \"#utility.yul\":9919:9925   */\n      dup4\n        /* \"#utility.yul\":9912:9976   */\n      sstore\n        /* \"#utility.yul\":9834:9990   */\n      pop\n        /* \"#utility.yul\":9811:9990   */\n    tag_189:\n        /* \"#utility.yul\":10036:10037   */\n      0x01\n        /* \"#utility.yul\":10032:10033   */\n      0x02\n        /* \"#utility.yul\":10024:10030   */\n      dup9\n        /* \"#utility.yul\":10020:10034   */\n      mul\n        /* \"#utility.yul\":10016:10038   */\n      add\n        /* \"#utility.yul\":10010:10014   */\n      dup9\n        /* \"#utility.yul\":10003:10039   */\n      sstore\n        /* \"#utility.yul\":9438:10049   */\n      pop\n      pop\n      pop\n        /* \"#utility.yul\":9401:10288   */\n    tag_181:\n      pop\n        /* \"#utility.yul\":8991:10294   */\n      pop\n      pop\n      pop\n        /* \"#utility.yul\":8899:10294   */\n      pop\n      pop\n      jump\t// out\n\n    auxdata: 0xa264697066735822122057506375cebe416b9c69581f4db13e5d664bac773146e8f8fcc36d0276742f3864736f6c634300081a0033\n}\n",
				"bytecode": {
					"linkReferences": {},
					"object": "608060405234801561000f575f80fd5b506040518060400160405280600481526020017f6a61636b000000000000000000000000000000000000000000000000000000008152505f80019081610055919061029f565b50600a5f6001018190555061036e565b5f81519050919050565b7f4e487b71000000000000000000000000000000000000000000000000000000005f52604160045260245ffd5b7f4e487b71000000000000000000000000000000000000000000000000000000005f52602260045260245ffd5b5f60028204905060018216806100e057607f821691505b6020821081036100f3576100f261009c565b5b50919050565b5f819050815f5260205f209050919050565b5f6020601f8301049050919050565b5f82821b905092915050565b5f600883026101557fffffffffffffffffffffffffffffffffffffffffffffffffffffffffffffffff8261011a565b61015f868361011a565b95508019841693508086168417925050509392505050565b5f819050919050565b5f819050919050565b5f6101a361019e61019984610177565b610180565b610177565b9050919050565b5f819050919050565b6101bc83610189565b6101d06101c8826101aa565b848454610126565b825550505050565b5f90565b6101e46101d8565b6101ef8184846101b3565b505050565b5b81811015610212576102075f826101dc565b6001810190506101f5565b5050565b601f82111561025757610228816100f9565b6102318461010b565b81016020851015610240578190505b61025461024c8561010b565b8301826101f4565b50505b505050565b5f82821c905092915050565b5f6102775f198460080261025c565b1980831691505092915050565b5f61028f8383610268565b9150826002028217905092915050565b6102a882610065565b67ffffffffffffffff8111156102c1576102c061006f565b5b6102cb82546100c9565b6102d6828285610216565b5f60209050601f831160018114610307575f84156102f5578287015190505b6102ff8582610284565b865550610366565b601f198416610315866100f9565b5f5b8281101561033c57848901518255600182019150602085019450602081019050610317565b868310156103595784890151610355601f891682610268565b8355505b6001600288020188555050505b505050505050565b6107ca8061037b5f395ff3fe608060405234801561000f575f80fd5b506004361061004a575f3560e01c806322f7c4121461004e5780632360f7451461006a57806377ec2b5514610086578063b9592afa146100a5575b5f80fd5b6100686004803603810190610063919061038d565b6100af565b005b610084600480360381019061007f91906103e7565b6100ea565b005b61008e610125565b60405161009c92919061049d565b60405180910390f35b6100ad6101bb565b005b6040518060400160405280838152602001828152505f80820151815f0190816100d891906106c5565b50602082015181600101559050505050565b6040518060400160405280828152602001600a8152505f80820151815f01908161011491906106c5565b506020820151816001015590505050565b5f805f018054610134906104f8565b80601f0160208091040260200160405190810160405280929190818152602001828054610160906104f8565b80156101ab5780601f10610182576101008083540402835291602001916101ab565b820191905f5260205f20905b81548152906001019060200180831161018e57829003601f168201915b5050505050908060010154905082565b6040518060400160405280600381526020017f426f6200000000000000000000000000000000000000000000000000000000008152505f8001908161020091906106c5565b5060145f60010181905550565b5f604051905090565b5f80fd5b5f80fd5b5f80fd5b5f80fd5b5f601f19601f8301169050919050565b7f4e487b71000000000000000000000000000000000000000000000000000000005f52604160045260245ffd5b61026c82610226565b810181811067ffffffffffffffff8211171561028b5761028a610236565b5b80604052505050565b5f61029d61020d565b90506102a98282610263565b919050565b5f67ffffffffffffffff8211156102c8576102c7610236565b5b6102d182610226565b9050602081019050919050565b828183375f83830152505050565b5f6102fe6102f9846102ae565b610294565b90508281526020810184848401111561031a57610319610222565b5b6103258482856102de565b509392505050565b5f82601f8301126103415761034061021e565b5b81356103518482602086016102ec565b91505092915050565b5f819050919050565b61036c8161035a565b8114610376575f80fd5b50565b5f8135905061038781610363565b92915050565b5f80604083850312156103a3576103a2610216565b5b5f83013567ffffffffffffffff8111156103c0576103bf61021a565b5b6103cc8582860161032d565b92505060206103dd85828601610379565b9150509250929050565b5f602082840312156103fc576103fb610216565b5b5f82013567ffffffffffffffff8111156104195761041861021a565b5b6104258482850161032d565b91505092915050565b5f81519050919050565b5f82825260208201905092915050565b8281835e5f83830152505050565b5f6104608261042e565b61046a8185610438565b935061047a818560208601610448565b61048381610226565b840191505092915050565b6104978161035a565b82525050565b5f6040820190508181035f8301526104b58185610456565b90506104c4602083018461048e565b9392505050565b7f4e487b71000000000000000000000000000000000000000000000000000000005f52602260045260245ffd5b5f600282049050600182168061050f57607f821691505b602082108103610522576105216104cb565b5b50919050565b5f819050815f5260205f209050919050565b5f6020601f8301049050919050565b5f82821b905092915050565b5f600883026105847fffffffffffffffffffffffffffffffffffffffffffffffffffffffffffffffff82610549565b61058e8683610549565b95508019841693508086168417925050509392505050565b5f819050919050565b5f6105c96105c46105bf8461035a565b6105a6565b61035a565b9050919050565b5f819050919050565b6105e2836105af565b6105f66105ee826105d0565b848454610555565b825550505050565b5f90565b61060a6105fe565b6106158184846105d9565b505050565b5b818110156106385761062d5f82610602565b60018101905061061b565b5050565b601f82111561067d5761064e81610528565b6106578461053a565b81016020851015610666578190505b61067a6106728561053a565b83018261061a565b50505b505050565b5f82821c905092915050565b5f61069d5f1984600802610682565b1980831691505092915050565b5f6106b5838361068e565b9150826002028217905092915050565b6106ce8261042e565b67ffffffffffffffff8111156106e7576106e6610236565b5b6106f182546104f8565b6106fc82828561063c565b5f60209050601f83116001811461072d575f841561071b578287015190505b61072585826106aa565b86555061078c565b601f19841661073b86610528565b5f5b828110156107625784890151825560018201915060208501945060208101905061073d565b8683101561077f578489015161077b601f89168261068e565b8355505b6001600288020188555050505b50505050505056fea264697066735822122057506375cebe416b9c69581f4db13e5d664bac773146e8f8fcc36d0276742f3864736f6c634300081a0033",
					"opcodes": "PUSH1 0x80 PUSH1 0x40 MSTORE CALLVALUE DUP1 ISZERO PUSH2 0xF JUMPI PUSH0 DUP1 REVERT JUMPDEST POP PUSH1 0x40 MLOAD DUP1 PUSH1 0x40 ADD PUSH1 0x40 MSTORE DUP1 PUSH1 0x4 DUP2 MSTORE PUSH1 0x20 ADD PUSH32 0x6A61636B00000000000000000000000000000000000000000000000000000000 DUP2 MSTORE POP PUSH0 DUP1 ADD SWAP1 DUP2 PUSH2 0x55 SWAP2 SWAP1 PUSH2 0x29F JUMP JUMPDEST POP PUSH1 0xA PUSH0 PUSH1 0x1 ADD DUP2 SWAP1 SSTORE POP PUSH2 0x36E JUMP JUMPDEST PUSH0 DUP2 MLOAD SWAP1 POP SWAP2 SWAP1 POP JUMP JUMPDEST PUSH32 0x4E487B7100000000000000000000000000000000000000000000000000000000 PUSH0 MSTORE PUSH1 0x41 PUSH1 0x4 MSTORE PUSH1 0x24 PUSH0 REVERT JUMPDEST PUSH32 0x4E487B7100000000000000000000000000000000000000000000000000000000 PUSH0 MSTORE PUSH1 0x22 PUSH1 0x4 MSTORE PUSH1 0x24 PUSH0 REVERT JUMPDEST PUSH0 PUSH1 0x2 DUP3 DIV SWAP1 POP PUSH1 0x1 DUP3 AND DUP1 PUSH2 0xE0 JUMPI PUSH1 0x7F DUP3 AND SWAP2 POP JUMPDEST PUSH1 0x20 DUP3 LT DUP2 SUB PUSH2 0xF3 JUMPI PUSH2 0xF2 PUSH2 0x9C JUMP JUMPDEST JUMPDEST POP SWAP2 SWAP1 POP JUMP JUMPDEST PUSH0 DUP2 SWAP1 POP DUP2 PUSH0 MSTORE PUSH1 0x20 PUSH0 KECCAK256 SWAP1 POP SWAP2 SWAP1 POP JUMP JUMPDEST PUSH0 PUSH1 0x20 PUSH1 0x1F DUP4 ADD DIV SWAP1 POP SWAP2 SWAP1 POP JUMP JUMPDEST PUSH0 DUP3 DUP3 SHL SWAP1 POP SWAP3 SWAP2 POP POP JUMP JUMPDEST PUSH0 PUSH1 0x8 DUP4 MUL PUSH2 0x155 PUSH32 0xFFFFFFFFFFFFFFFFFFFFFFFFFFFFFFFFFFFFFFFFFFFFFFFFFFFFFFFFFFFFFFFF DUP3 PUSH2 0x11A JUMP JUMPDEST PUSH2 0x15F DUP7 DUP4 PUSH2 0x11A JUMP JUMPDEST SWAP6 POP DUP1 NOT DUP5 AND SWAP4 POP DUP1 DUP7 AND DUP5 OR SWAP3 POP POP POP SWAP4 SWAP3 POP POP POP JUMP JUMPDEST PUSH0 DUP2 SWAP1 POP SWAP2 SWAP1 POP JUMP JUMPDEST PUSH0 DUP2 SWAP1 POP SWAP2 SWAP1 POP JUMP JUMPDEST PUSH0 PUSH2 0x1A3 PUSH2 0x19E PUSH2 0x199 DUP5 PUSH2 0x177 JUMP JUMPDEST PUSH2 0x180 JUMP JUMPDEST PUSH2 0x177 JUMP JUMPDEST SWAP1 POP SWAP2 SWAP1 POP JUMP JUMPDEST PUSH0 DUP2 SWAP1 POP SWAP2 SWAP1 POP JUMP JUMPDEST PUSH2 0x1BC DUP4 PUSH2 0x189 JUMP JUMPDEST PUSH2 0x1D0 PUSH2 0x1C8 DUP3 PUSH2 0x1AA JUMP JUMPDEST DUP5 DUP5 SLOAD PUSH2 0x126 JUMP JUMPDEST DUP3 SSTORE POP POP POP POP JUMP JUMPDEST PUSH0 SWAP1 JUMP JUMPDEST PUSH2 0x1E4 PUSH2 0x1D8 JUMP JUMPDEST PUSH2 0x1EF DUP2 DUP5 DUP5 PUSH2 0x1B3 JUMP JUMPDEST POP POP POP JUMP JUMPDEST JUMPDEST DUP2 DUP2 LT ISZERO PUSH2 0x212 JUMPI PUSH2 0x207 PUSH0 DUP3 PUSH2 0x1DC JUMP JUMPDEST PUSH1 0x1 DUP2 ADD SWAP1 POP PUSH2 0x1F5 JUMP JUMPDEST POP POP JUMP JUMPDEST PUSH1 0x1F DUP3 GT ISZERO PUSH2 0x257 JUMPI PUSH2 0x228 DUP2 PUSH2 0xF9 JUMP JUMPDEST PUSH2 0x231 DUP5 PUSH2 0x10B JUMP JUMPDEST DUP2 ADD PUSH1 0x20 DUP6 LT ISZERO PUSH2 0x240 JUMPI DUP2 SWAP1 POP JUMPDEST PUSH2 0x254 PUSH2 0x24C DUP6 PUSH2 0x10B JUMP JUMPDEST DUP4 ADD DUP3 PUSH2 0x1F4 JUMP JUMPDEST POP POP JUMPDEST POP POP POP JUMP JUMPDEST PUSH0 DUP3 DUP3 SHR SWAP1 POP SWAP3 SWAP2 POP POP JUMP JUMPDEST PUSH0 PUSH2 0x277 PUSH0 NOT DUP5 PUSH1 0x8 MUL PUSH2 0x25C JUMP JUMPDEST NOT DUP1 DUP4 AND SWAP2 POP POP SWAP3 SWAP2 POP POP JUMP JUMPDEST PUSH0 PUSH2 0x28F DUP4 DUP4 PUSH2 0x268 JUMP JUMPDEST SWAP2 POP DUP3 PUSH1 0x2 MUL DUP3 OR SWAP1 POP SWAP3 SWAP2 POP POP JUMP JUMPDEST PUSH2 0x2A8 DUP3 PUSH2 0x65 JUMP JUMPDEST PUSH8 0xFFFFFFFFFFFFFFFF DUP2 GT ISZERO PUSH2 0x2C1 JUMPI PUSH2 0x2C0 PUSH2 0x6F JUMP JUMPDEST JUMPDEST PUSH2 0x2CB DUP3 SLOAD PUSH2 0xC9 JUMP JUMPDEST PUSH2 0x2D6 DUP3 DUP3 DUP6 PUSH2 0x216 JUMP JUMPDEST PUSH0 PUSH1 0x20 SWAP1 POP PUSH1 0x1F DUP4 GT PUSH1 0x1 DUP2 EQ PUSH2 0x307 JUMPI PUSH0 DUP5 ISZERO PUSH2 0x2F5 JUMPI DUP3 DUP8 ADD MLOAD SWAP1 POP JUMPDEST PUSH2 0x2FF DUP6 DUP3 PUSH2 0x284 JUMP JUMPDEST DUP7 SSTORE POP PUSH2 0x366 JUMP JUMPDEST PUSH1 0x1F NOT DUP5 AND PUSH2 0x315 DUP7 PUSH2 0xF9 JUMP JUMPDEST PUSH0 JUMPDEST DUP3 DUP2 LT ISZERO PUSH2 0x33C JUMPI DUP5 DUP10 ADD MLOAD DUP3 SSTORE PUSH1 0x1 DUP3 ADD SWAP2 POP PUSH1 0x20 DUP6 ADD SWAP5 POP PUSH1 0x20 DUP2 ADD SWAP1 POP PUSH2 0x317 JUMP JUMPDEST DUP7 DUP4 LT ISZERO PUSH2 0x359 JUMPI DUP5 DUP10 ADD MLOAD PUSH2 0x355 PUSH1 0x1F DUP10 AND DUP3 PUSH2 0x268 JUMP JUMPDEST DUP4 SSTORE POP JUMPDEST PUSH1 0x1 PUSH1 0x2 DUP9 MUL ADD DUP9 SSTORE POP POP POP JUMPDEST POP POP POP POP POP POP JUMP JUMPDEST PUSH2 0x7CA DUP1 PUSH2 0x37B PUSH0 CODECOPY PUSH0 RETURN INVALID PUSH1 0x80 PUSH1 0x40 MSTORE CALLVALUE DUP1 ISZERO PUSH2 0xF JUMPI PUSH0 DUP1 REVERT JUMPDEST POP PUSH1 0x4 CALLDATASIZE LT PUSH2 0x4A JUMPI PUSH0 CALLDATALOAD PUSH1 0xE0 SHR DUP1 PUSH4 0x22F7C412 EQ PUSH2 0x4E JUMPI DUP1 PUSH4 0x2360F745 EQ PUSH2 0x6A JUMPI DUP1 PUSH4 0x77EC2B55 EQ PUSH2 0x86 JUMPI DUP1 PUSH4 0xB9592AFA EQ PUSH2 0xA5 JUMPI JUMPDEST PUSH0 DUP1 REVERT JUMPDEST PUSH2 0x68 PUSH1 0x4 DUP1 CALLDATASIZE SUB DUP2 ADD SWAP1 PUSH2 0x63 SWAP2 SWAP1 PUSH2 0x38D JUMP JUMPDEST PUSH2 0xAF JUMP JUMPDEST STOP JUMPDEST PUSH2 0x84 PUSH1 0x4 DUP1 CALLDATASIZE SUB DUP2 ADD SWAP1 PUSH2 0x7F SWAP2 SWAP1 PUSH2 0x3E7 JUMP JUMPDEST PUSH2 0xEA JUMP JUMPDEST STOP JUMPDEST PUSH2 0x8E PUSH2 0x125 JUMP JUMPDEST PUSH1 0x40 MLOAD PUSH2 0x9C SWAP3 SWAP2 SWAP1 PUSH2 0x49D JUMP JUMPDEST PUSH1 0x40 MLOAD DUP1 SWAP2 SUB SWAP1 RETURN JUMPDEST PUSH2 0xAD PUSH2 0x1BB JUMP JUMPDEST STOP JUMPDEST PUSH1 0x40 MLOAD DUP1 PUSH1 0x40 ADD PUSH1 0x40 MSTORE DUP1 DUP4 DUP2 MSTORE PUSH1 0x20 ADD DUP3 DUP2 MSTORE POP PUSH0 DUP1 DUP3 ADD MLOAD DUP2 PUSH0 ADD SWAP1 DUP2 PUSH2 0xD8 SWAP2 SWAP1 PUSH2 0x6C5 JUMP JUMPDEST POP PUSH1 0x20 DUP3 ADD MLOAD DUP2 PUSH1 0x1 ADD SSTORE SWAP1 POP POP POP POP JUMP JUMPDEST PUSH1 0x40 MLOAD DUP1 PUSH1 0x40 ADD PUSH1 0x40 MSTORE DUP1 DUP3 DUP2 MSTORE PUSH1 0x20 ADD PUSH1 0xA DUP2 MSTORE POP PUSH0 DUP1 DUP3 ADD MLOAD DUP2 PUSH0 ADD SWAP1 DUP2 PUSH2 0x114 SWAP2 SWAP1 PUSH2 0x6C5 JUMP JUMPDEST POP PUSH1 0x20 DUP3 ADD MLOAD DUP2 PUSH1 0x1 ADD SSTORE SWAP1 POP POP POP JUMP JUMPDEST PUSH0 DUP1 PUSH0 ADD DUP1 SLOAD PUSH2 0x134 SWAP1 PUSH2 0x4F8 JUMP JUMPDEST DUP1 PUSH1 0x1F ADD PUSH1 0x20 DUP1 SWAP2 DIV MUL PUSH1 0x20 ADD PUSH1 0x40 MLOAD SWAP1 DUP2 ADD PUSH1 0x40 MSTORE DUP1 SWAP3 SWAP2 SWAP1 DUP2 DUP2 MSTORE PUSH1 0x20 ADD DUP3 DUP1 SLOAD PUSH2 0x160 SWAP1 PUSH2 0x4F8 JUMP JUMPDEST DUP1 ISZERO PUSH2 0x1AB JUMPI DUP1 PUSH1 0x1F LT PUSH2 0x182 JUMPI PUSH2 0x100 DUP1 DUP4 SLOAD DIV MUL DUP4 MSTORE SWAP2 PUSH1 0x20 ADD SWAP2 PUSH2 0x1AB JUMP JUMPDEST DUP3 ADD SWAP2 SWAP1 PUSH0 MSTORE PUSH1 0x20 PUSH0 KECCAK256 SWAP1 JUMPDEST DUP2 SLOAD DUP2 MSTORE SWAP1 PUSH1 0x1 ADD SWAP1 PUSH1 0x20 ADD DUP1 DUP4 GT PUSH2 0x18E JUMPI DUP3 SWAP1 SUB PUSH1 0x1F AND DUP3 ADD SWAP2 JUMPDEST POP POP POP POP POP SWAP1 DUP1 PUSH1 0x1 ADD SLOAD SWAP1 POP DUP3 JUMP JUMPDEST PUSH1 0x40 MLOAD DUP1 PUSH1 0x40 ADD PUSH1 0x40 MSTORE DUP1 PUSH1 0x3 DUP2 MSTORE PUSH1 0x20 ADD PUSH32 0x426F620000000000000000000000000000000000000000000000000000000000 DUP2 MSTORE POP PUSH0 DUP1 ADD SWAP1 DUP2 PUSH2 0x200 SWAP2 SWAP1 PUSH2 0x6C5 JUMP JUMPDEST POP PUSH1 0x14 PUSH0 PUSH1 0x1 ADD DUP2 SWAP1 SSTORE POP JUMP JUMPDEST PUSH0 PUSH1 0x40 MLOAD SWAP1 POP SWAP1 JUMP JUMPDEST PUSH0 DUP1 REVERT JUMPDEST PUSH0 DUP1 REVERT JUMPDEST PUSH0 DUP1 REVERT JUMPDEST PUSH0 DUP1 REVERT JUMPDEST PUSH0 PUSH1 0x1F NOT PUSH1 0x1F DUP4 ADD AND SWAP1 POP SWAP2 SWAP1 POP JUMP JUMPDEST PUSH32 0x4E487B7100000000000000000000000000000000000000000000000000000000 PUSH0 MSTORE PUSH1 0x41 PUSH1 0x4 MSTORE PUSH1 0x24 PUSH0 REVERT JUMPDEST PUSH2 0x26C DUP3 PUSH2 0x226 JUMP JUMPDEST DUP2 ADD DUP2 DUP2 LT PUSH8 0xFFFFFFFFFFFFFFFF DUP3 GT OR ISZERO PUSH2 0x28B JUMPI PUSH2 0x28A PUSH2 0x236 JUMP JUMPDEST JUMPDEST DUP1 PUSH1 0x40 MSTORE POP POP POP JUMP JUMPDEST PUSH0 PUSH2 0x29D PUSH2 0x20D JUMP JUMPDEST SWAP1 POP PUSH2 0x2A9 DUP3 DUP3 PUSH2 0x263 JUMP JUMPDEST SWAP2 SWAP1 POP JUMP JUMPDEST PUSH0 PUSH8 0xFFFFFFFFFFFFFFFF DUP3 GT ISZERO PUSH2 0x2C8 JUMPI PUSH2 0x2C7 PUSH2 0x236 JUMP JUMPDEST JUMPDEST PUSH2 0x2D1 DUP3 PUSH2 0x226 JUMP JUMPDEST SWAP1 POP PUSH1 0x20 DUP2 ADD SWAP1 POP SWAP2 SWAP1 POP JUMP JUMPDEST DUP3 DUP2 DUP4 CALLDATACOPY PUSH0 DUP4 DUP4 ADD MSTORE POP POP POP JUMP JUMPDEST PUSH0 PUSH2 0x2FE PUSH2 0x2F9 DUP5 PUSH2 0x2AE JUMP JUMPDEST PUSH2 0x294 JUMP JUMPDEST SWAP1 POP DUP3 DUP2 MSTORE PUSH1 0x20 DUP2 ADD DUP5 DUP5 DUP5 ADD GT ISZERO PUSH2 0x31A JUMPI PUSH2 0x319 PUSH2 0x222 JUMP JUMPDEST JUMPDEST PUSH2 0x325 DUP5 DUP3 DUP6 PUSH2 0x2DE JUMP JUMPDEST POP SWAP4 SWAP3 POP POP POP JUMP JUMPDEST PUSH0 DUP3 PUSH1 0x1F DUP4 ADD SLT PUSH2 0x341 JUMPI PUSH2 0x340 PUSH2 0x21E JUMP JUMPDEST JUMPDEST DUP2 CALLDATALOAD PUSH2 0x351 DUP5 DUP3 PUSH1 0x20 DUP7 ADD PUSH2 0x2EC JUMP JUMPDEST SWAP2 POP POP SWAP3 SWAP2 POP POP JUMP JUMPDEST PUSH0 DUP2 SWAP1 POP SWAP2 SWAP1 POP JUMP JUMPDEST PUSH2 0x36C DUP2 PUSH2 0x35A JUMP JUMPDEST DUP2 EQ PUSH2 0x376 JUMPI PUSH0 DUP1 REVERT JUMPDEST POP JUMP JUMPDEST PUSH0 DUP2 CALLDATALOAD SWAP1 POP PUSH2 0x387 DUP2 PUSH2 0x363 JUMP JUMPDEST SWAP3 SWAP2 POP POP JUMP JUMPDEST PUSH0 DUP1 PUSH1 0x40 DUP4 DUP6 SUB SLT ISZERO PUSH2 0x3A3 JUMPI PUSH2 0x3A2 PUSH2 0x216 JUMP JUMPDEST JUMPDEST PUSH0 DUP4 ADD CALLDATALOAD PUSH8 0xFFFFFFFFFFFFFFFF DUP2 GT ISZERO PUSH2 0x3C0 JUMPI PUSH2 0x3BF PUSH2 0x21A JUMP JUMPDEST JUMPDEST PUSH2 0x3CC DUP6 DUP3 DUP7 ADD PUSH2 0x32D JUMP JUMPDEST SWAP3 POP POP PUSH1 0x20 PUSH2 0x3DD DUP6 DUP3 DUP7 ADD PUSH2 0x379 JUMP JUMPDEST SWAP2 POP POP SWAP3 POP SWAP3 SWAP1 POP JUMP JUMPDEST PUSH0 PUSH1 0x20 DUP3 DUP5 SUB SLT ISZERO PUSH2 0x3FC JUMPI PUSH2 0x3FB PUSH2 0x216 JUMP JUMPDEST JUMPDEST PUSH0 DUP3 ADD CALLDATALOAD PUSH8 0xFFFFFFFFFFFFFFFF DUP2 GT ISZERO PUSH2 0x419 JUMPI PUSH2 0x418 PUSH2 0x21A JUMP JUMPDEST JUMPDEST PUSH2 0x425 DUP5 DUP3 DUP6 ADD PUSH2 0x32D JUMP JUMPDEST SWAP2 POP POP SWAP3 SWAP2 POP POP JUMP JUMPDEST PUSH0 DUP2 MLOAD SWAP1 POP SWAP2 SWAP1 POP JUMP JUMPDEST PUSH0 DUP3 DUP3 MSTORE PUSH1 0x20 DUP3 ADD SWAP1 POP SWAP3 SWAP2 POP POP JUMP JUMPDEST DUP3 DUP2 DUP4 MCOPY PUSH0 DUP4 DUP4 ADD MSTORE POP POP POP JUMP JUMPDEST PUSH0 PUSH2 0x460 DUP3 PUSH2 0x42E JUMP JUMPDEST PUSH2 0x46A DUP2 DUP6 PUSH2 0x438 JUMP JUMPDEST SWAP4 POP PUSH2 0x47A DUP2 DUP6 PUSH1 0x20 DUP7 ADD PUSH2 0x448 JUMP JUMPDEST PUSH2 0x483 DUP2 PUSH2 0x226 JUMP JUMPDEST DUP5 ADD SWAP2 POP POP SWAP3 SWAP2 POP POP JUMP JUMPDEST PUSH2 0x497 DUP2 PUSH2 0x35A JUMP JUMPDEST DUP3 MSTORE POP POP JUMP JUMPDEST PUSH0 PUSH1 0x40 DUP3 ADD SWAP1 POP DUP2 DUP2 SUB PUSH0 DUP4 ADD MSTORE PUSH2 0x4B5 DUP2 DUP6 PUSH2 0x456 JUMP JUMPDEST SWAP1 POP PUSH2 0x4C4 PUSH1 0x20 DUP4 ADD DUP5 PUSH2 0x48E JUMP JUMPDEST SWAP4 SWAP3 POP POP POP JUMP JUMPDEST PUSH32 0x4E487B7100000000000000000000000000000000000000000000000000000000 PUSH0 MSTORE PUSH1 0x22 PUSH1 0x4 MSTORE PUSH1 0x24 PUSH0 REVERT JUMPDEST PUSH0 PUSH1 0x2 DUP3 DIV SWAP1 POP PUSH1 0x1 DUP3 AND DUP1 PUSH2 0x50F JUMPI PUSH1 0x7F DUP3 AND SWAP2 POP JUMPDEST PUSH1 0x20 DUP3 LT DUP2 SUB PUSH2 0x522 JUMPI PUSH2 0x521 PUSH2 0x4CB JUMP JUMPDEST JUMPDEST POP SWAP2 SWAP1 POP JUMP JUMPDEST PUSH0 DUP2 SWAP1 POP DUP2 PUSH0 MSTORE PUSH1 0x20 PUSH0 KECCAK256 SWAP1 POP SWAP2 SWAP1 POP JUMP JUMPDEST PUSH0 PUSH1 0x20 PUSH1 0x1F DUP4 ADD DIV SWAP1 POP SWAP2 SWAP1 POP JUMP JUMPDEST PUSH0 DUP3 DUP3 SHL SWAP1 POP SWAP3 SWAP2 POP POP JUMP JUMPDEST PUSH0 PUSH1 0x8 DUP4 MUL PUSH2 0x584 PUSH32 0xFFFFFFFFFFFFFFFFFFFFFFFFFFFFFFFFFFFFFFFFFFFFFFFFFFFFFFFFFFFFFFFF DUP3 PUSH2 0x549 JUMP JUMPDEST PUSH2 0x58E DUP7 DUP4 PUSH2 0x549 JUMP JUMPDEST SWAP6 POP DUP1 NOT DUP5 AND SWAP4 POP DUP1 DUP7 AND DUP5 OR SWAP3 POP POP POP SWAP4 SWAP3 POP POP POP JUMP JUMPDEST PUSH0 DUP2 SWAP1 POP SWAP2 SWAP1 POP JUMP JUMPDEST PUSH0 PUSH2 0x5C9 PUSH2 0x5C4 PUSH2 0x5BF DUP5 PUSH2 0x35A JUMP JUMPDEST PUSH2 0x5A6 JUMP JUMPDEST PUSH2 0x35A JUMP JUMPDEST SWAP1 POP SWAP2 SWAP1 POP JUMP JUMPDEST PUSH0 DUP2 SWAP1 POP SWAP2 SWAP1 POP JUMP JUMPDEST PUSH2 0x5E2 DUP4 PUSH2 0x5AF JUMP JUMPDEST PUSH2 0x5F6 PUSH2 0x5EE DUP3 PUSH2 0x5D0 JUMP JUMPDEST DUP5 DUP5 SLOAD PUSH2 0x555 JUMP JUMPDEST DUP3 SSTORE POP POP POP POP JUMP JUMPDEST PUSH0 SWAP1 JUMP JUMPDEST PUSH2 0x60A PUSH2 0x5FE JUMP JUMPDEST PUSH2 0x615 DUP2 DUP5 DUP5 PUSH2 0x5D9 JUMP JUMPDEST POP POP POP JUMP JUMPDEST JUMPDEST DUP2 DUP2 LT ISZERO PUSH2 0x638 JUMPI PUSH2 0x62D PUSH0 DUP3 PUSH2 0x602 JUMP JUMPDEST PUSH1 0x1 DUP2 ADD SWAP1 POP PUSH2 0x61B JUMP JUMPDEST POP POP JUMP JUMPDEST PUSH1 0x1F DUP3 GT ISZERO PUSH2 0x67D JUMPI PUSH2 0x64E DUP2 PUSH2 0x528 JUMP JUMPDEST PUSH2 0x657 DUP5 PUSH2 0x53A JUMP JUMPDEST DUP2 ADD PUSH1 0x20 DUP6 LT ISZERO PUSH2 0x666 JUMPI DUP2 SWAP1 POP JUMPDEST PUSH2 0x67A PUSH2 0x672 DUP6 PUSH2 0x53A JUMP JUMPDEST DUP4 ADD DUP3 PUSH2 0x61A JUMP JUMPDEST POP POP JUMPDEST POP POP POP JUMP JUMPDEST PUSH0 DUP3 DUP3 SHR SWAP1 POP SWAP3 SWAP2 POP POP JUMP JUMPDEST PUSH0 PUSH2 0x69D PUSH0 NOT DUP5 PUSH1 0x8 MUL PUSH2 0x682 JUMP JUMPDEST NOT DUP1 DUP4 AND SWAP2 POP POP SWAP3 SWAP2 POP POP JUMP JUMPDEST PUSH0 PUSH2 0x6B5 DUP4 DUP4 PUSH2 0x68E JUMP JUMPDEST SWAP2 POP DUP3 PUSH1 0x2 MUL DUP3 OR SWAP1 POP SWAP3 SWAP2 POP POP JUMP JUMPDEST PUSH2 0x6CE DUP3 PUSH2 0x42E JUMP JUMPDEST PUSH8 0xFFFFFFFFFFFFFFFF DUP2 GT ISZERO PUSH2 0x6E7 JUMPI PUSH2 0x6E6 PUSH2 0x236 JUMP JUMPDEST JUMPDEST PUSH2 0x6F1 DUP3 SLOAD PUSH2 0x4F8 JUMP JUMPDEST PUSH2 0x6FC DUP3 DUP3 DUP6 PUSH2 0x63C JUMP JUMPDEST PUSH0 PUSH1 0x20 SWAP1 POP PUSH1 0x1F DUP4 GT PUSH1 0x1 DUP2 EQ PUSH2 0x72D JUMPI PUSH0 DUP5 ISZERO PUSH2 0x71B JUMPI DUP3 DUP8 ADD MLOAD SWAP1 POP JUMPDEST PUSH2 0x725 DUP6 DUP3 PUSH2 0x6AA JUMP JUMPDEST DUP7 SSTORE POP PUSH2 0x78C JUMP JUMPDEST PUSH1 0x1F NOT DUP5 AND PUSH2 0x73B DUP7 PUSH2 0x528 JUMP JUMPDEST PUSH0 JUMPDEST DUP3 DUP2 LT ISZERO PUSH2 0x762 JUMPI DUP5 DUP10 ADD MLOAD DUP3 SSTORE PUSH1 0x1 DUP3 ADD SWAP2 POP PUSH1 0x20 DUP6 ADD SWAP5 POP PUSH1 0x20 DUP2 ADD SWAP1 POP PUSH2 0x73D JUMP JUMPDEST DUP7 DUP4 LT ISZERO PUSH2 0x77F JUMPI DUP5 DUP10 ADD MLOAD PUSH2 0x77B PUSH1 0x1F DUP10 AND DUP3 PUSH2 0x68E JUMP JUMPDEST DUP4 SSTORE POP JUMPDEST PUSH1 0x1 PUSH1 0x2 DUP9 MUL ADD DUP9 SSTORE POP POP POP JUMPDEST POP POP POP POP POP POP JUMP INVALID LOG2 PUSH5 0x6970667358 0x22 SLT KECCAK256 JUMPI POP PUSH4 0x75CEBE41 PUSH12 0x9C69581F4DB13E5D664BAC77 BALANCE CHAINID 0xE8 0xF8 0xFC 0xC3 PUSH14 0x276742F3864736F6C634300081A STOP CALLER "
				},
				"gasEstimates": {
					"creation": {
						"codeDepositCost": "398800",
						"executionCost": "infinite",
						"totalCost": "infinite"
					},
					"external": {
						"changePersonName(string)": "infinite",
						"changePersonName2(string,uint256)": "infinite",
						"changePersonName3()": "infinite",
						"person()": "infinite"
					}
				},
				"methodIdentifiers": {
					"changePersonName(string)": "2360f745",
					"changePersonName2(string,uint256)": "22f7c412",
					"changePersonName3()": "b9592afa",
					"person()": "77ec2b55"
				}
			},
			"storageLayout": {
				"storage": [
					{
						"astId": 9,
						"contract": "contracts/myContacts/18_struct.sol:Struct",
						"label": "person",
						"offset": 0,
						"slot": "0",
						"type": "t_struct(Person)6_storage"
					}
				],
				"types": {
					"t_string_storage": {
						"encoding": "bytes",
						"label": "string",
						"numberOfBytes": "32"
					},
					"t_struct(Person)6_storage": {
						"encoding": "inplace",
						"label": "struct Struct.Person",
						"members": [
							{
								"astId": 3,
								"contract": "contracts/myContacts/18_struct.sol:Struct",
								"label": "name",
								"offset": 0,
								"slot": "0",
								"type": "t_string_storage"
							},
							{
								"astId": 5,
								"contract": "contracts/myContacts/18_struct.sol:Struct",
								"label": "age",
								"offset": 0,
								"slot": "1",
								"type": "t_uint256"
							}
						],
						"numberOfBytes": "64"
					},
					"t_uint256": {
						"encoding": "inplace",
						"label": "uint256",
						"numberOfBytes": "32"
					}
				}
			},
			"userdoc": {
				"kind": "user",
				"methods": {},
				"version": 1
			}
		}
	}
}