{
	"contracts/myContacts/3_primitive.sol": {
		"Primitive": {
			"abi": [
				{
					"inputs": [],
					"name": "getAddress",
					"outputs": [
						{
							"internalType": "address",
							"name": "",
							"type": "address"
						}
					],
					"stateMutability": "view",
					"type": "function"
				},
				{
					"inputs": [
						{
							"internalType": "uint8",
							"name": "_num1",
							"type": "uint8"
						},
						{
							"internalType": "uint8",
							"name": "_num2",
							"type": "uint8"
						}
					],
					"name": "getCompareNum",
					"outputs": [
						{
							"internalType": "bool",
							"name": "",
							"type": "bool"
						}
					],
					"stateMutability": "view",
					"type": "function"
				},
				{
					"inputs": [],
					"name": "getU8",
					"outputs": [
						{
							"internalType": "uint8",
							"name": "",
							"type": "uint8"
						}
					],
					"stateMutability": "view",
					"type": "function"
				},
				{
					"inputs": [
						{
							"internalType": "address",
							"name": "_address",
							"type": "address"
						}
					],
					"name": "setAddress",
					"outputs": [],
					"stateMutability": "nonpayable",
					"type": "function"
				},
				{
					"inputs": [],
					"name": "typeMax",
					"outputs": [
						{
							"internalType": "uint8",
							"name": "",
							"type": "uint8"
						}
					],
					"stateMutability": "pure",
					"type": "function"
				},
				{
					"inputs": [
						{
							"internalType": "uint8",
							"name": "_num",
							"type": "uint8"
						}
					],
					"name": "u8Rs",
					"outputs": [],
					"stateMutability": "nonpayable",
					"type": "function"
				}
			],
			"devdoc": {
				"kind": "dev",
				"methods": {},
				"version": 1
			},
			"evm": {
				"assembly": "    /* \"contracts/myContacts/3_primitive.sol\":58:828  contract Primitive{... */\n  mstore(0x40, 0x80)\n  callvalue\n  dup1\n  iszero\n  tag_1\n  jumpi\n  0x00\n  dup1\n  revert\ntag_1:\n  pop\n  dataSize(sub_0)\n  dup1\n  dataOffset(sub_0)\n  0x00\n  codecopy\n  0x00\n  return\nstop\n\nsub_0: assembly {\n        /* \"contracts/myContacts/3_primitive.sol\":58:828  contract Primitive{... */\n      mstore(0x40, 0x80)\n      callvalue\n      dup1\n      iszero\n      tag_1\n      jumpi\n      0x00\n      dup1\n      revert\n    tag_1:\n      pop\n      jumpi(tag_2, lt(calldatasize, 0x04))\n      shr(0xe0, calldataload(0x00))\n      dup1\n      0x38cc4831\n      eq\n      tag_3\n      jumpi\n      dup1\n      0x3e486bfc\n      eq\n      tag_4\n      jumpi\n      dup1\n      0x5e0fc54a\n      eq\n      tag_5\n      jumpi\n      dup1\n      0x87cdeeef\n      eq\n      tag_6\n      jumpi\n      dup1\n      0xc23e972b\n      eq\n      tag_7\n      jumpi\n      dup1\n      0xe30081a0\n      eq\n      tag_8\n      jumpi\n    tag_2:\n      0x00\n      dup1\n      revert\n        /* \"contracts/myContacts/3_primitive.sol\":606:688  function getAddress() public view returns (address){... */\n    tag_3:\n      tag_9\n      tag_10\n      jump\t// in\n    tag_9:\n      mload(0x40)\n      tag_11\n      swap2\n      swap1\n      tag_12\n      jump\t// in\n    tag_11:\n      mload(0x40)\n      dup1\n      swap2\n      sub\n      swap1\n      return\n        /* \"contracts/myContacts/3_primitive.sol\":347:418  function getU8() public view returns(uint8){... */\n    tag_4:\n      tag_13\n      tag_14\n      jump\t// in\n    tag_13:\n      mload(0x40)\n      tag_15\n      swap2\n      swap1\n      tag_16\n      jump\t// in\n    tag_15:\n      mload(0x40)\n      dup1\n      swap2\n      sub\n      swap1\n      return\n        /* \"contracts/myContacts/3_primitive.sol\":696:823  function getCompareNum(uint8 _num1,uint8 _num2) public view  returns (bool){... */\n    tag_5:\n      tag_17\n      0x04\n      dup1\n      calldatasize\n      sub\n      dup2\n      add\n      swap1\n      tag_18\n      swap2\n      swap1\n      tag_19\n      jump\t// in\n    tag_18:\n      tag_20\n      jump\t// in\n    tag_17:\n      mload(0x40)\n      tag_21\n      swap2\n      swap1\n      tag_22\n      jump\t// in\n    tag_21:\n      mload(0x40)\n      dup1\n      swap2\n      sub\n      swap1\n      return\n        /* \"contracts/myContacts/3_primitive.sol\":426:512  function typeMax() public pure returns(uint8){... */\n    tag_6:\n      tag_23\n      tag_24\n      jump\t// in\n    tag_23:\n      mload(0x40)\n      tag_25\n      swap2\n      swap1\n      tag_16\n      jump\t// in\n    tag_25:\n      mload(0x40)\n      dup1\n      swap2\n      sub\n      swap1\n      return\n        /* \"contracts/myContacts/3_primitive.sol\":215:339  function u8Rs(uint8 _num ) public {... */\n    tag_7:\n      tag_26\n      0x04\n      dup1\n      calldatasize\n      sub\n      dup2\n      add\n      swap1\n      tag_27\n      swap2\n      swap1\n      tag_28\n      jump\t// in\n    tag_27:\n      tag_29\n      jump\t// in\n    tag_26:\n      stop\n        /* \"contracts/myContacts/3_primitive.sol\":520:598  function setAddress(address _address) public {... */\n    tag_8:\n      tag_30\n      0x04\n      dup1\n      calldatasize\n      sub\n      dup2\n      add\n      swap1\n      tag_31\n      swap2\n      swap1\n      tag_32\n      jump\t// in\n    tag_31:\n      tag_33\n      jump\t// in\n    tag_30:\n      stop\n        /* \"contracts/myContacts/3_primitive.sol\":606:688  function getAddress() public view returns (address){... */\n    tag_10:\n        /* \"contracts/myContacts/3_primitive.sol\":649:656  address */\n      0x00\n        /* \"contracts/myContacts/3_primitive.sol\":677:680  add */\n      0x02\n      0x00\n      swap1\n      sload\n      swap1\n      0x0100\n      exp\n      swap1\n      div\n      0xffffffffffffffffffffffffffffffffffffffff\n      and\n        /* \"contracts/myContacts/3_primitive.sol\":670:680  return add */\n      swap1\n      pop\n        /* \"contracts/myContacts/3_primitive.sol\":606:688  function getAddress() public view returns (address){... */\n      swap1\n      jump\t// out\n        /* \"contracts/myContacts/3_primitive.sol\":347:418  function getU8() public view returns(uint8){... */\n    tag_14:\n        /* \"contracts/myContacts/3_primitive.sol\":384:389  uint8 */\n      0x00\n        /* \"contracts/myContacts/3_primitive.sol\":408:410  u8 */\n      dup1\n      0x01\n      swap1\n      sload\n      swap1\n      0x0100\n      exp\n      swap1\n      div\n      0xff\n      and\n        /* \"contracts/myContacts/3_primitive.sol\":401:410  return u8 */\n      swap1\n      pop\n        /* \"contracts/myContacts/3_primitive.sol\":347:418  function getU8() public view returns(uint8){... */\n      swap1\n      jump\t// out\n        /* \"contracts/myContacts/3_primitive.sol\":696:823  function getCompareNum(uint8 _num1,uint8 _num2) public view  returns (bool){... */\n    tag_20:\n        /* \"contracts/myContacts/3_primitive.sol\":766:770  bool */\n      0x00\n        /* \"contracts/myContacts/3_primitive.sol\":797:802  _num2 */\n      dup2\n        /* \"contracts/myContacts/3_primitive.sol\":789:802  _num1 > _num2 */\n      0xff\n      and\n        /* \"contracts/myContacts/3_primitive.sol\":789:794  _num1 */\n      dup4\n        /* \"contracts/myContacts/3_primitive.sol\":789:802  _num1 > _num2 */\n      0xff\n      and\n      gt\n        /* \"contracts/myContacts/3_primitive.sol\":789:815  _num1 > _num2? true : flag */\n      tag_37\n      jumpi\n        /* \"contracts/myContacts/3_primitive.sol\":811:815  flag */\n      0x02\n      0x14\n      swap1\n      sload\n      swap1\n      0x0100\n      exp\n      swap1\n      div\n      0xff\n      and\n        /* \"contracts/myContacts/3_primitive.sol\":789:815  _num1 > _num2? true : flag */\n      jump(tag_38)\n    tag_37:\n        /* \"contracts/myContacts/3_primitive.sol\":804:808  true */\n      0x01\n        /* \"contracts/myContacts/3_primitive.sol\":789:815  _num1 > _num2? true : flag */\n    tag_38:\n        /* \"contracts/myContacts/3_primitive.sol\":782:815  return _num1 > _num2? true : flag */\n      swap1\n      pop\n        /* \"contracts/myContacts/3_primitive.sol\":696:823  function getCompareNum(uint8 _num1,uint8 _num2) public view  returns (bool){... */\n      swap3\n      swap2\n      pop\n      pop\n      jump\t// out\n        /* \"contracts/myContacts/3_primitive.sol\":426:512  function typeMax() public pure returns(uint8){... */\n    tag_24:\n        /* \"contracts/myContacts/3_primitive.sol\":465:470  uint8 */\n      0x00\n        /* \"contracts/myContacts/3_primitive.sol\":489:504  type(uint8).max */\n      0xff\n        /* \"contracts/myContacts/3_primitive.sol\":482:504  return type(uint8).max */\n      swap1\n      pop\n        /* \"contracts/myContacts/3_primitive.sol\":426:512  function typeMax() public pure returns(uint8){... */\n      swap1\n      jump\t// out\n        /* \"contracts/myContacts/3_primitive.sol\":215:339  function u8Rs(uint8 _num ) public {... */\n    tag_29:\n        /* \"contracts/myContacts/3_primitive.sol\":273:288  type(uint8).max */\n      0xff\n        /* \"contracts/myContacts/3_primitive.sol\":268:288  _num>type(uint8).max */\n      dup1\n      and\n        /* \"contracts/myContacts/3_primitive.sol\":268:272  _num */\n      dup2\n        /* \"contracts/myContacts/3_primitive.sol\":268:288  _num>type(uint8).max */\n      0xff\n      and\n      gt\n        /* \"contracts/myContacts/3_primitive.sol\":260:311  require(_num>type(uint8).max,\"the num is to lager\") */\n      tag_41\n      jumpi\n      mload(0x40)\n      0x08c379a000000000000000000000000000000000000000000000000000000000\n      dup2\n      mstore\n      0x04\n      add\n      tag_42\n      swap1\n      tag_43\n      jump\t// in\n    tag_42:\n      mload(0x40)\n      dup1\n      swap2\n      sub\n      swap1\n      revert\n    tag_41:\n        /* \"contracts/myContacts/3_primitive.sol\":327:331  _num */\n      dup1\n        /* \"contracts/myContacts/3_primitive.sol\":322:324  u8 */\n      0x00\n      0x01\n        /* \"contracts/myContacts/3_primitive.sol\":322:331  u8 = _num */\n      0x0100\n      exp\n      dup2\n      sload\n      dup2\n      0xff\n      mul\n      not\n      and\n      swap1\n      dup4\n      0xff\n      and\n      mul\n      or\n      swap1\n      sstore\n      pop\n        /* \"contracts/myContacts/3_primitive.sol\":215:339  function u8Rs(uint8 _num ) public {... */\n      pop\n      jump\t// out\n        /* \"contracts/myContacts/3_primitive.sol\":520:598  function setAddress(address _address) public {... */\n    tag_33:\n        /* \"contracts/myContacts/3_primitive.sol\":582:590  _address */\n      dup1\n        /* \"contracts/myContacts/3_primitive.sol\":576:579  add */\n      0x02\n      0x00\n        /* \"contracts/myContacts/3_primitive.sol\":576:590  add = _address */\n      0x0100\n      exp\n      dup2\n      sload\n      dup2\n      0xffffffffffffffffffffffffffffffffffffffff\n      mul\n      not\n      and\n      swap1\n      dup4\n      0xffffffffffffffffffffffffffffffffffffffff\n      and\n      mul\n      or\n      swap1\n      sstore\n      pop\n        /* \"contracts/myContacts/3_primitive.sol\":520:598  function setAddress(address _address) public {... */\n      pop\n      jump\t// out\n        /* \"#utility.yul\":7:133   */\n    tag_45:\n        /* \"#utility.yul\":44:51   */\n      0x00\n        /* \"#utility.yul\":84:126   */\n      0xffffffffffffffffffffffffffffffffffffffff\n        /* \"#utility.yul\":77:82   */\n      dup3\n        /* \"#utility.yul\":73:127   */\n      and\n        /* \"#utility.yul\":62:127   */\n      swap1\n      pop\n        /* \"#utility.yul\":7:133   */\n      swap2\n      swap1\n      pop\n      jump\t// out\n        /* \"#utility.yul\":139:235   */\n    tag_46:\n        /* \"#utility.yul\":176:183   */\n      0x00\n        /* \"#utility.yul\":205:229   */\n      tag_65\n        /* \"#utility.yul\":223:228   */\n      dup3\n        /* \"#utility.yul\":205:229   */\n      tag_45\n      jump\t// in\n    tag_65:\n        /* \"#utility.yul\":194:229   */\n      swap1\n      pop\n        /* \"#utility.yul\":139:235   */\n      swap2\n      swap1\n      pop\n      jump\t// out\n        /* \"#utility.yul\":241:359   */\n    tag_47:\n        /* \"#utility.yul\":328:352   */\n      tag_67\n        /* \"#utility.yul\":346:351   */\n      dup2\n        /* \"#utility.yul\":328:352   */\n      tag_46\n      jump\t// in\n    tag_67:\n        /* \"#utility.yul\":323:326   */\n      dup3\n        /* \"#utility.yul\":316:353   */\n      mstore\n        /* \"#utility.yul\":241:359   */\n      pop\n      pop\n      jump\t// out\n        /* \"#utility.yul\":365:587   */\n    tag_12:\n        /* \"#utility.yul\":458:462   */\n      0x00\n        /* \"#utility.yul\":496:498   */\n      0x20\n        /* \"#utility.yul\":485:494   */\n      dup3\n        /* \"#utility.yul\":481:499   */\n      add\n        /* \"#utility.yul\":473:499   */\n      swap1\n      pop\n        /* \"#utility.yul\":509:580   */\n      tag_69\n        /* \"#utility.yul\":577:578   */\n      0x00\n        /* \"#utility.yul\":566:575   */\n      dup4\n        /* \"#utility.yul\":562:579   */\n      add\n        /* \"#utility.yul\":553:559   */\n      dup5\n        /* \"#utility.yul\":509:580   */\n      tag_47\n      jump\t// in\n    tag_69:\n        /* \"#utility.yul\":365:587   */\n      swap3\n      swap2\n      pop\n      pop\n      jump\t// out\n        /* \"#utility.yul\":593:679   */\n    tag_48:\n        /* \"#utility.yul\":628:635   */\n      0x00\n        /* \"#utility.yul\":668:672   */\n      0xff\n        /* \"#utility.yul\":661:666   */\n      dup3\n        /* \"#utility.yul\":657:673   */\n      and\n        /* \"#utility.yul\":646:673   */\n      swap1\n      pop\n        /* \"#utility.yul\":593:679   */\n      swap2\n      swap1\n      pop\n      jump\t// out\n        /* \"#utility.yul\":685:797   */\n    tag_49:\n        /* \"#utility.yul\":768:790   */\n      tag_72\n        /* \"#utility.yul\":784:789   */\n      dup2\n        /* \"#utility.yul\":768:790   */\n      tag_48\n      jump\t// in\n    tag_72:\n        /* \"#utility.yul\":763:766   */\n      dup3\n        /* \"#utility.yul\":756:791   */\n      mstore\n        /* \"#utility.yul\":685:797   */\n      pop\n      pop\n      jump\t// out\n        /* \"#utility.yul\":803:1017   */\n    tag_16:\n        /* \"#utility.yul\":892:896   */\n      0x00\n        /* \"#utility.yul\":930:932   */\n      0x20\n        /* \"#utility.yul\":919:928   */\n      dup3\n        /* \"#utility.yul\":915:933   */\n      add\n        /* \"#utility.yul\":907:933   */\n      swap1\n      pop\n        /* \"#utility.yul\":943:1010   */\n      tag_74\n        /* \"#utility.yul\":1007:1008   */\n      0x00\n        /* \"#utility.yul\":996:1005   */\n      dup4\n        /* \"#utility.yul\":992:1009   */\n      add\n        /* \"#utility.yul\":983:989   */\n      dup5\n        /* \"#utility.yul\":943:1010   */\n      tag_49\n      jump\t// in\n    tag_74:\n        /* \"#utility.yul\":803:1017   */\n      swap3\n      swap2\n      pop\n      pop\n      jump\t// out\n        /* \"#utility.yul\":1104:1221   */\n    tag_51:\n        /* \"#utility.yul\":1213:1214   */\n      0x00\n        /* \"#utility.yul\":1210:1211   */\n      dup1\n        /* \"#utility.yul\":1203:1215   */\n      revert\n        /* \"#utility.yul\":1350:1468   */\n    tag_53:\n        /* \"#utility.yul\":1421:1443   */\n      tag_79\n        /* \"#utility.yul\":1437:1442   */\n      dup2\n        /* \"#utility.yul\":1421:1443   */\n      tag_48\n      jump\t// in\n    tag_79:\n        /* \"#utility.yul\":1414:1419   */\n      dup2\n        /* \"#utility.yul\":1411:1444   */\n      eq\n        /* \"#utility.yul\":1401:1462   */\n      tag_80\n      jumpi\n        /* \"#utility.yul\":1458:1459   */\n      0x00\n        /* \"#utility.yul\":1455:1456   */\n      dup1\n        /* \"#utility.yul\":1448:1460   */\n      revert\n        /* \"#utility.yul\":1401:1462   */\n    tag_80:\n        /* \"#utility.yul\":1350:1468   */\n      pop\n      jump\t// out\n        /* \"#utility.yul\":1474:1609   */\n    tag_54:\n        /* \"#utility.yul\":1518:1523   */\n      0x00\n        /* \"#utility.yul\":1556:1562   */\n      dup2\n        /* \"#utility.yul\":1543:1563   */\n      calldataload\n        /* \"#utility.yul\":1534:1563   */\n      swap1\n      pop\n        /* \"#utility.yul\":1572:1603   */\n      tag_82\n        /* \"#utility.yul\":1597:1602   */\n      dup2\n        /* \"#utility.yul\":1572:1603   */\n      tag_53\n      jump\t// in\n    tag_82:\n        /* \"#utility.yul\":1474:1609   */\n      swap3\n      swap2\n      pop\n      pop\n      jump\t// out\n        /* \"#utility.yul\":1615:2081   */\n    tag_19:\n        /* \"#utility.yul\":1679:1685   */\n      0x00\n        /* \"#utility.yul\":1687:1693   */\n      dup1\n        /* \"#utility.yul\":1736:1738   */\n      0x40\n        /* \"#utility.yul\":1724:1733   */\n      dup4\n        /* \"#utility.yul\":1715:1722   */\n      dup6\n        /* \"#utility.yul\":1711:1734   */\n      sub\n        /* \"#utility.yul\":1707:1739   */\n      slt\n        /* \"#utility.yul\":1704:1823   */\n      iszero\n      tag_84\n      jumpi\n        /* \"#utility.yul\":1742:1821   */\n      tag_85\n      tag_51\n      jump\t// in\n    tag_85:\n        /* \"#utility.yul\":1704:1823   */\n    tag_84:\n        /* \"#utility.yul\":1862:1863   */\n      0x00\n        /* \"#utility.yul\":1887:1938   */\n      tag_86\n        /* \"#utility.yul\":1930:1937   */\n      dup6\n        /* \"#utility.yul\":1921:1927   */\n      dup3\n        /* \"#utility.yul\":1910:1919   */\n      dup7\n        /* \"#utility.yul\":1906:1928   */\n      add\n        /* \"#utility.yul\":1887:1938   */\n      tag_54\n      jump\t// in\n    tag_86:\n        /* \"#utility.yul\":1877:1938   */\n      swap3\n      pop\n        /* \"#utility.yul\":1833:1948   */\n      pop\n        /* \"#utility.yul\":1987:1989   */\n      0x20\n        /* \"#utility.yul\":2013:2064   */\n      tag_87\n        /* \"#utility.yul\":2056:2063   */\n      dup6\n        /* \"#utility.yul\":2047:2053   */\n      dup3\n        /* \"#utility.yul\":2036:2045   */\n      dup7\n        /* \"#utility.yul\":2032:2054   */\n      add\n        /* \"#utility.yul\":2013:2064   */\n      tag_54\n      jump\t// in\n    tag_87:\n        /* \"#utility.yul\":2003:2064   */\n      swap2\n      pop\n        /* \"#utility.yul\":1958:2074   */\n      pop\n        /* \"#utility.yul\":1615:2081   */\n      swap3\n      pop\n      swap3\n      swap1\n      pop\n      jump\t// out\n        /* \"#utility.yul\":2087:2177   */\n    tag_55:\n        /* \"#utility.yul\":2121:2128   */\n      0x00\n        /* \"#utility.yul\":2164:2169   */\n      dup2\n        /* \"#utility.yul\":2157:2170   */\n      iszero\n        /* \"#utility.yul\":2150:2171   */\n      iszero\n        /* \"#utility.yul\":2139:2171   */\n      swap1\n      pop\n        /* \"#utility.yul\":2087:2177   */\n      swap2\n      swap1\n      pop\n      jump\t// out\n        /* \"#utility.yul\":2183:2292   */\n    tag_56:\n        /* \"#utility.yul\":2264:2285   */\n      tag_90\n        /* \"#utility.yul\":2279:2284   */\n      dup2\n        /* \"#utility.yul\":2264:2285   */\n      tag_55\n      jump\t// in\n    tag_90:\n        /* \"#utility.yul\":2259:2262   */\n      dup3\n        /* \"#utility.yul\":2252:2286   */\n      mstore\n        /* \"#utility.yul\":2183:2292   */\n      pop\n      pop\n      jump\t// out\n        /* \"#utility.yul\":2298:2508   */\n    tag_22:\n        /* \"#utility.yul\":2385:2389   */\n      0x00\n        /* \"#utility.yul\":2423:2425   */\n      0x20\n        /* \"#utility.yul\":2412:2421   */\n      dup3\n        /* \"#utility.yul\":2408:2426   */\n      add\n        /* \"#utility.yul\":2400:2426   */\n      swap1\n      pop\n        /* \"#utility.yul\":2436:2501   */\n      tag_92\n        /* \"#utility.yul\":2498:2499   */\n      0x00\n        /* \"#utility.yul\":2487:2496   */\n      dup4\n        /* \"#utility.yul\":2483:2500   */\n      add\n        /* \"#utility.yul\":2474:2480   */\n      dup5\n        /* \"#utility.yul\":2436:2501   */\n      tag_56\n      jump\t// in\n    tag_92:\n        /* \"#utility.yul\":2298:2508   */\n      swap3\n      swap2\n      pop\n      pop\n      jump\t// out\n        /* \"#utility.yul\":2514:2839   */\n    tag_28:\n        /* \"#utility.yul\":2571:2577   */\n      0x00\n        /* \"#utility.yul\":2620:2622   */\n      0x20\n        /* \"#utility.yul\":2608:2617   */\n      dup3\n        /* \"#utility.yul\":2599:2606   */\n      dup5\n        /* \"#utility.yul\":2595:2618   */\n      sub\n        /* \"#utility.yul\":2591:2623   */\n      slt\n        /* \"#utility.yul\":2588:2707   */\n      iszero\n      tag_94\n      jumpi\n        /* \"#utility.yul\":2626:2705   */\n      tag_95\n      tag_51\n      jump\t// in\n    tag_95:\n        /* \"#utility.yul\":2588:2707   */\n    tag_94:\n        /* \"#utility.yul\":2746:2747   */\n      0x00\n        /* \"#utility.yul\":2771:2822   */\n      tag_96\n        /* \"#utility.yul\":2814:2821   */\n      dup5\n        /* \"#utility.yul\":2805:2811   */\n      dup3\n        /* \"#utility.yul\":2794:2803   */\n      dup6\n        /* \"#utility.yul\":2790:2812   */\n      add\n        /* \"#utility.yul\":2771:2822   */\n      tag_54\n      jump\t// in\n    tag_96:\n        /* \"#utility.yul\":2761:2822   */\n      swap2\n      pop\n        /* \"#utility.yul\":2717:2832   */\n      pop\n        /* \"#utility.yul\":2514:2839   */\n      swap3\n      swap2\n      pop\n      pop\n      jump\t// out\n        /* \"#utility.yul\":2845:2967   */\n    tag_57:\n        /* \"#utility.yul\":2918:2942   */\n      tag_98\n        /* \"#utility.yul\":2936:2941   */\n      dup2\n        /* \"#utility.yul\":2918:2942   */\n      tag_46\n      jump\t// in\n    tag_98:\n        /* \"#utility.yul\":2911:2916   */\n      dup2\n        /* \"#utility.yul\":2908:2943   */\n      eq\n        /* \"#utility.yul\":2898:2961   */\n      tag_99\n      jumpi\n        /* \"#utility.yul\":2957:2958   */\n      0x00\n        /* \"#utility.yul\":2954:2955   */\n      dup1\n        /* \"#utility.yul\":2947:2959   */\n      revert\n        /* \"#utility.yul\":2898:2961   */\n    tag_99:\n        /* \"#utility.yul\":2845:2967   */\n      pop\n      jump\t// out\n        /* \"#utility.yul\":2973:3112   */\n    tag_58:\n        /* \"#utility.yul\":3019:3024   */\n      0x00\n        /* \"#utility.yul\":3057:3063   */\n      dup2\n        /* \"#utility.yul\":3044:3064   */\n      calldataload\n        /* \"#utility.yul\":3035:3064   */\n      swap1\n      pop\n        /* \"#utility.yul\":3073:3106   */\n      tag_101\n        /* \"#utility.yul\":3100:3105   */\n      dup2\n        /* \"#utility.yul\":3073:3106   */\n      tag_57\n      jump\t// in\n    tag_101:\n        /* \"#utility.yul\":2973:3112   */\n      swap3\n      swap2\n      pop\n      pop\n      jump\t// out\n        /* \"#utility.yul\":3118:3447   */\n    tag_32:\n        /* \"#utility.yul\":3177:3183   */\n      0x00\n        /* \"#utility.yul\":3226:3228   */\n      0x20\n        /* \"#utility.yul\":3214:3223   */\n      dup3\n        /* \"#utility.yul\":3205:3212   */\n      dup5\n        /* \"#utility.yul\":3201:3224   */\n      sub\n        /* \"#utility.yul\":3197:3229   */\n      slt\n        /* \"#utility.yul\":3194:3313   */\n      iszero\n      tag_103\n      jumpi\n        /* \"#utility.yul\":3232:3311   */\n      tag_104\n      tag_51\n      jump\t// in\n    tag_104:\n        /* \"#utility.yul\":3194:3313   */\n    tag_103:\n        /* \"#utility.yul\":3352:3353   */\n      0x00\n        /* \"#utility.yul\":3377:3430   */\n      tag_105\n        /* \"#utility.yul\":3422:3429   */\n      dup5\n        /* \"#utility.yul\":3413:3419   */\n      dup3\n        /* \"#utility.yul\":3402:3411   */\n      dup6\n        /* \"#utility.yul\":3398:3420   */\n      add\n        /* \"#utility.yul\":3377:3430   */\n      tag_58\n      jump\t// in\n    tag_105:\n        /* \"#utility.yul\":3367:3430   */\n      swap2\n      pop\n        /* \"#utility.yul\":3323:3440   */\n      pop\n        /* \"#utility.yul\":3118:3447   */\n      swap3\n      swap2\n      pop\n      pop\n      jump\t// out\n        /* \"#utility.yul\":3453:3622   */\n    tag_59:\n        /* \"#utility.yul\":3537:3548   */\n      0x00\n        /* \"#utility.yul\":3571:3577   */\n      dup3\n        /* \"#utility.yul\":3566:3569   */\n      dup3\n        /* \"#utility.yul\":3559:3578   */\n      mstore\n        /* \"#utility.yul\":3611:3615   */\n      0x20\n        /* \"#utility.yul\":3606:3609   */\n      dup3\n        /* \"#utility.yul\":3602:3616   */\n      add\n        /* \"#utility.yul\":3587:3616   */\n      swap1\n      pop\n        /* \"#utility.yul\":3453:3622   */\n      swap3\n      swap2\n      pop\n      pop\n      jump\t// out\n        /* \"#utility.yul\":3628:3797   */\n    tag_60:\n        /* \"#utility.yul\":3768:3789   */\n      0x746865206e756d20697320746f206c6167657200000000000000000000000000\n        /* \"#utility.yul\":3764:3765   */\n      0x00\n        /* \"#utility.yul\":3756:3762   */\n      dup3\n        /* \"#utility.yul\":3752:3766   */\n      add\n        /* \"#utility.yul\":3745:3790   */\n      mstore\n        /* \"#utility.yul\":3628:3797   */\n      pop\n      jump\t// out\n        /* \"#utility.yul\":3803:4169   */\n    tag_61:\n        /* \"#utility.yul\":3945:3948   */\n      0x00\n        /* \"#utility.yul\":3966:4033   */\n      tag_109\n        /* \"#utility.yul\":4030:4032   */\n      0x13\n        /* \"#utility.yul\":4025:4028   */\n      dup4\n        /* \"#utility.yul\":3966:4033   */\n      tag_59\n      jump\t// in\n    tag_109:\n        /* \"#utility.yul\":3959:4033   */\n      swap2\n      pop\n        /* \"#utility.yul\":4042:4135   */\n      tag_110\n        /* \"#utility.yul\":4131:4134   */\n      dup3\n        /* \"#utility.yul\":4042:4135   */\n      tag_60\n      jump\t// in\n    tag_110:\n        /* \"#utility.yul\":4160:4162   */\n      0x20\n        /* \"#utility.yul\":4155:4158   */\n      dup3\n        /* \"#utility.yul\":4151:4163   */\n      add\n        /* \"#utility.yul\":4144:4163   */\n      swap1\n      pop\n        /* \"#utility.yul\":3803:4169   */\n      swap2\n      swap1\n      pop\n      jump\t// out\n        /* \"#utility.yul\":4175:4594   */\n    tag_43:\n        /* \"#utility.yul\":4341:4345   */\n      0x00\n        /* \"#utility.yul\":4379:4381   */\n      0x20\n        /* \"#utility.yul\":4368:4377   */\n      dup3\n        /* \"#utility.yul\":4364:4382   */\n      add\n        /* \"#utility.yul\":4356:4382   */\n      swap1\n      pop\n        /* \"#utility.yul\":4428:4437   */\n      dup2\n        /* \"#utility.yul\":4422:4426   */\n      dup2\n        /* \"#utility.yul\":4418:4438   */\n      sub\n        /* \"#utility.yul\":4414:4415   */\n      0x00\n        /* \"#utility.yul\":4403:4412   */\n      dup4\n        /* \"#utility.yul\":4399:4416   */\n      add\n        /* \"#utility.yul\":4392:4439   */\n      mstore\n        /* \"#utility.yul\":4456:4587   */\n      tag_112\n        /* \"#utility.yul\":4582:4586   */\n      dup2\n        /* \"#utility.yul\":4456:4587   */\n      tag_61\n      jump\t// in\n    tag_112:\n        /* \"#utility.yul\":4448:4587   */\n      swap1\n      pop\n        /* \"#utility.yul\":4175:4594   */\n      swap2\n      swap1\n      pop\n      jump\t// out\n\n    auxdata: 0xa2646970667358221220c260d21b7aae7d65ae309f74cd870e9385363732a61f1cec06cb35783bf27b2c64736f6c634300081a0033\n}\n",
				"bytecode": {
					"linkReferences": {},
					"object": "6080604052348015600e575f80fd5b5061049a8061001c5f395ff3fe608060405234801561000f575f80fd5b5060043610610060575f3560e01c806338cc4831146100645780633e486bfc146100825780635e0fc54a146100a057806387cdeeef146100d0578063c23e972b146100ee578063e30081a01461010a575b5f80fd5b61006c610126565b6040516100799190610280565b60405180910390f35b61008a61014e565b60405161009791906102b4565b60405180910390f35b6100ba60048036038101906100b591906102fb565b610163565b6040516100c79190610353565b60405180910390f35b6100d8610191565b6040516100e591906102b4565b60405180910390f35b6101086004803603810190610103919061036c565b610199565b005b610124600480360381019061011f91906103c1565b6101fe565b005b5f60025f9054906101000a900473ffffffffffffffffffffffffffffffffffffffff16905090565b5f8060019054906101000a900460ff16905090565b5f8160ff168360ff161161018657600260149054906101000a900460ff16610189565b60015b905092915050565b5f60ff905090565b60ff80168160ff16116101e1576040517f08c379a00000000000000000000000000000000000000000000000000000000081526004016101d890610446565b60405180910390fd5b805f60016101000a81548160ff021916908360ff16021790555050565b8060025f6101000a81548173ffffffffffffffffffffffffffffffffffffffff021916908373ffffffffffffffffffffffffffffffffffffffff16021790555050565b5f73ffffffffffffffffffffffffffffffffffffffff82169050919050565b5f61026a82610241565b9050919050565b61027a81610260565b82525050565b5f6020820190506102935f830184610271565b92915050565b5f60ff82169050919050565b6102ae81610299565b82525050565b5f6020820190506102c75f8301846102a5565b92915050565b5f80fd5b6102da81610299565b81146102e4575f80fd5b50565b5f813590506102f5816102d1565b92915050565b5f8060408385031215610311576103106102cd565b5b5f61031e858286016102e7565b925050602061032f858286016102e7565b9150509250929050565b5f8115159050919050565b61034d81610339565b82525050565b5f6020820190506103665f830184610344565b92915050565b5f60208284031215610381576103806102cd565b5b5f61038e848285016102e7565b91505092915050565b6103a081610260565b81146103aa575f80fd5b50565b5f813590506103bb81610397565b92915050565b5f602082840312156103d6576103d56102cd565b5b5f6103e3848285016103ad565b91505092915050565b5f82825260208201905092915050565b7f746865206e756d20697320746f206c61676572000000000000000000000000005f82015250565b5f6104306013836103ec565b915061043b826103fc565b602082019050919050565b5f6020820190508181035f83015261045d81610424565b905091905056fea2646970667358221220c260d21b7aae7d65ae309f74cd870e9385363732a61f1cec06cb35783bf27b2c64736f6c634300081a0033",
					"opcodes": "PUSH1 0x80 PUSH1 0x40 MSTORE CALLVALUE DUP1 ISZERO PUSH1 0xE JUMPI PUSH0 DUP1 REVERT JUMPDEST POP PUSH2 0x49A DUP1 PUSH2 0x1C PUSH0 CODECOPY PUSH0 RETURN INVALID PUSH1 0x80 PUSH1 0x40 MSTORE CALLVALUE DUP1 ISZERO PUSH2 0xF JUMPI PUSH0 DUP1 REVERT JUMPDEST POP PUSH1 0x4 CALLDATASIZE LT PUSH2 0x60 JUMPI PUSH0 CALLDATALOAD PUSH1 0xE0 SHR DUP1 PUSH4 0x38CC4831 EQ PUSH2 0x64 JUMPI DUP1 PUSH4 0x3E486BFC EQ PUSH2 0x82 JUMPI DUP1 PUSH4 0x5E0FC54A EQ PUSH2 0xA0 JUMPI DUP1 PUSH4 0x87CDEEEF EQ PUSH2 0xD0 JUMPI DUP1 PUSH4 0xC23E972B EQ PUSH2 0xEE JUMPI DUP1 PUSH4 0xE30081A0 EQ PUSH2 0x10A JUMPI JUMPDEST PUSH0 DUP1 REVERT JUMPDEST PUSH2 0x6C PUSH2 0x126 JUMP JUMPDEST PUSH1 0x40 MLOAD PUSH2 0x79 SWAP2 SWAP1 PUSH2 0x280 JUMP JUMPDEST PUSH1 0x40 MLOAD DUP1 SWAP2 SUB SWAP1 RETURN JUMPDEST PUSH2 0x8A PUSH2 0x14E JUMP JUMPDEST PUSH1 0x40 MLOAD PUSH2 0x97 SWAP2 SWAP1 PUSH2 0x2B4 JUMP JUMPDEST PUSH1 0x40 MLOAD DUP1 SWAP2 SUB SWAP1 RETURN JUMPDEST PUSH2 0xBA PUSH1 0x4 DUP1 CALLDATASIZE SUB DUP2 ADD SWAP1 PUSH2 0xB5 SWAP2 SWAP1 PUSH2 0x2FB JUMP JUMPDEST PUSH2 0x163 JUMP JUMPDEST PUSH1 0x40 MLOAD PUSH2 0xC7 SWAP2 SWAP1 PUSH2 0x353 JUMP JUMPDEST PUSH1 0x40 MLOAD DUP1 SWAP2 SUB SWAP1 RETURN JUMPDEST PUSH2 0xD8 PUSH2 0x191 JUMP JUMPDEST PUSH1 0x40 MLOAD PUSH2 0xE5 SWAP2 SWAP1 PUSH2 0x2B4 JUMP JUMPDEST PUSH1 0x40 MLOAD DUP1 SWAP2 SUB SWAP1 RETURN JUMPDEST PUSH2 0x108 PUSH1 0x4 DUP1 CALLDATASIZE SUB DUP2 ADD SWAP1 PUSH2 0x103 SWAP2 SWAP1 PUSH2 0x36C JUMP JUMPDEST PUSH2 0x199 JUMP JUMPDEST STOP JUMPDEST PUSH2 0x124 PUSH1 0x4 DUP1 CALLDATASIZE SUB DUP2 ADD SWAP1 PUSH2 0x11F SWAP2 SWAP1 PUSH2 0x3C1 JUMP JUMPDEST PUSH2 0x1FE JUMP JUMPDEST STOP JUMPDEST PUSH0 PUSH1 0x2 PUSH0 SWAP1 SLOAD SWAP1 PUSH2 0x100 EXP SWAP1 DIV PUSH20 0xFFFFFFFFFFFFFFFFFFFFFFFFFFFFFFFFFFFFFFFF AND SWAP1 POP SWAP1 JUMP JUMPDEST PUSH0 DUP1 PUSH1 0x1 SWAP1 SLOAD SWAP1 PUSH2 0x100 EXP SWAP1 DIV PUSH1 0xFF AND SWAP1 POP SWAP1 JUMP JUMPDEST PUSH0 DUP2 PUSH1 0xFF AND DUP4 PUSH1 0xFF AND GT PUSH2 0x186 JUMPI PUSH1 0x2 PUSH1 0x14 SWAP1 SLOAD SWAP1 PUSH2 0x100 EXP SWAP1 DIV PUSH1 0xFF AND PUSH2 0x189 JUMP JUMPDEST PUSH1 0x1 JUMPDEST SWAP1 POP SWAP3 SWAP2 POP POP JUMP JUMPDEST PUSH0 PUSH1 0xFF SWAP1 POP SWAP1 JUMP JUMPDEST PUSH1 0xFF DUP1 AND DUP2 PUSH1 0xFF AND GT PUSH2 0x1E1 JUMPI PUSH1 0x40 MLOAD PUSH32 0x8C379A000000000000000000000000000000000000000000000000000000000 DUP2 MSTORE PUSH1 0x4 ADD PUSH2 0x1D8 SWAP1 PUSH2 0x446 JUMP JUMPDEST PUSH1 0x40 MLOAD DUP1 SWAP2 SUB SWAP1 REVERT JUMPDEST DUP1 PUSH0 PUSH1 0x1 PUSH2 0x100 EXP DUP2 SLOAD DUP2 PUSH1 0xFF MUL NOT AND SWAP1 DUP4 PUSH1 0xFF AND MUL OR SWAP1 SSTORE POP POP JUMP JUMPDEST DUP1 PUSH1 0x2 PUSH0 PUSH2 0x100 EXP DUP2 SLOAD DUP2 PUSH20 0xFFFFFFFFFFFFFFFFFFFFFFFFFFFFFFFFFFFFFFFF MUL NOT AND SWAP1 DUP4 PUSH20 0xFFFFFFFFFFFFFFFFFFFFFFFFFFFFFFFFFFFFFFFF AND MUL OR SWAP1 SSTORE POP POP JUMP JUMPDEST PUSH0 PUSH20 0xFFFFFFFFFFFFFFFFFFFFFFFFFFFFFFFFFFFFFFFF DUP3 AND SWAP1 POP SWAP2 SWAP1 POP JUMP JUMPDEST PUSH0 PUSH2 0x26A DUP3 PUSH2 0x241 JUMP JUMPDEST SWAP1 POP SWAP2 SWAP1 POP JUMP JUMPDEST PUSH2 0x27A DUP2 PUSH2 0x260 JUMP JUMPDEST DUP3 MSTORE POP POP JUMP JUMPDEST PUSH0 PUSH1 0x20 DUP3 ADD SWAP1 POP PUSH2 0x293 PUSH0 DUP4 ADD DUP5 PUSH2 0x271 JUMP JUMPDEST SWAP3 SWAP2 POP POP JUMP JUMPDEST PUSH0 PUSH1 0xFF DUP3 AND SWAP1 POP SWAP2 SWAP1 POP JUMP JUMPDEST PUSH2 0x2AE DUP2 PUSH2 0x299 JUMP JUMPDEST DUP3 MSTORE POP POP JUMP JUMPDEST PUSH0 PUSH1 0x20 DUP3 ADD SWAP1 POP PUSH2 0x2C7 PUSH0 DUP4 ADD DUP5 PUSH2 0x2A5 JUMP JUMPDEST SWAP3 SWAP2 POP POP JUMP JUMPDEST PUSH0 DUP1 REVERT JUMPDEST PUSH2 0x2DA DUP2 PUSH2 0x299 JUMP JUMPDEST DUP2 EQ PUSH2 0x2E4 JUMPI PUSH0 DUP1 REVERT JUMPDEST POP JUMP JUMPDEST PUSH0 DUP2 CALLDATALOAD SWAP1 POP PUSH2 0x2F5 DUP2 PUSH2 0x2D1 JUMP JUMPDEST SWAP3 SWAP2 POP POP JUMP JUMPDEST PUSH0 DUP1 PUSH1 0x40 DUP4 DUP6 SUB SLT ISZERO PUSH2 0x311 JUMPI PUSH2 0x310 PUSH2 0x2CD JUMP JUMPDEST JUMPDEST PUSH0 PUSH2 0x31E DUP6 DUP3 DUP7 ADD PUSH2 0x2E7 JUMP JUMPDEST SWAP3 POP POP PUSH1 0x20 PUSH2 0x32F DUP6 DUP3 DUP7 ADD PUSH2 0x2E7 JUMP JUMPDEST SWAP2 POP POP SWAP3 POP SWAP3 SWAP1 POP JUMP JUMPDEST PUSH0 DUP2 ISZERO ISZERO SWAP1 POP SWAP2 SWAP1 POP JUMP JUMPDEST PUSH2 0x34D DUP2 PUSH2 0x339 JUMP JUMPDEST DUP3 MSTORE POP POP JUMP JUMPDEST PUSH0 PUSH1 0x20 DUP3 ADD SWAP1 POP PUSH2 0x366 PUSH0 DUP4 ADD DUP5 PUSH2 0x344 JUMP JUMPDEST SWAP3 SWAP2 POP POP JUMP JUMPDEST PUSH0 PUSH1 0x20 DUP3 DUP5 SUB SLT ISZERO PUSH2 0x381 JUMPI PUSH2 0x380 PUSH2 0x2CD JUMP JUMPDEST JUMPDEST PUSH0 PUSH2 0x38E DUP5 DUP3 DUP6 ADD PUSH2 0x2E7 JUMP JUMPDEST SWAP2 POP POP SWAP3 SWAP2 POP POP JUMP JUMPDEST PUSH2 0x3A0 DUP2 PUSH2 0x260 JUMP JUMPDEST DUP2 EQ PUSH2 0x3AA JUMPI PUSH0 DUP1 REVERT JUMPDEST POP JUMP JUMPDEST PUSH0 DUP2 CALLDATALOAD SWAP1 POP PUSH2 0x3BB DUP2 PUSH2 0x397 JUMP JUMPDEST SWAP3 SWAP2 POP POP JUMP JUMPDEST PUSH0 PUSH1 0x20 DUP3 DUP5 SUB SLT ISZERO PUSH2 0x3D6 JUMPI PUSH2 0x3D5 PUSH2 0x2CD JUMP JUMPDEST JUMPDEST PUSH0 PUSH2 0x3E3 DUP5 DUP3 DUP6 ADD PUSH2 0x3AD JUMP JUMPDEST SWAP2 POP POP SWAP3 SWAP2 POP POP JUMP JUMPDEST PUSH0 DUP3 DUP3 MSTORE PUSH1 0x20 DUP3 ADD SWAP1 POP SWAP3 SWAP2 POP POP JUMP JUMPDEST PUSH32 0x746865206E756D20697320746F206C6167657200000000000000000000000000 PUSH0 DUP3 ADD MSTORE POP JUMP JUMPDEST PUSH0 PUSH2 0x430 PUSH1 0x13 DUP4 PUSH2 0x3EC JUMP JUMPDEST SWAP2 POP PUSH2 0x43B DUP3 PUSH2 0x3FC JUMP JUMPDEST PUSH1 0x20 DUP3 ADD SWAP1 POP SWAP2 SWAP1 POP JUMP JUMPDEST PUSH0 PUSH1 0x20 DUP3 ADD SWAP1 POP DUP2 DUP2 SUB PUSH0 DUP4 ADD MSTORE PUSH2 0x45D DUP2 PUSH2 0x424 JUMP JUMPDEST SWAP1 POP SWAP2 SWAP1 POP JUMP INVALID LOG2 PUSH5 0x6970667358 0x22 SLT KECCAK256 0xC2 PUSH1 0xD2 SHL PUSH27 0xAE7D65AE309F74CD870E9385363732A61F1CEC06CB35783BF27B2C PUSH5 0x736F6C6343 STOP ADDMOD BYTE STOP CALLER "
				},
				"gasEstimates": {
					"creation": {
						"codeDepositCost": "235600",
						"executionCost": "273",
						"totalCost": "235873"
					},
					"external": {
						"getAddress()": "2493",
						"getCompareNum(uint8,uint8)": "infinite",
						"getU8()": "2524",
						"setAddress(address)": "24803",
						"typeMax()": "382",
						"u8Rs(uint8)": "24824"
					}
				},
				"methodIdentifiers": {
					"getAddress()": "38cc4831",
					"getCompareNum(uint8,uint8)": "5e0fc54a",
					"getU8()": "3e486bfc",
					"setAddress(address)": "e30081a0",
					"typeMax()": "87cdeeef",
					"u8Rs(uint8)": "c23e972b"
				}
			},
			"storageLayout": {
				"storage": [
					{
						"astId": 3,
						"contract": "contracts/myContacts/3_primitive.sol:Primitive",
						"label": "i8",
						"offset": 0,
						"slot": "0",
						"type": "t_int8"
					},
					{
						"astId": 5,
						"contract": "contracts/myContacts/3_primitive.sol:Primitive",
						"label": "u8",
						"offset": 1,
						"slot": "0",
						"type": "t_uint8"
					},
					{
						"astId": 7,
						"contract": "contracts/myContacts/3_primitive.sol:Primitive",
						"label": "u16",
						"offset": 2,
						"slot": "0",
						"type": "t_uint16"
					},
					{
						"astId": 9,
						"contract": "contracts/myContacts/3_primitive.sol:Primitive",
						"label": "u256",
						"offset": 0,
						"slot": "1",
						"type": "t_uint256"
					},
					{
						"astId": 11,
						"contract": "contracts/myContacts/3_primitive.sol:Primitive",
						"label": "add",
						"offset": 0,
						"slot": "2",
						"type": "t_address"
					},
					{
						"astId": 13,
						"contract": "contracts/myContacts/3_primitive.sol:Primitive",
						"label": "flag",
						"offset": 20,
						"slot": "2",
						"type": "t_bool"
					}
				],
				"types": {
					"t_address": {
						"encoding": "inplace",
						"label": "address",
						"numberOfBytes": "20"
					},
					"t_bool": {
						"encoding": "inplace",
						"label": "bool",
						"numberOfBytes": "1"
					},
					"t_int8": {
						"encoding": "inplace",
						"label": "int8",
						"numberOfBytes": "1"
					},
					"t_uint16": {
						"encoding": "inplace",
						"label": "uint16",
						"numberOfBytes": "2"
					},
					"t_uint256": {
						"encoding": "inplace",
						"label": "uint256",
						"numberOfBytes": "32"
					},
					"t_uint8": {
						"encoding": "inplace",
						"label": "uint8",
						"numberOfBytes": "1"
					}
				}
			},
			"userdoc": {
				"kind": "user",
				"methods": {},
				"version": 1
			}
		}
	}
}