{
	"contracts/myContacts/9_etherUnits.sol": {
		"EtherUints": {
			"abi": [
				{
					"inputs": [
						{
							"internalType": "uint256",
							"name": "types",
							"type": "uint256"
						}
					],
					"name": "get",
					"outputs": [
						{
							"internalType": "uint256",
							"name": "",
							"type": "uint256"
						}
					],
					"stateMutability": "view",
					"type": "function"
				},
				{
					"inputs": [],
					"name": "oneEther",
					"outputs": [
						{
							"internalType": "uint256",
							"name": "",
							"type": "uint256"
						}
					],
					"stateMutability": "view",
					"type": "function"
				},
				{
					"inputs": [],
					"name": "oneGwei",
					"outputs": [
						{
							"internalType": "uint256",
							"name": "",
							"type": "uint256"
						}
					],
					"stateMutability": "view",
					"type": "function"
				},
				{
					"inputs": [],
					"name": "oneWei",
					"outputs": [
						{
							"internalType": "uint256",
							"name": "",
							"type": "uint256"
						}
					],
					"stateMutability": "view",
					"type": "function"
				}
			],
			"devdoc": {
				"kind": "dev",
				"methods": {},
				"version": 1
			},
			"evm": {
				"assembly": "    /* \"contracts/myContacts/9_etherUnits.sol\":60:448  contract EtherUints{... */\n  mstore(0x40, 0x80)\n    /* \"contracts/myContacts/9_etherUnits.sol\":112:117  1 wei */\n  0x01\n    /* \"contracts/myContacts/9_etherUnits.sol\":88:117  uint256 public oneWei = 1 wei */\n  0x00\n  sstore\n    /* \"contracts/myContacts/9_etherUnits.sol\":151:157  1 gwei */\n  0x3b9aca00\n    /* \"contracts/myContacts/9_etherUnits.sol\":126:157  uint256 public oneGwei = 1 gwei */\n  0x01\n  sstore\n    /* \"contracts/myContacts/9_etherUnits.sol\":192:199  1 ether */\n  0x0de0b6b3a7640000\n    /* \"contracts/myContacts/9_etherUnits.sol\":166:199  uint256 public oneEther = 1 ether */\n  0x02\n  sstore\n    /* \"contracts/myContacts/9_etherUnits.sol\":60:448  contract EtherUints{... */\n  callvalue\n  dup1\n  iszero\n  tag_1\n  jumpi\n  0x00\n  dup1\n  revert\ntag_1:\n  pop\n  dataSize(sub_0)\n  dup1\n  dataOffset(sub_0)\n  0x00\n  codecopy\n  0x00\n  return\nstop\n\nsub_0: assembly {\n        /* \"contracts/myContacts/9_etherUnits.sol\":60:448  contract EtherUints{... */\n      mstore(0x40, 0x80)\n      callvalue\n      dup1\n      iszero\n      tag_1\n      jumpi\n      0x00\n      dup1\n      revert\n    tag_1:\n      pop\n      jumpi(tag_2, lt(calldatasize, 0x04))\n      shr(0xe0, calldataload(0x00))\n      dup1\n      0x4fb2e0be\n      eq\n      tag_3\n      jumpi\n      dup1\n      0x8e50b65c\n      eq\n      tag_4\n      jumpi\n      dup1\n      0x9507d39a\n      eq\n      tag_5\n      jumpi\n      dup1\n      0xd297a89f\n      eq\n      tag_6\n      jumpi\n    tag_2:\n      0x00\n      dup1\n      revert\n        /* \"contracts/myContacts/9_etherUnits.sol\":88:117  uint256 public oneWei = 1 wei */\n    tag_3:\n      tag_7\n      tag_8\n      jump\t// in\n    tag_7:\n      mload(0x40)\n      tag_9\n      swap2\n      swap1\n      tag_10\n      jump\t// in\n    tag_9:\n      mload(0x40)\n      dup1\n      swap2\n      sub\n      swap1\n      return\n        /* \"contracts/myContacts/9_etherUnits.sol\":126:157  uint256 public oneGwei = 1 gwei */\n    tag_4:\n      tag_11\n      tag_12\n      jump\t// in\n    tag_11:\n      mload(0x40)\n      tag_13\n      swap2\n      swap1\n      tag_10\n      jump\t// in\n    tag_13:\n      mload(0x40)\n      dup1\n      swap2\n      sub\n      swap1\n      return\n        /* \"contracts/myContacts/9_etherUnits.sol\":208:441  function get(uint types ) public view  returns(uint256){... */\n    tag_5:\n      tag_14\n      0x04\n      dup1\n      calldatasize\n      sub\n      dup2\n      add\n      swap1\n      tag_15\n      swap2\n      swap1\n      tag_16\n      jump\t// in\n    tag_15:\n      tag_17\n      jump\t// in\n    tag_14:\n      mload(0x40)\n      tag_18\n      swap2\n      swap1\n      tag_10\n      jump\t// in\n    tag_18:\n      mload(0x40)\n      dup1\n      swap2\n      sub\n      swap1\n      return\n        /* \"contracts/myContacts/9_etherUnits.sol\":166:199  uint256 public oneEther = 1 ether */\n    tag_6:\n      tag_19\n      tag_20\n      jump\t// in\n    tag_19:\n      mload(0x40)\n      tag_21\n      swap2\n      swap1\n      tag_10\n      jump\t// in\n    tag_21:\n      mload(0x40)\n      dup1\n      swap2\n      sub\n      swap1\n      return\n        /* \"contracts/myContacts/9_etherUnits.sol\":88:117  uint256 public oneWei = 1 wei */\n    tag_8:\n      sload(0x00)\n      dup2\n      jump\t// out\n        /* \"contracts/myContacts/9_etherUnits.sol\":126:157  uint256 public oneGwei = 1 gwei */\n    tag_12:\n      sload(0x01)\n      dup2\n      jump\t// out\n        /* \"contracts/myContacts/9_etherUnits.sol\":208:441  function get(uint types ) public view  returns(uint256){... */\n    tag_17:\n        /* \"contracts/myContacts/9_etherUnits.sol\":255:262  uint256 */\n      0x00\n        /* \"contracts/myContacts/9_etherUnits.sol\":280:285  types */\n      dup2\n        /* \"contracts/myContacts/9_etherUnits.sol\":277:278  1 */\n      0x01\n        /* \"contracts/myContacts/9_etherUnits.sol\":277:285  1==types */\n      sub\n        /* \"contracts/myContacts/9_etherUnits.sol\":274:432  if(1==types){... */\n      tag_23\n      jumpi\n        /* \"contracts/myContacts/9_etherUnits.sol\":308:315  oneGwei */\n      sload(0x01)\n        /* \"contracts/myContacts/9_etherUnits.sol\":301:315  return oneGwei */\n      swap1\n      pop\n      jump(tag_22)\n        /* \"contracts/myContacts/9_etherUnits.sol\":274:432  if(1==types){... */\n    tag_23:\n        /* \"contracts/myContacts/9_etherUnits.sol\":339:344  types */\n      dup2\n        /* \"contracts/myContacts/9_etherUnits.sol\":336:337  2 */\n      0x02\n        /* \"contracts/myContacts/9_etherUnits.sol\":336:344  2==types */\n      sub\n        /* \"contracts/myContacts/9_etherUnits.sol\":333:432  if(2==types){... */\n      tag_25\n      jumpi\n        /* \"contracts/myContacts/9_etherUnits.sol\":367:375  oneEther */\n      sload(0x02)\n        /* \"contracts/myContacts/9_etherUnits.sol\":360:375  return oneEther */\n      swap1\n      pop\n      jump(tag_22)\n        /* \"contracts/myContacts/9_etherUnits.sol\":333:432  if(2==types){... */\n    tag_25:\n        /* \"contracts/myContacts/9_etherUnits.sol\":414:420  oneWei */\n      sload(0x00)\n        /* \"contracts/myContacts/9_etherUnits.sol\":407:420  return oneWei */\n      swap1\n      pop\n        /* \"contracts/myContacts/9_etherUnits.sol\":208:441  function get(uint types ) public view  returns(uint256){... */\n    tag_22:\n      swap2\n      swap1\n      pop\n      jump\t// out\n        /* \"contracts/myContacts/9_etherUnits.sol\":166:199  uint256 public oneEther = 1 ether */\n    tag_20:\n      sload(0x02)\n      dup2\n      jump\t// out\n        /* \"#utility.yul\":7:84   */\n    tag_27:\n        /* \"#utility.yul\":44:51   */\n      0x00\n        /* \"#utility.yul\":73:78   */\n      dup2\n        /* \"#utility.yul\":62:78   */\n      swap1\n      pop\n        /* \"#utility.yul\":7:84   */\n      swap2\n      swap1\n      pop\n      jump\t// out\n        /* \"#utility.yul\":90:208   */\n    tag_28:\n        /* \"#utility.yul\":177:201   */\n      tag_37\n        /* \"#utility.yul\":195:200   */\n      dup2\n        /* \"#utility.yul\":177:201   */\n      tag_27\n      jump\t// in\n    tag_37:\n        /* \"#utility.yul\":172:175   */\n      dup3\n        /* \"#utility.yul\":165:202   */\n      mstore\n        /* \"#utility.yul\":90:208   */\n      pop\n      pop\n      jump\t// out\n        /* \"#utility.yul\":214:436   */\n    tag_10:\n        /* \"#utility.yul\":307:311   */\n      0x00\n        /* \"#utility.yul\":345:347   */\n      0x20\n        /* \"#utility.yul\":334:343   */\n      dup3\n        /* \"#utility.yul\":330:348   */\n      add\n        /* \"#utility.yul\":322:348   */\n      swap1\n      pop\n        /* \"#utility.yul\":358:429   */\n      tag_39\n        /* \"#utility.yul\":426:427   */\n      0x00\n        /* \"#utility.yul\":415:424   */\n      dup4\n        /* \"#utility.yul\":411:428   */\n      add\n        /* \"#utility.yul\":402:408   */\n      dup5\n        /* \"#utility.yul\":358:429   */\n      tag_28\n      jump\t// in\n    tag_39:\n        /* \"#utility.yul\":214:436   */\n      swap3\n      swap2\n      pop\n      pop\n      jump\t// out\n        /* \"#utility.yul\":523:640   */\n    tag_30:\n        /* \"#utility.yul\":632:633   */\n      0x00\n        /* \"#utility.yul\":629:630   */\n      dup1\n        /* \"#utility.yul\":622:634   */\n      revert\n        /* \"#utility.yul\":769:891   */\n    tag_32:\n        /* \"#utility.yul\":842:866   */\n      tag_44\n        /* \"#utility.yul\":860:865   */\n      dup2\n        /* \"#utility.yul\":842:866   */\n      tag_27\n      jump\t// in\n    tag_44:\n        /* \"#utility.yul\":835:840   */\n      dup2\n        /* \"#utility.yul\":832:867   */\n      eq\n        /* \"#utility.yul\":822:885   */\n      tag_45\n      jumpi\n        /* \"#utility.yul\":881:882   */\n      0x00\n        /* \"#utility.yul\":878:879   */\n      dup1\n        /* \"#utility.yul\":871:883   */\n      revert\n        /* \"#utility.yul\":822:885   */\n    tag_45:\n        /* \"#utility.yul\":769:891   */\n      pop\n      jump\t// out\n        /* \"#utility.yul\":897:1036   */\n    tag_33:\n        /* \"#utility.yul\":943:948   */\n      0x00\n        /* \"#utility.yul\":981:987   */\n      dup2\n        /* \"#utility.yul\":968:988   */\n      calldataload\n        /* \"#utility.yul\":959:988   */\n      swap1\n      pop\n        /* \"#utility.yul\":997:1030   */\n      tag_47\n        /* \"#utility.yul\":1024:1029   */\n      dup2\n        /* \"#utility.yul\":997:1030   */\n      tag_32\n      jump\t// in\n    tag_47:\n        /* \"#utility.yul\":897:1036   */\n      swap3\n      swap2\n      pop\n      pop\n      jump\t// out\n        /* \"#utility.yul\":1042:1371   */\n    tag_16:\n        /* \"#utility.yul\":1101:1107   */\n      0x00\n        /* \"#utility.yul\":1150:1152   */\n      0x20\n        /* \"#utility.yul\":1138:1147   */\n      dup3\n        /* \"#utility.yul\":1129:1136   */\n      dup5\n        /* \"#utility.yul\":1125:1148   */\n      sub\n        /* \"#utility.yul\":1121:1153   */\n      slt\n        /* \"#utility.yul\":1118:1237   */\n      iszero\n      tag_49\n      jumpi\n        /* \"#utility.yul\":1156:1235   */\n      tag_50\n      tag_30\n      jump\t// in\n    tag_50:\n        /* \"#utility.yul\":1118:1237   */\n    tag_49:\n        /* \"#utility.yul\":1276:1277   */\n      0x00\n        /* \"#utility.yul\":1301:1354   */\n      tag_51\n        /* \"#utility.yul\":1346:1353   */\n      dup5\n        /* \"#utility.yul\":1337:1343   */\n      dup3\n        /* \"#utility.yul\":1326:1335   */\n      dup6\n        /* \"#utility.yul\":1322:1344   */\n      add\n        /* \"#utility.yul\":1301:1354   */\n      tag_33\n      jump\t// in\n    tag_51:\n        /* \"#utility.yul\":1291:1354   */\n      swap2\n      pop\n        /* \"#utility.yul\":1247:1364   */\n      pop\n        /* \"#utility.yul\":1042:1371   */\n      swap3\n      swap2\n      pop\n      pop\n      jump\t// out\n\n    auxdata: 0xa2646970667358221220f3df18877892e014d5c371328a4640ce6118d08313cca1e9ef908811dd85bbe964736f6c634300081a0033\n}\n",
				"bytecode": {
					"linkReferences": {},
					"object": "608060405260015f55633b9aca00600155670de0b6b3a76400006002553480156026575f80fd5b506101d8806100345f395ff3fe608060405234801561000f575f80fd5b506004361061004a575f3560e01c80634fb2e0be1461004e5780638e50b65c1461006c5780639507d39a1461008a578063d297a89f146100ba575b5f80fd5b6100566100d8565b6040516100639190610130565b60405180910390f35b6100746100dd565b6040516100819190610130565b60405180910390f35b6100a4600480360381019061009f9190610177565b6100e3565b6040516100b19190610130565b60405180910390f35b6100c2610112565b6040516100cf9190610130565b60405180910390f35b5f5481565b60015481565b5f816001036100f657600154905061010d565b8160020361010857600254905061010d565b5f5490505b919050565b60025481565b5f819050919050565b61012a81610118565b82525050565b5f6020820190506101435f830184610121565b92915050565b5f80fd5b61015681610118565b8114610160575f80fd5b50565b5f813590506101718161014d565b92915050565b5f6020828403121561018c5761018b610149565b5b5f61019984828501610163565b9150509291505056fea2646970667358221220f3df18877892e014d5c371328a4640ce6118d08313cca1e9ef908811dd85bbe964736f6c634300081a0033",
					"opcodes": "PUSH1 0x80 PUSH1 0x40 MSTORE PUSH1 0x1 PUSH0 SSTORE PUSH4 0x3B9ACA00 PUSH1 0x1 SSTORE PUSH8 0xDE0B6B3A7640000 PUSH1 0x2 SSTORE CALLVALUE DUP1 ISZERO PUSH1 0x26 JUMPI PUSH0 DUP1 REVERT JUMPDEST POP PUSH2 0x1D8 DUP1 PUSH2 0x34 PUSH0 CODECOPY PUSH0 RETURN INVALID PUSH1 0x80 PUSH1 0x40 MSTORE CALLVALUE DUP1 ISZERO PUSH2 0xF JUMPI PUSH0 DUP1 REVERT JUMPDEST POP PUSH1 0x4 CALLDATASIZE LT PUSH2 0x4A JUMPI PUSH0 CALLDATALOAD PUSH1 0xE0 SHR DUP1 PUSH4 0x4FB2E0BE EQ PUSH2 0x4E JUMPI DUP1 PUSH4 0x8E50B65C EQ PUSH2 0x6C JUMPI DUP1 PUSH4 0x9507D39A EQ PUSH2 0x8A JUMPI DUP1 PUSH4 0xD297A89F EQ PUSH2 0xBA JUMPI JUMPDEST PUSH0 DUP1 REVERT JUMPDEST PUSH2 0x56 PUSH2 0xD8 JUMP JUMPDEST PUSH1 0x40 MLOAD PUSH2 0x63 SWAP2 SWAP1 PUSH2 0x130 JUMP JUMPDEST PUSH1 0x40 MLOAD DUP1 SWAP2 SUB SWAP1 RETURN JUMPDEST PUSH2 0x74 PUSH2 0xDD JUMP JUMPDEST PUSH1 0x40 MLOAD PUSH2 0x81 SWAP2 SWAP1 PUSH2 0x130 JUMP JUMPDEST PUSH1 0x40 MLOAD DUP1 SWAP2 SUB SWAP1 RETURN JUMPDEST PUSH2 0xA4 PUSH1 0x4 DUP1 CALLDATASIZE SUB DUP2 ADD SWAP1 PUSH2 0x9F SWAP2 SWAP1 PUSH2 0x177 JUMP JUMPDEST PUSH2 0xE3 JUMP JUMPDEST PUSH1 0x40 MLOAD PUSH2 0xB1 SWAP2 SWAP1 PUSH2 0x130 JUMP JUMPDEST PUSH1 0x40 MLOAD DUP1 SWAP2 SUB SWAP1 RETURN JUMPDEST PUSH2 0xC2 PUSH2 0x112 JUMP JUMPDEST PUSH1 0x40 MLOAD PUSH2 0xCF SWAP2 SWAP1 PUSH2 0x130 JUMP JUMPDEST PUSH1 0x40 MLOAD DUP1 SWAP2 SUB SWAP1 RETURN JUMPDEST PUSH0 SLOAD DUP2 JUMP JUMPDEST PUSH1 0x1 SLOAD DUP2 JUMP JUMPDEST PUSH0 DUP2 PUSH1 0x1 SUB PUSH2 0xF6 JUMPI PUSH1 0x1 SLOAD SWAP1 POP PUSH2 0x10D JUMP JUMPDEST DUP2 PUSH1 0x2 SUB PUSH2 0x108 JUMPI PUSH1 0x2 SLOAD SWAP1 POP PUSH2 0x10D JUMP JUMPDEST PUSH0 SLOAD SWAP1 POP JUMPDEST SWAP2 SWAP1 POP JUMP JUMPDEST PUSH1 0x2 SLOAD DUP2 JUMP JUMPDEST PUSH0 DUP2 SWAP1 POP SWAP2 SWAP1 POP JUMP JUMPDEST PUSH2 0x12A DUP2 PUSH2 0x118 JUMP JUMPDEST DUP3 MSTORE POP POP JUMP JUMPDEST PUSH0 PUSH1 0x20 DUP3 ADD SWAP1 POP PUSH2 0x143 PUSH0 DUP4 ADD DUP5 PUSH2 0x121 JUMP JUMPDEST SWAP3 SWAP2 POP POP JUMP JUMPDEST PUSH0 DUP1 REVERT JUMPDEST PUSH2 0x156 DUP2 PUSH2 0x118 JUMP JUMPDEST DUP2 EQ PUSH2 0x160 JUMPI PUSH0 DUP1 REVERT JUMPDEST POP JUMP JUMPDEST PUSH0 DUP2 CALLDATALOAD SWAP1 POP PUSH2 0x171 DUP2 PUSH2 0x14D JUMP JUMPDEST SWAP3 SWAP2 POP POP JUMP JUMPDEST PUSH0 PUSH1 0x20 DUP3 DUP5 SUB SLT ISZERO PUSH2 0x18C JUMPI PUSH2 0x18B PUSH2 0x149 JUMP JUMPDEST JUMPDEST PUSH0 PUSH2 0x199 DUP5 DUP3 DUP6 ADD PUSH2 0x163 JUMP JUMPDEST SWAP2 POP POP SWAP3 SWAP2 POP POP JUMP INVALID LOG2 PUSH5 0x6970667358 0x22 SLT KECCAK256 RETURN 0xDF XOR DUP8 PUSH25 0x92E014D5C371328A4640CE6118D08313CCA1E9EF908811DD85 0xBB 0xE9 PUSH5 0x736F6C6343 STOP ADDMOD BYTE STOP CALLER "
				},
				"gasEstimates": {
					"creation": {
						"codeDepositCost": "94400",
						"executionCost": "66456",
						"totalCost": "160856"
					},
					"external": {
						"get(uint256)": "infinite",
						"oneEther()": "2469",
						"oneGwei()": "2425",
						"oneWei()": "2402"
					}
				},
				"methodIdentifiers": {
					"get(uint256)": "9507d39a",
					"oneEther()": "d297a89f",
					"oneGwei()": "8e50b65c",
					"oneWei()": "4fb2e0be"
				}
			},
			"storageLayout": {
				"storage": [
					{
						"astId": 4,
						"contract": "contracts/myContacts/9_etherUnits.sol:EtherUints",
						"label": "oneWei",
						"offset": 0,
						"slot": "0",
						"type": "t_uint256"
					},
					{
						"astId": 7,
						"contract": "contracts/myContacts/9_etherUnits.sol:EtherUints",
						"label": "oneGwei",
						"offset": 0,
						"slot": "1",
						"type": "t_uint256"
					},
					{
						"astId": 10,
						"contract": "contracts/myContacts/9_etherUnits.sol:EtherUints",
						"label": "oneEther",
						"offset": 0,
						"slot": "2",
						"type": "t_uint256"
					}
				],
				"types": {
					"t_uint256": {
						"encoding": "inplace",
						"label": "uint256",
						"numberOfBytes": "32"
					}
				}
			},
			"userdoc": {
				"kind": "user",
				"methods": {},
				"version": 1
			}
		}
	}
}