{
	"contracts/myContacts/2_count.sol": {
		"Counter": {
			"abi": [
				{
					"inputs": [],
					"name": "add",
					"outputs": [
						{
							"internalType": "uint32",
							"name": "",
							"type": "uint32"
						}
					],
					"stateMutability": "nonpayable",
					"type": "function"
				},
				{
					"inputs": [],
					"name": "get",
					"outputs": [
						{
							"internalType": "uint32",
							"name": "",
							"type": "uint32"
						}
					],
					"stateMutability": "view",
					"type": "function"
				},
				{
					"inputs": [],
					"name": "sub",
					"outputs": [
						{
							"internalType": "uint32",
							"name": "",
							"type": "uint32"
						}
					],
					"stateMutability": "nonpayable",
					"type": "function"
				},
				{
					"inputs": [],
					"name": "sum",
					"outputs": [
						{
							"internalType": "uint32",
							"name": "",
							"type": "uint32"
						}
					],
					"stateMutability": "view",
					"type": "function"
				}
			],
			"devdoc": {
				"kind": "dev",
				"methods": {},
				"version": 1
			},
			"evm": {
				"assembly": "    /* \"contracts/myContacts/2_count.sol\":64:348  contract Counter {... */\n  mstore(0x40, 0x80)\n  callvalue\n  dup1\n  iszero\n  tag_1\n  jumpi\n  0x00\n  dup1\n  revert\ntag_1:\n  pop\n  dataSize(sub_0)\n  dup1\n  dataOffset(sub_0)\n  0x00\n  codecopy\n  0x00\n  return\nstop\n\nsub_0: assembly {\n        /* \"contracts/myContacts/2_count.sol\":64:348  contract Counter {... */\n      mstore(0x40, 0x80)\n      callvalue\n      dup1\n      iszero\n      tag_1\n      jumpi\n      0x00\n      dup1\n      revert\n    tag_1:\n      pop\n      jumpi(tag_2, lt(calldatasize, 0x04))\n      shr(0xe0, calldataload(0x00))\n      dup1\n      0x4f2be91f\n      eq\n      tag_3\n      jumpi\n      dup1\n      0x6d4ce63c\n      eq\n      tag_4\n      jumpi\n      dup1\n      0x853255cc\n      eq\n      tag_5\n      jumpi\n      dup1\n      0xc54124be\n      eq\n      tag_6\n      jumpi\n    tag_2:\n      0x00\n      dup1\n      revert\n        /* \"contracts/myContacts/2_count.sol\":116:186  function add() public returns (uint32){... */\n    tag_3:\n      tag_7\n      tag_8\n      jump\t// in\n    tag_7:\n      mload(0x40)\n      tag_9\n      swap2\n      swap1\n      tag_10\n      jump\t// in\n    tag_9:\n      mload(0x40)\n      dup1\n      swap2\n      sub\n      swap1\n      return\n        /* \"contracts/myContacts/2_count.sol\":271:343  function get() public view returns (uint32){... */\n    tag_4:\n      tag_11\n      tag_12\n      jump\t// in\n    tag_11:\n      mload(0x40)\n      tag_13\n      swap2\n      swap1\n      tag_10\n      jump\t// in\n    tag_13:\n      mload(0x40)\n      dup1\n      swap2\n      sub\n      swap1\n      return\n        /* \"contracts/myContacts/2_count.sol\":90:107  uint32 public sum */\n    tag_5:\n      tag_14\n      tag_15\n      jump\t// in\n    tag_14:\n      mload(0x40)\n      tag_16\n      swap2\n      swap1\n      tag_10\n      jump\t// in\n    tag_16:\n      mload(0x40)\n      dup1\n      swap2\n      sub\n      swap1\n      return\n        /* \"contracts/myContacts/2_count.sol\":194:263  function sub() public returns(uint32){... */\n    tag_6:\n      tag_17\n      tag_18\n      jump\t// in\n    tag_17:\n      mload(0x40)\n      tag_19\n      swap2\n      swap1\n      tag_10\n      jump\t// in\n    tag_19:\n      mload(0x40)\n      dup1\n      swap2\n      sub\n      swap1\n      return\n        /* \"contracts/myContacts/2_count.sol\":116:186  function add() public returns (uint32){... */\n    tag_8:\n        /* \"contracts/myContacts/2_count.sol\":147:153  uint32 */\n      0x00\n        /* \"contracts/myContacts/2_count.sol\":177:178  1 */\n      0x01\n        /* \"contracts/myContacts/2_count.sol\":172:175  sum */\n      0x00\n      dup1\n        /* \"contracts/myContacts/2_count.sol\":172:178  sum+=1 */\n      dup3\n      dup3\n      dup3\n      swap1\n      sload\n      swap1\n      0x0100\n      exp\n      swap1\n      div\n      0xffffffff\n      and\n      tag_21\n      swap2\n      swap1\n      tag_22\n      jump\t// in\n    tag_21:\n      swap3\n      pop\n      0x0100\n      exp\n      dup2\n      sload\n      dup2\n      0xffffffff\n      mul\n      not\n      and\n      swap1\n      dup4\n      0xffffffff\n      and\n      mul\n      or\n      swap1\n      sstore\n        /* \"contracts/myContacts/2_count.sol\":165:178  return sum+=1 */\n      swap1\n      pop\n        /* \"contracts/myContacts/2_count.sol\":116:186  function add() public returns (uint32){... */\n      swap1\n      jump\t// out\n        /* \"contracts/myContacts/2_count.sol\":271:343  function get() public view returns (uint32){... */\n    tag_12:\n        /* \"contracts/myContacts/2_count.sol\":307:313  uint32 */\n      0x00\n        /* \"contracts/myContacts/2_count.sol\":332:335  sum */\n      dup1\n      0x00\n      swap1\n      sload\n      swap1\n      0x0100\n      exp\n      swap1\n      div\n      0xffffffff\n      and\n        /* \"contracts/myContacts/2_count.sol\":325:335  return sum */\n      swap1\n      pop\n        /* \"contracts/myContacts/2_count.sol\":271:343  function get() public view returns (uint32){... */\n      swap1\n      jump\t// out\n        /* \"contracts/myContacts/2_count.sol\":90:107  uint32 public sum */\n    tag_15:\n      0x00\n      dup1\n      sload\n      swap1\n      0x0100\n      exp\n      swap1\n      div\n      0xffffffff\n      and\n      dup2\n      jump\t// out\n        /* \"contracts/myContacts/2_count.sol\":194:263  function sub() public returns(uint32){... */\n    tag_18:\n        /* \"contracts/myContacts/2_count.sol\":224:230  uint32 */\n      0x00\n        /* \"contracts/myContacts/2_count.sol\":254:255  1 */\n      0x01\n        /* \"contracts/myContacts/2_count.sol\":249:252  sum */\n      0x00\n      dup1\n        /* \"contracts/myContacts/2_count.sol\":249:255  sum-=1 */\n      dup3\n      dup3\n      dup3\n      swap1\n      sload\n      swap1\n      0x0100\n      exp\n      swap1\n      div\n      0xffffffff\n      and\n      tag_25\n      swap2\n      swap1\n      tag_26\n      jump\t// in\n    tag_25:\n      swap3\n      pop\n      0x0100\n      exp\n      dup2\n      sload\n      dup2\n      0xffffffff\n      mul\n      not\n      and\n      swap1\n      dup4\n      0xffffffff\n      and\n      mul\n      or\n      swap1\n      sstore\n        /* \"contracts/myContacts/2_count.sol\":242:255  return sum-=1 */\n      swap1\n      pop\n        /* \"contracts/myContacts/2_count.sol\":194:263  function sub() public returns(uint32){... */\n      swap1\n      jump\t// out\n        /* \"#utility.yul\":7:100   */\n    tag_27:\n        /* \"#utility.yul\":43:50   */\n      0x00\n        /* \"#utility.yul\":83:93   */\n      0xffffffff\n        /* \"#utility.yul\":76:81   */\n      dup3\n        /* \"#utility.yul\":72:94   */\n      and\n        /* \"#utility.yul\":61:94   */\n      swap1\n      pop\n        /* \"#utility.yul\":7:100   */\n      swap2\n      swap1\n      pop\n      jump\t// out\n        /* \"#utility.yul\":106:221   */\n    tag_28:\n        /* \"#utility.yul\":191:214   */\n      tag_33\n        /* \"#utility.yul\":208:213   */\n      dup2\n        /* \"#utility.yul\":191:214   */\n      tag_27\n      jump\t// in\n    tag_33:\n        /* \"#utility.yul\":186:189   */\n      dup3\n        /* \"#utility.yul\":179:215   */\n      mstore\n        /* \"#utility.yul\":106:221   */\n      pop\n      pop\n      jump\t// out\n        /* \"#utility.yul\":227:445   */\n    tag_10:\n        /* \"#utility.yul\":318:322   */\n      0x00\n        /* \"#utility.yul\":356:358   */\n      0x20\n        /* \"#utility.yul\":345:354   */\n      dup3\n        /* \"#utility.yul\":341:359   */\n      add\n        /* \"#utility.yul\":333:359   */\n      swap1\n      pop\n        /* \"#utility.yul\":369:438   */\n      tag_35\n        /* \"#utility.yul\":435:436   */\n      0x00\n        /* \"#utility.yul\":424:433   */\n      dup4\n        /* \"#utility.yul\":420:437   */\n      add\n        /* \"#utility.yul\":411:417   */\n      dup5\n        /* \"#utility.yul\":369:438   */\n      tag_28\n      jump\t// in\n    tag_35:\n        /* \"#utility.yul\":227:445   */\n      swap3\n      swap2\n      pop\n      pop\n      jump\t// out\n        /* \"#utility.yul\":451:631   */\n    tag_29:\n        /* \"#utility.yul\":499:576   */\n      0x4e487b7100000000000000000000000000000000000000000000000000000000\n        /* \"#utility.yul\":496:497   */\n      0x00\n        /* \"#utility.yul\":489:577   */\n      mstore\n        /* \"#utility.yul\":596:600   */\n      0x11\n        /* \"#utility.yul\":593:594   */\n      0x04\n        /* \"#utility.yul\":586:601   */\n      mstore\n        /* \"#utility.yul\":620:624   */\n      0x24\n        /* \"#utility.yul\":617:618   */\n      0x00\n        /* \"#utility.yul\":610:625   */\n      revert\n        /* \"#utility.yul\":637:834   */\n    tag_22:\n        /* \"#utility.yul\":676:679   */\n      0x00\n        /* \"#utility.yul\":695:714   */\n      tag_38\n        /* \"#utility.yul\":712:713   */\n      dup3\n        /* \"#utility.yul\":695:714   */\n      tag_27\n      jump\t// in\n    tag_38:\n        /* \"#utility.yul\":690:714   */\n      swap2\n      pop\n        /* \"#utility.yul\":728:747   */\n      tag_39\n        /* \"#utility.yul\":745:746   */\n      dup4\n        /* \"#utility.yul\":728:747   */\n      tag_27\n      jump\t// in\n    tag_39:\n        /* \"#utility.yul\":723:747   */\n      swap3\n      pop\n        /* \"#utility.yul\":770:771   */\n      dup3\n        /* \"#utility.yul\":767:768   */\n      dup3\n        /* \"#utility.yul\":763:772   */\n      add\n        /* \"#utility.yul\":756:772   */\n      swap1\n      pop\n        /* \"#utility.yul\":793:803   */\n      0xffffffff\n        /* \"#utility.yul\":788:791   */\n      dup2\n        /* \"#utility.yul\":785:804   */\n      gt\n        /* \"#utility.yul\":782:827   */\n      iszero\n      tag_40\n      jumpi\n        /* \"#utility.yul\":807:825   */\n      tag_41\n      tag_29\n      jump\t// in\n    tag_41:\n        /* \"#utility.yul\":782:827   */\n    tag_40:\n        /* \"#utility.yul\":637:834   */\n      swap3\n      swap2\n      pop\n      pop\n      jump\t// out\n        /* \"#utility.yul\":840:1040   */\n    tag_26:\n        /* \"#utility.yul\":879:883   */\n      0x00\n        /* \"#utility.yul\":899:918   */\n      tag_43\n        /* \"#utility.yul\":916:917   */\n      dup3\n        /* \"#utility.yul\":899:918   */\n      tag_27\n      jump\t// in\n    tag_43:\n        /* \"#utility.yul\":894:918   */\n      swap2\n      pop\n        /* \"#utility.yul\":932:951   */\n      tag_44\n        /* \"#utility.yul\":949:950   */\n      dup4\n        /* \"#utility.yul\":932:951   */\n      tag_27\n      jump\t// in\n    tag_44:\n        /* \"#utility.yul\":927:951   */\n      swap3\n      pop\n        /* \"#utility.yul\":975:976   */\n      dup3\n        /* \"#utility.yul\":972:973   */\n      dup3\n        /* \"#utility.yul\":968:977   */\n      sub\n        /* \"#utility.yul\":960:977   */\n      swap1\n      pop\n        /* \"#utility.yul\":999:1009   */\n      0xffffffff\n        /* \"#utility.yul\":993:997   */\n      dup2\n        /* \"#utility.yul\":990:1010   */\n      gt\n        /* \"#utility.yul\":987:1033   */\n      iszero\n      tag_45\n      jumpi\n        /* \"#utility.yul\":1013:1031   */\n      tag_46\n      tag_29\n      jump\t// in\n    tag_46:\n        /* \"#utility.yul\":987:1033   */\n    tag_45:\n        /* \"#utility.yul\":840:1040   */\n      swap3\n      swap2\n      pop\n      pop\n      jump\t// out\n\n    auxdata: 0xa264697066735822122004465582b9897ef0e7cc8be69382ea3487871bcc3ed7e17f9ab3f35c4a76c29364736f6c634300081a0033\n}\n",
				"bytecode": {
					"linkReferences": {},
					"object": "6080604052348015600e575f80fd5b5061027e8061001c5f395ff3fe608060405234801561000f575f80fd5b506004361061004a575f3560e01c80634f2be91f1461004e5780636d4ce63c1461006c578063853255cc1461008a578063c54124be146100a8575b5f80fd5b6100566100c6565b6040516100639190610194565b60405180910390f35b610074610109565b6040516100819190610194565b60405180910390f35b610092610120565b60405161009f9190610194565b60405180910390f35b6100b0610133565b6040516100bd9190610194565b60405180910390f35b5f60015f808282829054906101000a900463ffffffff166100e791906101da565b92506101000a81548163ffffffff021916908363ffffffff1602179055905090565b5f805f9054906101000a900463ffffffff16905090565b5f8054906101000a900463ffffffff1681565b5f60015f808282829054906101000a900463ffffffff166101549190610211565b92506101000a81548163ffffffff021916908363ffffffff1602179055905090565b5f63ffffffff82169050919050565b61018e81610176565b82525050565b5f6020820190506101a75f830184610185565b92915050565b7f4e487b71000000000000000000000000000000000000000000000000000000005f52601160045260245ffd5b5f6101e482610176565b91506101ef83610176565b9250828201905063ffffffff81111561020b5761020a6101ad565b5b92915050565b5f61021b82610176565b915061022683610176565b9250828203905063ffffffff811115610242576102416101ad565b5b9291505056fea264697066735822122004465582b9897ef0e7cc8be69382ea3487871bcc3ed7e17f9ab3f35c4a76c29364736f6c634300081a0033",
					"opcodes": "PUSH1 0x80 PUSH1 0x40 MSTORE CALLVALUE DUP1 ISZERO PUSH1 0xE JUMPI PUSH0 DUP1 REVERT JUMPDEST POP PUSH2 0x27E DUP1 PUSH2 0x1C PUSH0 CODECOPY PUSH0 RETURN INVALID PUSH1 0x80 PUSH1 0x40 MSTORE CALLVALUE DUP1 ISZERO PUSH2 0xF JUMPI PUSH0 DUP1 REVERT JUMPDEST POP PUSH1 0x4 CALLDATASIZE LT PUSH2 0x4A JUMPI PUSH0 CALLDATALOAD PUSH1 0xE0 SHR DUP1 PUSH4 0x4F2BE91F EQ PUSH2 0x4E JUMPI DUP1 PUSH4 0x6D4CE63C EQ PUSH2 0x6C JUMPI DUP1 PUSH4 0x853255CC EQ PUSH2 0x8A JUMPI DUP1 PUSH4 0xC54124BE EQ PUSH2 0xA8 JUMPI JUMPDEST PUSH0 DUP1 REVERT JUMPDEST PUSH2 0x56 PUSH2 0xC6 JUMP JUMPDEST PUSH1 0x40 MLOAD PUSH2 0x63 SWAP2 SWAP1 PUSH2 0x194 JUMP JUMPDEST PUSH1 0x40 MLOAD DUP1 SWAP2 SUB SWAP1 RETURN JUMPDEST PUSH2 0x74 PUSH2 0x109 JUMP JUMPDEST PUSH1 0x40 MLOAD PUSH2 0x81 SWAP2 SWAP1 PUSH2 0x194 JUMP JUMPDEST PUSH1 0x40 MLOAD DUP1 SWAP2 SUB SWAP1 RETURN JUMPDEST PUSH2 0x92 PUSH2 0x120 JUMP JUMPDEST PUSH1 0x40 MLOAD PUSH2 0x9F SWAP2 SWAP1 PUSH2 0x194 JUMP JUMPDEST PUSH1 0x40 MLOAD DUP1 SWAP2 SUB SWAP1 RETURN JUMPDEST PUSH2 0xB0 PUSH2 0x133 JUMP JUMPDEST PUSH1 0x40 MLOAD PUSH2 0xBD SWAP2 SWAP1 PUSH2 0x194 JUMP JUMPDEST PUSH1 0x40 MLOAD DUP1 SWAP2 SUB SWAP1 RETURN JUMPDEST PUSH0 PUSH1 0x1 PUSH0 DUP1 DUP3 DUP3 DUP3 SWAP1 SLOAD SWAP1 PUSH2 0x100 EXP SWAP1 DIV PUSH4 0xFFFFFFFF AND PUSH2 0xE7 SWAP2 SWAP1 PUSH2 0x1DA JUMP JUMPDEST SWAP3 POP PUSH2 0x100 EXP DUP2 SLOAD DUP2 PUSH4 0xFFFFFFFF MUL NOT AND SWAP1 DUP4 PUSH4 0xFFFFFFFF AND MUL OR SWAP1 SSTORE SWAP1 POP SWAP1 JUMP JUMPDEST PUSH0 DUP1 PUSH0 SWAP1 SLOAD SWAP1 PUSH2 0x100 EXP SWAP1 DIV PUSH4 0xFFFFFFFF AND SWAP1 POP SWAP1 JUMP JUMPDEST PUSH0 DUP1 SLOAD SWAP1 PUSH2 0x100 EXP SWAP1 DIV PUSH4 0xFFFFFFFF AND DUP2 JUMP JUMPDEST PUSH0 PUSH1 0x1 PUSH0 DUP1 DUP3 DUP3 DUP3 SWAP1 SLOAD SWAP1 PUSH2 0x100 EXP SWAP1 DIV PUSH4 0xFFFFFFFF AND PUSH2 0x154 SWAP2 SWAP1 PUSH2 0x211 JUMP JUMPDEST SWAP3 POP PUSH2 0x100 EXP DUP2 SLOAD DUP2 PUSH4 0xFFFFFFFF MUL NOT AND SWAP1 DUP4 PUSH4 0xFFFFFFFF AND MUL OR SWAP1 SSTORE SWAP1 POP SWAP1 JUMP JUMPDEST PUSH0 PUSH4 0xFFFFFFFF DUP3 AND SWAP1 POP SWAP2 SWAP1 POP JUMP JUMPDEST PUSH2 0x18E DUP2 PUSH2 0x176 JUMP JUMPDEST DUP3 MSTORE POP POP JUMP JUMPDEST PUSH0 PUSH1 0x20 DUP3 ADD SWAP1 POP PUSH2 0x1A7 PUSH0 DUP4 ADD DUP5 PUSH2 0x185 JUMP JUMPDEST SWAP3 SWAP2 POP POP JUMP JUMPDEST PUSH32 0x4E487B7100000000000000000000000000000000000000000000000000000000 PUSH0 MSTORE PUSH1 0x11 PUSH1 0x4 MSTORE PUSH1 0x24 PUSH0 REVERT JUMPDEST PUSH0 PUSH2 0x1E4 DUP3 PUSH2 0x176 JUMP JUMPDEST SWAP2 POP PUSH2 0x1EF DUP4 PUSH2 0x176 JUMP JUMPDEST SWAP3 POP DUP3 DUP3 ADD SWAP1 POP PUSH4 0xFFFFFFFF DUP2 GT ISZERO PUSH2 0x20B JUMPI PUSH2 0x20A PUSH2 0x1AD JUMP JUMPDEST JUMPDEST SWAP3 SWAP2 POP POP JUMP JUMPDEST PUSH0 PUSH2 0x21B DUP3 PUSH2 0x176 JUMP JUMPDEST SWAP2 POP PUSH2 0x226 DUP4 PUSH2 0x176 JUMP JUMPDEST SWAP3 POP DUP3 DUP3 SUB SWAP1 POP PUSH4 0xFFFFFFFF DUP2 GT ISZERO PUSH2 0x242 JUMPI PUSH2 0x241 PUSH2 0x1AD JUMP JUMPDEST JUMPDEST SWAP3 SWAP2 POP POP JUMP INVALID LOG2 PUSH5 0x6970667358 0x22 SLT KECCAK256 DIV CHAINID SSTORE DUP3 0xB9 DUP10 PUSH31 0xF0E7CC8BE69382EA3487871BCC3ED7E17F9AB3F35C4A76C29364736F6C6343 STOP ADDMOD BYTE STOP CALLER "
				},
				"gasEstimates": {
					"creation": {
						"codeDepositCost": "127600",
						"executionCost": "169",
						"totalCost": "127769"
					},
					"external": {
						"add()": "infinite",
						"get()": "2473",
						"sub()": "infinite",
						"sum()": "2485"
					}
				},
				"methodIdentifiers": {
					"add()": "4f2be91f",
					"get()": "6d4ce63c",
					"sub()": "c54124be",
					"sum()": "853255cc"
				}
			},
			"storageLayout": {
				"storage": [
					{
						"astId": 3,
						"contract": "contracts/myContacts/2_count.sol:Counter",
						"label": "sum",
						"offset": 0,
						"slot": "0",
						"type": "t_uint32"
					}
				],
				"types": {
					"t_uint32": {
						"encoding": "inplace",
						"label": "uint32",
						"numberOfBytes": "4"
					}
				}
			},
			"userdoc": {
				"kind": "user",
				"methods": {},
				"version": 1
			}
		}
	}
}